:100000000C943B020C9473020C9473020C947302D4
:100010000C9473020C9473020C9473020C9473028C
:100020000C9473020C9473020C94BC1F0C94781FF4
:100030000C94B9200C9473020C9473020C94730208
:100040000C9473020C9473020C9473020C9473025C
:100050000C9473020C9495200C9473020C9473020C
:100060000C9473020C9473020C9473020C9473023C
:100070000C9473020C9473020C9473020C9473022C
:100080000C9473020C9473020C9473020C9473021C
:100090000C9473020C9473020C9473020C9473020C
:1000A0000C9473020C9473020C9473020501090200
:1000B000A10185020901A1000509190129081500FE
:1000C0002501950875018102050109300931158165
:1000D000257F95027508810609381581257F9501D0
:1000E00075088106050C0A38021581257F95017572
:1000F000088106C0C005010980A101850319012AF4
:10010000B700150126B700950175108100C0050CD8
:100110000901A101850419012AA002150126A002E6
:10012000950175108100C00660FF0961A101096297
:10013000150026FF00952075088102096315002629
:10014000FF00952075089102C005010906A101056F
:100150000719E029E7150025019508750181029529
:1001600001750881010507190029FF150026FF0008
:100170009506750881000508190129059505750181
:100180009102950175039101C0FD377A585A00001C
:1001900004E6D6B4460200210116000000742FE5E3
:1001A000A3E0010300AF5D003D8889C65436C31744
:1001B0004FE4E62D65CF099BCCB423272F04CB89D0
:1001C0009E6D8CE1DFFA171FDBDD7E7D5075AA0581
:1001D00030AF27C43C2ABC32F57A5829F030914B15
:1001E0000F91E61CC7731BA1FCA8780CA405864ED2
:1001F000F8E419EBDA97D50E491B12CF8B0CB475C6
:10020000ADDA841BB13C3013C78B4FE8FA13F1957C
:10021000DF91A0B9BD1619A37CB02ED372501A8EEF
:100220003ED5A792965B72CBB9D3C2E0353B83FF34
:10023000591E689166383265BC2F1F7B54FC7C4088
:100240008E0F10F0DBEAC439E7DB6AAED158F65600
:10025000A64470D8FEFE0000004F1575642E0C8D6C
:10026000210001CB018402000018E6A5E4B1C467B7
:10027000FB020000000004595A29003A003B003CF0
:10028000003D002A0028003E003F004000000041E1
:10029000002B00E2002C410000E000420029003A5F
:1002A000003B003C003D002A0028003E003F00408B
:1002B00000000041000100010001000000010001F8
:1002C0000001000100010001000100010001000126
:1002D0000001000100000001000100010001000018
:1002E0000001000100010001000100010001000106
:1002F00000010001000100010000000100010001F7
:1003000000010000000100010009025B0003010080
:10031000A0FA0904000001030101000921110100F4
:1003200001224000070581030800010904010002C1
:1003300003000000092111010001222200070582AB
:100340000320000107050303200001090402000146
:1003500003000000092111010001227B0007058430
:10036000032000011201000200000008444B465324
:100370000100010203011C037600690061006C00AA
:100380003A00660036003400630032006200330039
:10039000630000000E0353007500660066006500F0
:1003A000720000001C034B006900730065007200BE
:1003B0002000440065007300690067006E00730050
:1003C0000000040309040000000000000000000019
:1003D000000000000000000000000000000000001D
:1003E000000000000000000000007E0F00D4FFFFAE
:1003F000FFC70000007800000000000000002A2B6A
:1004000028000000000000000000000000000000C4
:100410000029000000002C1E34202122243426272D
:10042000252E362D3738271E1F202122232425264E
:100430003333362E37381F0405060708090A0B0C1C
:100440000D0E0F101112131415161718191A1B1C64
:100450001D2F3130232D350405060708090A0B0C22
:100460000D0E0F101112131415161718191A1B1C44
:100470001D2F3130354C11241FBECFEFDAE0DEBF27
:10048000CDBF04B603FE18C0809176049091770426
:10049000A0917804B09179048730904BA740B04B7D
:1004A00059F4109276041092770410927804109206
:1004B0007904E0E0F8E3099511E0A0E0B1E0EAEAB0
:1004C000F1E502C005900D92A436B107D9F724E0FA
:1004D000A4E6B1E001C01D92A637B207E1F70E9481
:1004E000E0200C9486280C940000482F209175047D
:1004F00090912C0459E0291302C080E0089530E067
:10050000529FF001539FF00D1124E35DFB4F818159
:10051000681306C08081481303C085818111EECF26
:100520002F5F3F4F2770E7CFE8EDF0E080818E7FAF
:1005300080831092E2001092DA001092E100A0EEA7
:10054000B0E08C9181608C9380818F77808319BC1F
:10055000A7EDB0E08C918E7F8C9380818F7E80831D
:100560001092150408952091E4003091E50095E67D
:10057000A9012091EC00822F817020FF06C080919C
:10058000E80080FF06C080E008952091E80022FD89
:100590001AC080912204882389F0853089F08091E7
:1005A000EB0085FD0FC02091E4003091E50042177B
:1005B0005307F9F29150E1F684E0089582E008953E
:1005C00083E0089581E008958091240487FF13C09B
:1005D0008091E80082FF06C08091E8008B778093CD
:1005E000E80004C0809122048111F2CF0895809127
:1005F00022048823D9F38091E80080FFF8CF80910E
:10060000E8008E77ECCF982F9093E900242F762F77
:1006100050E0891731F07091EC002091ED0050917D
:10062000F00021FD07C09F5F973071F78093E900CC
:1006300081E008953091EB003E7F3093EB003091E4
:10064000ED003D7F3093ED003091EB003160309351
:10065000EB007093EC002093ED005093F00020919C
:10066000EE0027FDE0CF80E00895B0E0A0E0EBE3EE
:10067000F3E00C94BE27C8EDD0E088818F7E88839C
:10068000E7EDF0E080818160808384E082BF81E0DB
:100690008093150488818E7F888302EE10E0F80134
:1006A00010821092DA0081EEC82ED12CF601108251
:1006B00088818F77888388818068888388818F7D0F
:1006C000888319BC109222041092230410922104F2
:1006D0001092200490EEE92EF12CF70180818B7F9F
:1006E000808388818160888342E060E080E00E94AE
:1006F0000303F60180818E7F8083F8018081816011
:100700008083808188608083F70180818E7F8083F1
:10071000888180618883CDB7DEB7E8E00C94DA2762
:10072000FC0180912A0490912B0486179707A0F072
:100730006115710529F49091E8009E779093E80087
:1007400090E06115710551F4911108C08091E800A5
:1007500082FF34C080E00895BC01F2CF8091220472
:100760008823C1F18530C1F18091E80083FD30C05C
:100770008091E80082FDEACF8091E80080FFE1CF20
:100780008091F3002091F200382F6115710519F066
:100790002830310558F091E02830310509F090E01B
:1007A0002091E8002E772093E800CBCF81918093B1
:1007B000F100615071092F5F3F4FE7CF8091220414
:1007C000882341F0853041F08091E80083FFBECF5F
:1007D00081E0089582E0089583E0089580911704F0
:1007E00008959C014FB7F8948091110490911204E0
:1007F000A0911304B09114044FBF821B930B089572
:100800002FB7F8948091110490911204A0911304D1
:10081000B09114042FBF08959C01FC0132969FEF04
:1008200080E04191461751F09F3F19F4411101C0FA
:10083000982F8F5F8630A9F79F3F09F40895290FFD
:10084000311D97FD3A95F90162830895A3E0B0E068
:10085000ECE2F4E00C94C42720910E0430910F04D4
:1008600028173907A1F090930F0480930E04E091AC
:100870000C04F0910D04309751F024E029839B8300
:100880008A830680F781E02DCE0101960995239693
:10089000E2E00C94E027A3E0B0E0E1E5F4E00C94A2
:1008A000C42720910A0430910B0428173907A1F0BE
:1008B00090930B0480930A04E0910C04F0910D04D2
:1008C000309751F023E029839B838A830680F78148
:1008D000E02DCE01019609952396E2E00C94E027E5
:1008E000E0910C04F0910D04309729F00190F08113
:1008F000E02D0995089580E00895DC016091FD03E5
:100900008091FE03962F891301C00895292F30E0AE
:10091000F901EE0FFF1FEB50FC4F408151814A1748
:100920005B07A1F487E08A9FA0018B9F500D1124E3
:10093000445E5C4F81E0FA0184839613E6CF2F5F1B
:100940003F4F237033272093FD0308952F5F3F4FC0
:10095000922F9370D8CF10921A0310921903ECE1E2
:10096000F3E08581811102C014821682379683E0FC
:10097000EC38F807B1F70895E1EDF1E090E080E0A0
:1009800069E07EE140E35EE128E73DE1778366834D
:1009900051874087338722879587848701963E96C3
:1009A0008C30910599F7089581152CE7920741F451
:1009B0002091010430910204232B11F490E080E097
:1009C00008950E9400049C019091B5018091B601A8
:1009D000982B21F03093B2012093B1019091B7018F
:1009E0008091B801982B21F03093B0012093AF0192
:1009F000E0910C04F0910D04309749F082E080936F
:100A0000B3010480F581E02D83EB91E00995089511
:100A10008091AE0180FD16C081FD16C082FD16C01A
:100A20008091AD018823A1F0883280F428E0829F74
:100A3000C001112468E270E00E949327862F672B83
:100A400039F0089582E0089584E0089588E00895DB
:100A500081E008958091AE0180FD14C081FD14C035
:100A600082FD16C08091AC01882381F08E3180F424
:100A700020E5829FC00111246EE170E00E9493275F
:100A8000862F089584E1089588E2089588E0089506
:100A900080E5089580E00895F894E82FE295EF70DE
:100AA000F0E031A1282F2F7081E090E001C0880F85
:100AB0002A95EAF7982F9095932391A392A1892BD9
:100AC00082A37894089590919A0192FF06C0282FEE
:100AD00028712830F9F4877F846093FF06C0282F9F
:100AE00028712831F1F4877E846120919B0120FFD9
:100AF00006C0382F38713830D9F4877F816021FFE4
:100B000006C0282F28712831D1F4877E816194FD99
:100B1000877E0895282F24712430F9F68B7F886012
:100B2000DCCF282F2471243101F78B7E8861DDCF43
:100B3000382F3171313019F78E7F8860E0CF282F40
:100B40002171213121F78E7E8861E1CF82389105B4
:100B5000B9F1B0F48133910509F47DC048F48932CC
:100B6000910509F46DC08A32910509F47BC008959E
:100B70008533910509F45FC08933910509F1089522
:100B8000833E9105D9F138F4803E910529F1823EEA
:100B9000910579F10895863E9105D9F1873E910539
:100BA00009F43EC0843E910541F520919B0121FF4F
:100BB00024C080919A0184FD19C087EE90E00895C9
:100BC00020919A01237009F05AC020919B0123FFC4
:100BD00014C089E290E0089520919A0120FD38C068
:100BE00030919B0130FF09C024FF43C090E080E0BA
:100BF000089520919A0122FDF7CF089520919A013E
:100C000022FD3AC030919B0130FD39C024FFF5CF61
:100C1000EDCF20919A0123FFF0CF24FDE7CFCDCF78
:100C200020919A0123FD2EC030919B0131FFEECF20
:100C300084EE90E0089520919A0125FFDECFC9CF80
:100C400020919A0125FD21C020919B0123FFD5CF42
:100C500089E390E0D2CF20919A0126FFCECF8AE29D
:100C600090E0089520919A0126FFC7CF81E390E09C
:100C7000089583EE90E0089582EE90E0089580EE6E
:100C800090E0089586EE90E0089585E390E0089561
:100C90001F93CF93DF930E94A605EC01C11580E559
:100CA000D807F0F5C11580E4D80708F09CC0C03E15
:100CB000D10520F5CD3CD10508F082C0C83AD10558
:100CC00078F4C53AD10508F073C0C130D10519F1E7
:100CD000209709F1C430D105F0F4D0E0C0E01BC08A
:100CE000C33CD105D0F7C85AD0E0CC0FDD1FCB5E96
:100CF000DE4F0990D881C02DD4640DC0C11580E2AB
:100D0000D80708F0D1C0C11581E0D80708F05AC053
:100D1000C83ED10510F7CE01DF91CF911F91089504
:100D2000C03682E5D80718F5C03482E5D80708F048
:100D30006BC0C03282E5D80708F05FC0C11582E5FC
:100D4000D80708F497C02C2F2695269580E2289F77
:100D5000900111248C2F8370C1E0D0E002C0CC0F31
:100D6000DD1F8A95E2F7C22BD32BDD68D4CFC03AC2
:100D700082E5D80760F4C03882E5D80708F459C086
:100D8000CF71D0E0DC2FCC27C46FD06AC4CFC03C79
:100D900082E5D80708F462C0C03E82E5D80708F0B3
:100DA0009CCFDC2FCC27CC27DF71C06FD06AB3CFAC
:100DB000C55AD0E0CE5EDE4FC881D0E0D064ABCF64
:100DC000D065A9CF8D2F0E946305182FCE019927DA
:100DD0000E94A605C12FD0E0DC2FCC27CC27DF71E5
:100DE000C82BD92B98CFCE0199270E94A605CC27D6
:100DF000DF70C82BD92BD06A8ECFCF71D0E0DC2F1B
:100E0000CC27C16FD06A87CF2C2F269526952770C7
:100E100080E2289F900111248C2F8370C1E0D0E0E4
:100E200002C0CC0FDD1F8A95E2F7C22BD32BDC6802
:100E300072CF2C2F26952695277080E2289F90014F
:100E400011248C2F8370C1E0D0E002C0CC0FDD1FD5
:100E50008A95E2F7C22BD32BDA685DCF8C2F8F7186
:100E60000E946305C82FD0E0DC2FCC27CC27DF7190
:100E7000D06251CF8C2F8F710E94630555E0D695BB
:100E8000C7955A95E1F7CF70D0E0DC2FCC27282FFB
:100E900030E084FF05C044E0220F331F4A95E1F79C
:100EA000C22BD32BD06937CF8D2F8F710E94630552
:100EB000182FCE0199270E94A605C12FD0E0DC2F64
:100EC000CC27CC27DF71C82BD92BD2CF80918F01B3
:100ED000882331F010928F0110928E0110928D01B3
:100EE000089590918F01292F282361F080958923FF
:100EF00080938F01882339F00E94000490938E0123
:100F000080938D01089590E080E0F8CF80959091D6
:100F10000604982390930604089580959091070401
:100F200098239093070408951092840110928301EE
:100F300010928201089590918101292F282321F098
:100F40008095892380938101089580917504909103
:100F50002C04981301C008958F5F8770FACF292F52
:100F6000933078F5863068F590E036E0239F800D69
:100F7000911D1124682F677023E0969587952A9517
:100F8000E1F7FC01EE0FFF1FE80FF91FE159FE4FDB
:100F900050E040E080E0219130E0062E02C036951E
:100FA00027950A94E2F721703327042E01C0220FFF
:100FB0000A94EAF7822B4F5F5F4F4330510559F790
:100FC000089580E00895292F933098F5863088F5AC
:100FD00090E036E0239F800D911D1124282F27706B
:100FE00041E001C0440F2A95EAF723E096958795E2
:100FF0002A95E1F7FC01EE0FFF1FE80FF91FE159F9
:10100000FE4F30E020E070E05191DF011197CB01FD
:10101000022E02C0969587950A94E2F78170819519
:101020008527842385278C932F5F3F4F23303105FD
:1010300059F708958093990108959091990121E0BD
:1010400030E0F90101C0EE0F8A95EAF7D90102C03C
:10105000AA0FBB1F6A95E2F7EA2B01C0220F4A953F
:10106000EAF7892F8E23E81305C0292B822F0E94CF
:101070001A08089520952923F9CF21E030E001C016
:10108000220F8A95EAF720958091990182230E9488
:101090001A08089590918401809589238093840192
:1010A000282F277069F4891759F090919B0192FFBE
:1010B00007C08695869586950E943D080E949407F4
:1010C000089521E030E001C0220F8A95EAF780916F
:1010D0009901822B0E941A08089590919B0192FF1A
:1010E00010C098E0899F90011124622B60938401C5
:1010F0000E9461080E940004909383018093820102
:1011000008950E94610808958093980108956623C8
:1011100009F45DC08D3C41F40E942A0581958093BD
:10112000B6010E94E10408958E3C19F40E942A053C
:10113000F6CF8F3C31F40E942A0581958093B5014A
:10114000F0CF803D19F40E942A05F8CF893D29F49B
:101150000E9408058093B701E4CF8A3D21F40E94E4
:1011600008058195F7CF8B3D31F40E9408058195E4
:101170008093B801D6CF8C3D19F40E940805F8CFB2
:101180009FE2980F983070F4815D990B21E030E078
:1011900001C0220F8A95EAF78091B401822B8093D7
:1011A000B401BFCF8D3D31F48091AE018160809359
:1011B000AE01B7CF8E3D21F48091AE018260F7CFB2
:1011C0008F3D09F0AECF8091AE018460F0CF4091A9
:1011D000B5018D3C59F48091B60187FF0DC0109286
:1011E000B60141110BC01092AC0108C08E3C81F4D5
:1011F0008091B60118169CF3442381F08091B701C9
:101200009091B801892B09F08CCF1092AD0189CF54
:101210008F3C49F447FFF0CF1092B5018091B601A1
:101220008111ECCFE0CF803D19F41416ACF3E4CF7C
:101230009091B701893D29F41916F4F61092B7017F
:10124000DBCF8A3D19F497FFD7CFF8CF9091B80143
:101250008B3D29F497FFD0CF1092B801CDCF8C3DB4
:1012600019F41916CCF3C8CF9FE2980F983090F478
:10127000815D990B21E030E0B90102C0660F771F54
:101280008A95E2F7CB0180959091B40189238093F0
:10129000B401B2CF8D3D31F48091AE018E7F809349
:1012A000AE01AACF8E3D21F48091AE018D7FF7CFA4
:1012B0008F3D09F0A1CF8091AE018B7FF0CF9C01D3
:1012C0003A9521153F4150F5FC01EE27F170BC0124
:1012D00066277270AC01442754709C012227387035
:1012E00094FF0EC080E1EF2B09F480E0672B09F03A
:1012F0008062452B09F08064232B89F08068089573
:1013000081E0EF2B09F480E0672B09F08260452B28
:1013100009F08460232B19F08860089580E0089517
:101320000F931F93CF93DF938B01EA0190912204D7
:10133000943061F58093E9008FEF9091E80081503F
:1013400095FD06C095ED9A95F1F700008111F5CF56
:101350008091E80085FF1AC00E94B302811111C07C
:101360008091E80085FD06C08091E8008E7780932B
:10137000E800F2CFF80181918F018093F10021976D
:1013800079F78091E8008E778093E800DF91CF9124
:101390001F910F91089543E050E0BC0184E00E944A
:1013A0009009089546E050E0BC0184E00E94900955
:1013B0000895CF93DF93EC0148E050E0BC0181E059
:1013C0000E94900988E0FE01A8E1B4E001900D922E
:1013D0008A95E1F7DF91CF91089581E08093E00055
:1013E00080E28093D8001092C9008FE19EE40197BB
:1013F000F1F700C0000087E090EBDC0180937604F9
:1014000090937704A0937804B093790488E19CE0EA
:101410000FB6F894A895809360000FBE909360007B
:10142000FFCFCF93DF93C1E6D2E060E0CE010E9410
:101430004A282196C11584E0D807B9F7DF91CF91EA
:1014400008951F93CF93DF93122F8830E0F4633019
:10145000D0F44630C0F4C42FD0E0CC0FDD1F9CE0A8
:10146000699FC00DD11D112494E2899FC00DD11D2B
:101470001124632FCE0189960E944A28612FCE0144
:101480008A960E944A28DF91CF911F910895CF93A9
:10149000C82F6FEF811166E185E290E00E944A2833
:1014A0006FEFC11161E186E290E00E944A286FEF80
:1014B000C11168E887E290E00E944A28CF91089520
:1014C000A4E1B0E0E6E6FAE00C94B927A0900104AC
:1014D000B090020481E090E09093020480930104B4
:1014E00099E7892E92E0992E10E000E06401712CBA
:1014F0001FC021E030E0043011053CF4F701EE0F8D
:10150000FF1FEC0DFD1D259134914E2D672D802F71
:101510000E94210A8FEFE81AF80AE6E0EE16F104BD
:1015200041F7FCE0CF0ED11C739483E0781619F0DC
:10153000F12CE12CDECF0F5F1F4FE4E28E0E911CE9
:101540000830110599F61A8219821C821B821E82AC
:101550001D8218861F8288EC90E09A87898709E4AB
:1015600011E04AE050E0B801CE0101960E946E28D9
:10157000065F1F4F013CF1E01F0799F77E018BE0EA
:10158000E80EF11C8AE0F70111928A95E9F74AE02A
:1015900050E0B801C7010E946E28065F1F4F013658
:1015A000F2E01F07A1F7B0920204A0920104649632
:1015B000EDE00C94D52780E00E94470A60E088E2C5
:1015C00090E00E944A280E94600A0E94110A81E06D
:1015D0000E94470A08959B018C3070F49AE0899F1D
:1015E000B0011124675B7E4F4AE050E0C9010E94C0
:1015F0001C2890E080E008958FEF9FEF0895AAE007
:10160000B0E0E5E0FBE00C94C4279C0137552F3F88
:10161000310509F068F4BE016F5F7F4F0E94EB0A4D
:10162000892B31F489859A852A96E2E00C94E0278B
:1016300088EC90E0F9CF0F931F93CF93DF9388301E
:1016400030F5633020F5463010F5C42FD0E0CC0FD4
:10165000DD1F2CE0629FC00DD11D112434E2839F59
:10166000C00DD11D1124CE0189960E942C28082F6F
:1016700010E0102F0027CE018A960E942C28980196
:10168000282BC901DF91CF911F910F91089590E010
:1016900080E0F8CF462F2091AA013091AB01232B97
:1016A00099F4703F39F4603F79F48091B9019091D9
:1016B000BA010895733040F4663030F4883020F475
:1016C000672F0E941B0B089590E080E00895CF9251
:1016D000DF92FF920F931F93CF93DF936C010091E2
:1016E000990180919801082BC7E0D0E010E0FC2E12
:1016F000C8010C2E02C0959587950A94E2F780FDEB
:101700000CC02197A0F7F12C8F2DDF91CF911F9165
:101710000F91FF90DF90CF900895B6018C2F0E941B
:101720004A0B0E944806019761F3EECFCF93DF93F7
:10173000EC010E94670BBE010E944A0B0E94480602
:10174000DF91CF910895FC0184818823F9F087818E
:101750009085009791F00E94480692959F70963070
:10176000B9F080F4925F9F70923080F4803F19F05E
:1017700058F4883E58F481E00895808191810E9458
:10178000960BEBCF9A5FEFCF843FA9F380E00895EB
:10179000883E88F3813FD1F7EECFA6E0B0E0E3EDDD
:1017A000FBE00C94C3279C01FC0187819085009786
:1017B000E1F486E0DE01119601900D928A95E1F741
:1017C000F901258189819A81222399F0662389F084
:1017D0000E94670B182F682F89819A810E94E30766
:1017E00069817A81812F0E944A0B2696E3E00C944E
:1017F000DF270E94AF07182FF3CF85E290E00E9409
:101800002C28863189F486E290E00E942C288131D0
:1018100059F487E290E00E942C2891E0883809F082
:1018200090E0892F8170089580E0FCCFAAE0B0E0BD
:10183000ECE1FCE00C94BE27E9E7F2E080EADF018E
:101840001D928A95E9F7ECE1F3E080E7DF011D9254
:101850008A95E9F789E7C82E82E0D82E7F0101EC4E
:1018600011E0F701D182C0824AE050E0B801CE0118
:1018700001960E941C2888E0FE013196D601019055
:101880000D928A95E1F789859A85D70113969C93E5
:101890008E931297BAE0CB0ED11CE7E0EE0EF11C4E
:1018A000065F1F4F0136F2E01F07D9F62A96E8E0DF
:1018B0000C94DA278091070490910604892B809379
:1018C000660180918F01882319F10E940004209104
:1018D0008D0130918E01821B930B8838934110F05B
:1018E0000E9466078091660190918F01892B8093F9
:1018F000660120E088E691E0FC013191CF013111D1
:101900002F5FF1E08E369F07B9F721110E9466071D
:1019100048E050E065E871E086E691E00E94082822
:10192000892BA9F088E0E6E6F1E0A5E8B1E00190B6
:101930000D928A95E1F7E0910C04F0910D04309737
:1019400031F00280F381E02D86E691E0099508955B
:10195000CF93DF93EC01EA85FB85309719F06C8516
:101960007D8509958B810E9486078C810E948D0759
:101970000E945A0C86E0FE0111928A95E9F7DF91E8
:10198000CF910895CF93DF93EC018D8181FD18C035
:1019900082608D83809106049B81892B809306044D
:1019A000809107049C81892B809307040E945A0C24
:1019B000E885F985309721F06C857D85CE01099504
:1019C00010920904109208048D8180FD03C0CE019D
:1019D0000E94A80CDF91CF910895CF931092070435
:1019E000C6E0E8E6F1E0DF018C2F1D928A95E9F769
:1019F00090E080E00E944B0490E080E00E9426048A
:101A0000109206040E945A0CE3EBF1E0DF011D92F4
:101A1000CA95E9F71092AC011092AD011092AE0197
:101A20000E94E104CF910895AAE2B0E0EAE1FDE06E
:101A30000C94C32784E294E02091F100DC012D9303
:101A4000CD01B4E08C329B07B9F780912504833037
:101A500009F472C0B8F4813009F449C0823009F445
:101A6000B3C08091E80083FF96C2809124049091D6
:101A700025049A3008F08FC2E92FF0E0E857F74DBF
:101A80000C94A7278A3009F48EC08B3009F471C0FA
:101A9000893039F780912404813219F78091280424
:101AA00090912904009711F00297D9F68091E800EF
:101AB000877F8093E8008091E80082FF38C0909192
:101AC000F3008091F200029731F48091F1008130AF
:101AD00011F0863021F48091F100809317048091F9
:101AE000E8008B778093E8000E94E402BACF8091EF
:101AF0002404813A09F0B5CF8091E800877F809374
:101B0000E8008091280490912904892B61F468E011
:101B100088E194E070E00E9490038091E8008B7768
:101B20008093E8009ECF60E090E080E0F3CF80916A
:101B300022048111C0CF95CF80912404813A09F00D
:101B400090CF8091280490912904892B09F089CFA6
:101B50008091E800877F8093E8008091E80080FF13
:101B6000FCCF809109018093F1008091E8008E778D
:101B7000B9CF80912404813209F073CF8091280479
:101B800090912904892B09F06CCF8091E800877F20
:101B90008093E8000E94E40280912604809309016A
:101BA0000E94ED0C5ECF80912404813209F059CF60
:101BB0008091E800877F8093E8000E94E402809192
:101BC0002704809316044DCF80912404813A09F0B4
:101BD00048CF8091E800877F8093E8008091E800FB
:101BE00080FFFCCF80911604BECF803899F08238F8
:101BF00009F0D1C1809128048F70873008F0CBC1E3
:101C00008093E9008091EB0085FB882780F9109292
:101C1000E90006C080912004909121049111826016
:101C20009091E800977F9093E8008093F1001092E4
:101C3000F1008091E8008E77AAC1882309F498C149
:101C4000823009F0A8C18091260481119BC1809146
:101C500028048F702FEF280F263008F09CC1809346
:101C6000E9002091EB0020FF8DC1933031F4809189
:101C7000EB0080628093EB0085C19091EB00906156
:101C80009093EB0021E030E001C0220F8A95EAF743
:101C90002093EA001092EA008091EB008860EACF7E
:101CA000811179C1109126041F778091E30080781B
:101CB000812B8093E3008091E800877F8093E80088
:101CC0000E94E4028091E80080FFFCCF8091E30055
:101CD00080688093E30082E0111183E08093220406
:101CE0005AC18058823008F056C1209126043091A4
:101CF00027042C3DE3E03E07A1F583E08A838AE2D6
:101D000089834FB7F894DE01139620E03EE051E25C
:101D1000E32FF0E050935700E49120FF03C0E295D9
:101D2000EF703F5FEF708E2F90E0EA30C0F0C79603
:101D30008D939D932F5F243159F74FBF8091E80019
:101D4000877F8093E8006AE270E0CE0101960E94EE
:101D500090038091E8008B778093E8001CC1C096C7
:101D6000E7CF8091280490912904432F55274330D1
:101D7000510509F44AC078F54130510509F485C090
:101D80008BE590E0E9E0F3E04230510509F003C152
:101D90002091E800277F2093E80020912A043091C9
:101DA0002B048217930708F49C0140E021153105AC
:101DB00009F070C041116EC08091E80082FDC9CF6A
:101DC00080912204882329F2853019F28091E8005D
:101DD00083FFF2CFBECF4132510509F447C04232F2
:101DE000510509F0D8C08330910508F0D4C0FC013A
:101DF000EE0FFF1FE95AFE4F0190F081E02D8C5A43
:101E00009E4FDC018C9190E01DC0332721303105BD
:101E1000E9F02115310579F022303105F9F0233050
:101E2000310509F0B8C0E6E7F3E0E4918E2F90E0C9
:101E3000E6E7F3E007C0E2ECF3E0E4918E2F90E0F8
:101E4000E2ECF3E0009709F4A6C0A2CFE4EAF3E0E5
:101E5000E4918E2F90E0E4EAF3E0F4CFE4E9F3E0DC
:101E6000E4918E2F90E0E4E9F3E0ECCF833091052C
:101E700008F091C0880F991FFC01E35AFE4F0190B2
:101E8000F081E02D89E090E083CF82E190E0E4E60C
:101E9000F3E07ECF80912204882309F45ACF853065
:101EA00009F457CF8091E80083FD53CF8091E8007B
:101EB00082FD82CF8091E80080FF78CF9091F3007F
:101EC0008091F2002115310519F08830910550F00C
:101ED00041E0089709F040E08091E8008E77809318
:101EE000E80064CF44914093F100319621503109CC
:101EF0000196E8CF803809F04EC08091E800877FD6
:101F00008093E800809123048093F10092CE8111A8
:101F100042C0109126041230F0F58091E800877FCE
:101F20008093E800109323040E94E402112311F02F
:101F300084E005C08091E30087FDFACF81E08093C3
:101F4000220442E061EC81E00E94030342E261EC82
:101F500084E00E94030342E261EC82E00E940303FA
:101F600042E260EC83E00E9403038091220413C0EC
:101F700080912604813079F481E0933009F080E08B
:101F8000809321041092E9008091E800877F80937C
:101F9000E8000E94E4028091E80083FF0AC080917B
:101FA000E800877F8093E8008091EB008062809357
:101FB000EB00AA96E3E00C94DF270E94ED0C2FEFD4
:101FC00084E39CE0215080409040E1F700C0000095
:101FD00088E19CE00FB6F894A895809360000FBE4E
:101FE00090936000FFCF882321F00E9486070E9413
:101FF0005A0C0895882339F090910604982B9093F9
:1020000006040E945A0C0895882321F00E948D072F
:102010000E945A0C0895882339F090910704982B58
:10202000909307040E945A0C08958823D1F19CEFE5
:10203000980F913A78F4E8E6F1E09191891303C0A2
:10204000DF0111971C9291E0EE36F907B1F70E947B
:102050005A0C089590E2980F983050F4877091E0F0
:1020600001C0990F8A95EAF7892F0E948D07EFCF5B
:102070009BE5980F933028F490E080E00E944B0499
:10208000089598E5980F9B3128F490E080E00E9435
:102090002604089593E3980F933118F460E00E94AA
:1020A00087080895CF93C82F8823B1F08CEF8C0F49
:1020B000813A00F5E8E6F1E08EE691E0DF012D914E
:1020C000C21761F08A179B07D1F76C2F86E691E063
:1020D0000E940C040E945A0CCF9108952191C213C2
:1020E00003C0DF0111971C928E179F07B9F70E945A
:1020F0005A0CEBCF80E28C0F883068F4C77021E077
:1021000030E001C0220FCA95EAF780910704822BC4
:1021100080930704DFCFEBE5EC0FE33040F4F0E011
:10212000EE5EFE4F808190E00E944B04D5CFE8E543
:10213000EC0FEB3150F4F0E0EE0FFF1FEB5EFE4FC3
:10214000808191810E942604C7CF83E38C0F833165
:1021500018F661E08C2F0E948708BECF1F93CF93A3
:10216000DF93182FD0E0C0E0893311F4C0E5D0E050
:10217000812F0E945210209739F4812F0E94151050
:10218000DF91CF911F9108958FE99FE00197F1F7BB
:1021900000C000002197EFCFB0E0A0E0E2EDF0E159
:1021A0000C94BC27EC018AE0A82E2881222309F494
:1021B0008FC02130C9F599818A81913021F422960E
:1021C0000E94AE1005C0923029F422960E9452104F
:1021D0002196EBCF933021F422960E941510F8CF70
:1021E000943011F02196F4CF229630E020E0AE0139
:1021F0004F5F5F4F8053990B8A30910550F021500B
:10220000310930F38FE99FE00197F1F700C000003A
:10221000F6CFA29EB001A39E700D11249C01260F43
:10222000371F8981EA01E3CFE22FF0E0EA50FC4F4B
:10223000B490822F86958695869590E0FC01EA51B0
:10224000FC4FE4902770F12C022E02C0F594E79425
:102250000A94E2F731E0E322FF24FC01EA52FC4F4A
:10226000C490D12C022E02C0D594C7940A94E2F7F0
:1022700031E0C322DD24FC01EA53FC4F049110E05D
:1022800002C0159507952A95E2F701701127E11410
:10229000F10419F081EE0E945210C114D10419F01A
:1022A00086EE0E9452108B2D0E94AE10C114D104F4
:1022B00019F086EE0E941510E114F10419F081EE78
:1022C0000E9415100115110509F482CF8CE278CF18
:1022D000CDB7DEB7EAE00C94D827B0E0A0E0E3E7A2
:1022E000F1E10C94BE276B01C42FD22FFC01858134
:1022F0008823A9F0409305040E94000490930404ED
:1023000080930304C77081E001C0880FCA95EAF783
:102310000E940B10CDB7DEB7E8E00C94DA271091DD
:102320000504141337C080910304909104040E94A3
:10233000F1037C01C6010E94FF0AE816F90650F578
:10234000C0E2CD0F1D17C1F080E2810F883048F444
:10235000177081E0012E01C0880F0A94EAF70E94ED
:102360000410C83048F481E09D2F977001C0880F99
:102370009A95EAF70E940B10802F0E94AE10C83089
:1023800048F6D77081E001C0880FDA95EAF70E941D
:102390000410C0CFC77081E001C0880FCA95EAF76A
:1023A000F6CF90919B0192FB222720F9281779F014
:1023B00080FB92F990939B0160919A0170919B012F
:1023C00084E090E00E94682882E00E944A08089514
:1023D000A4E0B0E0EEEEF1E10C94BB276C01DC016F
:1023E00014968C91882309F4D2C161E0C6010E9441
:1023F000CD0B8C01F6018581882309F180910804B9
:10240000909109040097D9F008171907C1F0FEE070
:102410008F9FC0011124FC01EA52FE4F20812460ED
:1024200020838F529E4FDC010D931C930E94C20C9F
:102430001092060461E0C6010E94CD0B8C01F601EA
:102440008581882309F4B1C09801375720383105B8
:1024500008F0ABC0F02EFFE1F01708F489C18FEF50
:1024600093E00E942C28811183C101E612E0F11053
:1024700036C019821A821B821C8299249A94780190
:102480003FEFE31AF30AC8010E942C2889831A82BD
:10249000882309F46DC1813009F081C0580142E000
:1024A000A40EB11CC7010E942C28E82E8A83882321
:1024B00009F45EC1C5010E942C28F82E8FEF8E0D05
:1024C0008330D8F4580153E0A50EB11CFB82FF20E5
:1024D00021F0CE0101960E94CC108501D0CF0115CC
:1024E00024E0120709F444C1C8010E942C2881117C
:1024F00001C0FA940F5F1F4FBACF8BEF8E0D833060
:1025000030F5C8010396FB825C01FF2031F35801CE
:10251000A4E0AA0EB11C0E942C288C838823E9F227
:102520008B819C818130BFEF9B0710F0982F88270B
:10253000E6E0EE1631F0F7E0EF1631F00E94FE1DF6
:10254000CCCF0E94C61DC9CF0E94401DC6CF24E03B
:10255000E212C3CF580134E0A30EB11CC8010396A8
:102560000E942C28FF2009F403C1882309F400C12C
:102570008150990B989E9001999E300D11244F2DFA
:102580004150550BCA01820F931F019708F4A5CF44
:10259000AFE9BFE01197F1F700C00000F6CFCE0120
:1025A00001960E94CC10570198CF7801E7E5FE1AFA
:1025B0008111BAC0FFEFEF16F10411F008F0BAC0B4
:1025C00067EC71E08E2D0E94EB0A892B29F58EE0D5
:1025D0008E9DF0018F9DF00D1124EF52FE4F8281F0
:1025E000813009F086C08091C7019091C801892B84
:1025F00099F08091C9019091CA01892B69F080916D
:10260000CB019091CC012091CD013091CE01822B54
:10261000932B892B09F477C05801BB242EE0029F2D
:10262000F0011124AF014F525E4F7A01D601159689
:102630008C91EA52FE4F908180FB90F99083882321
:1026400009F486C00E9400049093A1018093A00128
:10265000D70112968C9112978F5F12968C931297D6
:102660008091060490910704892B13968C931397FD
:1026700080918F0114968C9314971696ED91FC918E
:102680001797309729F01C966D917C91C701099599
:102690008EE08A9DF0018B9DF00D1124EF52FE4FCC
:1026A000858181FF52C090E080E090930804809380
:1026B0000904D60115968C91882309F4CDC3109294
:1026C0000504C8019057839708F0B0C384E090E0F8
:1026D0000E94342890939B0180939A01F801E15065
:1026E000F047E232F10508F07AC0EE56F74D0C944F
:1026F000A727823009F090CF8091CB019091CC0137
:10270000892B09F489CF2EE02E9DC0012F9D900DBD
:102710001124FC01EA52FE4F20812E7F20838F522C
:102720009E4F0E94C20C78CF2FEFE216F10409F001
:1027300008F472CFF801E851FC47E730F10508F0E2
:10274000B8CFEC54F74D0C94A727902F812FADCF25
:10275000F701858181FFADCFC7010E94A80CA9CFE9
:1027600006E221EE41EE6AE17CE7C6010E946D11AE
:1027700080918401877059F0F6018581882339F0B2
:1027800080919B0182FF03C082E00E944A08249648
:10279000EBE00C94D72707E225EE45EE6BE17CE7F2
:1027A000E4CF06E221EE40EE68E17CE7DECF07E20F
:1027B00025EE44EE69E17CE7D8CF06E221EE42EE59
:1027C0006CE17CE7D2CF07E225EE46EE6DE17CE7D7
:1027D000CCCF08E221E045EE6EE17CE7C6CF8091E8
:1027E0009A01816080939A0195C080919B018860D5
:1027F00080939B018FC080919A018260F3CF80917A
:102800009A018460EFCF80919A018860EBCF80912C
:102810009B018160EDCF80919B018260E9CF809127
:102820009A018061DFCF80919A018062DBCF809135
:102830009A018064D7CF0E94ED0C80919A01806844
:10284000D1CF80919A018C60CDCF80919B01836024
:10285000CFCF80919A018E7FC5CF80919B01877FDA
:10286000C7CF80919A018D7FBDCF80919A018B7FD8
:10287000B9CF80919A01877FB5CF80919B018E7FE0
:10288000B7CF80919B018D7FB3CF80919A018F7ECE
:10289000A9CF80919A018F7DA5CF80919A018F7BDE
:1028A000A1CF0E94ED0C80919A018F779BCF8091F0
:1028B0009A01837F97CF80919B018C7F99CF8091E4
:1028C0009A0182FB992790F921E0922790FB82F9E7
:1028D00090FB83F987CF80919B01982F9095917001
:1028E0008E7F892B90FB81F983CF90919A01892F5C
:1028F0008F7B96FF806476CF0E94ED0C90919A01B9
:10290000892F97FB87F980586DCF61E08EE090E0CA
:102910000E944A2860919A0170919B0184E090E0A6
:102920000E9468280E94ED0C23CF60E0EFCF9091C9
:102930009A01892F8F7E94FF806154CF90919A01E4
:10294000892F8E7F90FF81604DCF90919B01892FC1
:10295000877F93FF88604CCF80916E0181110FC0FB
:1029600089E2E8E6F1E02EE631E09191891303C0B7
:10297000DF0111971C922E173F07B9F76AC285E352
:10298000F0CF81E00E94610843E062E081E00E94B4
:102990001D08EECE81E00E943D08F6CF0B353CE7E6
:1029A000130749F10C354CE71407D9F00A351C47D9
:1029B00009F07DC281E01CC00E94ED0C8FEF94E312
:1029C000ACE081509040A040E1F700C000000E94C0
:1029D000ED096FEF7FEF90E080E00E9468280E9491
:1029E000DD0F80919B0182FB882780F991E0892788
:1029F0000E94D1115CC280E0FBCFF601858100818D
:102A00001181882369F0C8010E94670BF82E682F96
:102A1000C8010E94E307B8018F2D0E944A0B4EC2E5
:102A2000C8010E94AF07F82EF6CFE12FEF70FE2EFF
:102A3000107F19F0F29490EFF922EE20B9F0FF2008
:102A400069F080E2800F883010F0011109C0809198
:102A50000704F82AF09207040E945A0C802F40C005
:102A600080910604F82AF0920604F6CF802F0E9487
:102A70001510FF20B9F180E2800F883010F00111AD
:102A800004C08F2D0E948D0703C08F2D0E948607E2
:102A90000E945A0C27C0F12FFF70FF2E107F1032BA
:102AA00019F0F29480EFF822002351F0013009F47C
:102AB00086C0EE2009F492C0BB2009F440C0CECFFE
:102AC00080919B0182FD37C0EE2079F1FF2039F023
:102AD00080910704F82AF09207040E945A0C80E0C3
:102AE0000E945210A92DA850BB0B149710F40E94FD
:102AF0007004AA20A9F08091840180FD11C0F60124
:102B000015828695869586950E946108C6010E9469
:102B1000E811809184018695869586950E943D08EE
:102B200060E0C6010E94CD0B32CE80E00E941510FD
:102B3000FF20C1F2A6CFEE2069F1B11004C08F2DA5
:102B40000E940B10CFCF21E0B21210C010918F0164
:102B50008F2D8123F81631F20E94000490938E018C
:102B600080938D01F12AF0928F01BCCF35E0B31232
:102B7000B9CF8F2D0E940B108F2D0E94710780916D
:102B800081019F2D9823F91609F4ACCFF82AF09211
:102B90008101A8CFB1100AC08F2D0E9404108F2D83
:102BA0000E9471078F2D0E949B079CCF41E0B412B9
:102BB00099CF809107048F2109F494CFEDCFEE20B7
:102BC00029F055E05B1508F48DCFB9CF84E08B1563
:102BD00008F488CF8F2D0E94041084CFBB20D1F33E
:102BE000093349F49FEFA7EEB3E09150A040B04005
:102BF000E1F700C00000802F0E94151073CF812FD5
:102C000086958695837061F0813009F06BCFC8019D
:102C10009370E11002C080E090E00E94260462CF31
:102C2000C8019370E11002C080E090E00E944B0464
:102C300059CF6E2D802F0E94870854CF812F83702B
:102C400089F5E1104FCF402F429546954770440FCC
:102C5000440F802F8F70042E01C0880F0A94EAF76A
:102C6000202F207104FF07C02FE030E001C0220FA9
:102C70004A95EAF72095169516951370123069F06B
:102C800050F430919801113029F0822B83230E9457
:102C9000840828CF832B822BFACF282B8091980190
:102CA0008227F5CF8695EE2011F0812F8170882341
:102CB00009F418CF402F429546954770440F440FB2
:102CC000802F8F70042E01C0880F0A94EAF7202FFE
:102CD000207104FF07C02FE030E001C0220F4A95A9
:102CE000EAF72095169516951370123069F050F496
:102CF00030919901113029F0822B83230E941A0808
:102D0000F1CE832B822BFACF282B80919901822739
:102D1000F5CF1F70EE2029F0812F0E946108802FCF
:102D20000FCF802F0E940410812F0E943D08DACE21
:102D3000023F89F160F4003FB9F0013F81F0EE20DD
:102D400009F464C0B1108ACE812F8F7128C0033F6F
:102D500049F1043FA1F780919B0182FD2FC0812F93
:102D60008F71EE2011F31BC0EE2081F0E4E0EB1533
:102D700008F4B8CE1F7181E090E0012E01C0880FE9
:102D80000A94EAF7909199018927B8CFF5E0FB15ED
:102D900008F4A8CEEFCF812F8F71E110C6CF0E942B
:102DA0006108A0CE80E0EE2009F4A8CF1F7181E079
:102DB000012E01C0880F0A94EAF7A0CFEE20C9F0D7
:102DC000809184018770843041F40E949407812FA0
:102DD0008F710E943D08A12C85CE24E02B15D8F3DD
:102DE0001F71812F0E94610863E0812F0E946D088E
:102DF000F2CF34E03B1530F40E94940764E0812F59
:102E00008F71F4CF81E00E944A08E5CFBB2059F0D2
:102E1000093309F0F0CE4FEF57EE83E041505040B8
:102E20008040E1F7E6CE812F8F717FCF0631BCE77E
:102E30001B0711F5809107048A7A91E009F490E06C
:102E400090936E0169E2811165E386E691E00E944C
:102E50000C040E945A0C8CCC0631ECE71E0709F4D6
:102E60007BCD0737FCE71F0709F494CD08372CE723
:102E70001207E9F482E08FCD07373CE7130709F426
:102E800080CD82E008374CE7140709F47BCD03308E
:102E9000BCE71B0709F49DCD08F080CD0115FCE7C8
:102EA0001F0709F489CD01301C4709F498CDD601DC
:102EB00017968D919C91009709F49FCD0E9448062A
:102EC0008C01D6011596EC9015971696BC90B2948D
:102ED0003FE0B322809184018770F1F0AE2CEE20A8
:102EE000E1F0812F807F803451F080E2800F8830C4
:102EF00098F0B11004C0812F807E803269F08091FB
:102F00009B0182FF09C082E00E944A0880918401EF
:102F10008770AA24A3948111A12C912E92942FE062
:102F20009222BBE0B91508F4DDCDE92DF0E0E554BF
:102F3000F74D0C94A727B0E0A0E0E1EAF7E10C948C
:102F4000BF2780917E01807F09F051C080917D0173
:102F5000882309F44CC0E091750489E0D82E809153
:102F60002C048E1709F443C00E2F10E0ED9DF001E4
:102F70001124E35DFB4F84818823F1F1D09EE001B1
:102F8000D19ED00D1124FE01E35DFB4F9181809114
:102F90007901981331C090818091780198132CC0E9
:102FA0008581811129C0E280F38080917A0190911E
:102FB0007B01E81AF90A60E088E791E00E94CD0BF6
:102FC0000E94FF0AE816F906B8F480917E018F701E
:102FD000806180937E01CD5CDB4F88818F70806142
:102FE000888388E791E00E94E8110E94A507CDB789
:102FF000DEB7E7E00C94DB27F8013196E770AFCF3E
:10300000A8E1B0E0E6E0F8E10C94B7278C0186E097
:10301000F801DE01539601900D928A95E1F7F801CF
:10302000F480E58088E7882E81E0982E80917C01ED
:1030300081112AC0F11003C0FF24F3941CC0EE20BC
:10304000F9F0C8010E94A30BF82E8823C9F089E08B
:10305000F801A8E7B1E001900D928A95E1F780911F
:103060007C01813031F480917801909179010E9446
:10307000960B0E949B178F2D6896EFE00C94D32738
:10308000C8010E94E811D8CFC280D380B0907D01E2
:1030900080917A0190917B013601681A790ABB20F0
:1030A00009F420C15080A18060E088E791E00E948F
:1030B000CD0B0E94FF0A6816790608F0BDC0FF20FC
:1030C00009F4BACF80917E01382F307F20917901A9
:1030D000F8019181311161C0FE2C29131DC020918E
:1030E00078019081291318C040917F01509180018F
:1030F000278130854217530779F4E11047C08F705C
:10310000806180937E0188E791E00E94E8118091C0
:103110007E01F8018683AFCFE11038C06A2D852D7E
:103120000E9475026A2D852D0E947502E82E81117C
:10313000A2CF5B8AAC8A8B899C890E94960B292F2F
:1031400022952F70243058F49F70223088F09923F4
:1031500099F0F8019681907F79F4FE2C8CCF2A5F4C
:103160002F70223068F0C8010E94E811EB2CF5CFD7
:10317000992311F0882389F3805E883070F3F3CFB0
:10318000803F58F3815F833070F7E7CF80917E01F5
:10319000816080937E01F12C6ECF29131EC0209197
:1031A00078019081291319C040917F0150918001CD
:1031B000278130854217530781F4E1100EC08683C2
:1031C000C8010E94E81189E0F801A8E7B1E0019088
:1031D0000D928A95E1F7FB2C4ECFC8010E94A30BFC
:1031E000882309F44DCFEE2009F44ACF80917E0167
:1031F0008032B8F020917801309179013B872A879D
:10320000DD86CC8690917C019E871F86888B80917D
:103210007F01909180019A8B898BCE010A960E9442
:10322000E81189E0F801A8E7B1E001900D928A95D4
:10323000E1F70E949B1700CF80917E01982F907F2D
:1032400051F488E791E00E94E81189E0F4011192BD
:103250008A95E9F7A0CFFF2009F4EECE20917901FD
:10326000F801918129131AC02091780190812913C6
:1032700015C040917F015091800127813085421710
:10328000530761F4E1100AC08683C8010E94E81167
:1032900089E0F40111928A95E9F79DCFC8010E9457
:1032A000A30B882309F4ECCEEE2009F4E9CE80913B
:1032B0007E01803208F4B5CF2091780130917901F8
:1032C0003A832983DC82CB8290917C019D831E828C
:1032D0008F8380917F019091800199878887CE01AB
:1032E00001969DCF60E088E791E00E94CD0B0E949F
:1032F000FF0A6816790608F0A8CFFF2009F49CCED3
:10330000FE2CEE2009F4BCCE90917901F801818168
:10331000981336C0909178018081981331C0209124
:103320007F0130918001878190852817390741F509
:1033300080917A0190917B01C81AD90AF8ECCF16D6
:10334000D104A8F490917E0190FD11C0907F79F096
:1033500080917E01F8018683903F31F0982F907F15
:10336000905F8F70892B8683C8010E94E81189E0E5
:10337000F801A8E7B1E001900D928A95E1F77BCEC4
:10338000C8010E94A30B81114CCF80917E01816006
:1033900080937E01C8010E94E8116DCEA2E1B0E0E9
:1033A000E4EDF9E10C94C2270A871B872C873D873F
:1033B0004E875F87688B798B8A8BCE010A960E9435
:1033C000001881110CC089E0FE013A96DE011196C9
:1033D00001900D928A95E1F78E8581110BC019E05D
:1033E0008091750490912C04891331C06296E4E0B9
:1033F0000C94DE2720912C0430E0C90101968770DF
:103400009927409175044817190699F099E0929F01
:10341000D001939FB00D1124A35DBB4FFE013196E7
:1034200001900D929A95E1F780932C040E94A507D4
:10343000D6CF0E94ED0C10922C041092750489E0F6
:10344000E8E7F1E0DF011D928A95E9F7C8CF819F97
:10345000C0011124835D9B4F0E940018882331F224
:103460008091750490E00196877099278093750488
:10347000B7CFEF92FF920F931F93CF93DF9380917B
:103480008C03882361F0E0911B038DE0F82E80917E
:103490008C03E81748F010928C0310921B03CDB7F1
:1034A000DEB7E6E00C94DC27EE24E394EE0EE09227
:1034B0001B03CE2FD0E0EF9DF0011124E357FC4F0A
:1034C00084818823E9F087819085892B21F4818587
:1034D0009285019659F400811181228133814481C2
:1034E00055816681778180850E94CE19FC9EF0010E
:1034F000FD9EF00D1124E357FC4F14821092060438
:10350000EE2DC5CF109200041092FF031092080117
:103510008091FE038093FD030E94AB040E94391A40
:103520000895B0E0A0E0E7E9FAE10C94B527C09176
:10353000FD0397E0992E01E010E02DE0322E34E0FB
:10354000432E552453948091FE038C1309C00E948E
:10355000391A0E94AB04CDB7DEB7E1E10C94D12754
:10356000D0E0FE01EE0FFF1FEB50FC4F80819181F8
:10357000989ED001999EB00D1124A45EBC4F149664
:103580002C911497211159C060908C03EDE8F3E061
:1035900030E020E0812C5D01261508F04CC0E3846A
:1035A000F484D501CD90DC906FEF7FEF712C472D27
:1035B00050E0DA01AA0FBB1FAC0DBD1D0D90BC91F0
:1035C000A02D109731F0EA16FB0609F4BA017394A6
:1035D000EECF6F3F7607A9F1D80102C0AA0FBB1F3B
:1035E0006A95E2F78A2AB801072C02C0660F771F96
:1035F0000A94E2F7AB01415051098416150601F512
:10360000329EF001339EF00D1124E357FC4F989E3B
:10361000D001999EB00D1124A45EBC4F12962D913D
:103620003C911397308727834482108211829287BE
:10363000818715965C920E947D042196C37083CF8A
:1036400014822F5F3F4F3D96A7CFAEE1B0E0EBE293
:10365000FBE10C94B4274B8B5C8B6D8B7E8B8F8B3B
:10366000988F911110920604188A198A1A8A86E096
:10367000FE017396DE011A9601900D928A95E1F78C
:1036800080919B0182FF1CC00E9400042091820156
:1036900030918301821B930B8838934120F08091F5
:1036A000840182FFE9C10E94000420918D013091C4
:1036B0008E01821B930B8838934110F00E9466079D
:1036C0008E85882389F061E0CE010A960E94CD0B99
:1036D0006C018F8540E5C4164CE7D40689F4882335
:1036E00029F181E0809308010A851B852C853D85A1
:1036F0004E855F85688979898A890E94CE19C7C0FD
:1037000061E5C6166CE7D60629F4882379F00E9495
:10371000821AEACF72E5C7167CE7D70639F4882308
:1037200029F0809108018111F2CFDBCF8CE1E82EE6
:1037300083E0F82E512CB12CA12C88248394912C59
:10374000CE0101969A8F898F44244394F7014081DA
:10375000518166246A94762C20E0822F90E0FC014F
:10376000EE0FFF1FE40FF51F608171816115710578
:1037700031F0C616D70609F43C012F5FEECF10E0FA
:10378000FFEF6F167F0609F443C0F70144811091E3
:103790000801812F411180E0182F1170F701358049
:1037A00086819F85992309F4F3C0112309F4F0C0A1
:1037B000311014C0A401062C01C0440F0A94EAF78A
:1037C000842B86838091190390911A03C29730F459
:1037D00062E370E070931A0360931903C40102C09E
:1037E000880F991F2A95E2F70197F701268128177C
:1037F000190671F48091FF0390910004009709F479
:103800004AC00E94F103C39708F445C0F7014482FF
:10381000512AFFEFAF1ABF0A27E0E20EF11C30E198
:10382000A316B10409F092CF8F85882309F410C143
:10383000552009F40DC10E94000490930004809368
:10384000FF0380918C03883010F591E0980F9093DE
:103850008C0399E0FE013A96DE01119601900D92DB
:103860009A95E1F74DE0849FC001112483579C4F46
:1038700029E0FE013196DC0101900D922A95E1F7D5
:103880002FEF3FEFFC0132872187D486C3866E96E7
:10389000E2E10C94D0278091FD035091FE03982F14
:1038A000F0E0E0E0851314C09093FD03EE16FF06F0
:1038B00009F4AECF90E0FC01EE0FFF1FEB50FC4F80
:1038C000B182A0820196837099278093FE03A0CFD6
:1038D000282E312CF101EE0FFF1FEB50FC4F208101
:1038E0003181F7E0F29FD001F39FB00D1124A45E67
:1038F000BC4F2D913C9111973E8F2D8F40E020E0E1
:1039000030E0E32FF0E0EE0FFF1F6D8D7E8DE60FB0
:10391000F71F6080718061147104E1F0F70101907C
:10392000F081E02DFC8FEB8F20E005C06616770656
:1039300009F4412F2F5FE22FF0E0EE0FFF1F6B8D98
:103940007C8DE60FF71F608171816115710571F73C
:103950003F5FD7CF4423C9F0F701231708F0FD01DB
:103960004482EE16FF0621F49093FD03142F50CFEE
:10397000981305C0AE17BF0711F49F5F93709101B4
:103980002F5F3F4F822F83708DCFF0E0E0E0F7CFC5
:1039900090E0311020C0B40102C0660F771F2A9555
:1039A000E2F79B01215031092817390731F44423EC
:1039B00009F44CC0C5010E947D04C401062C01C05D
:1039C000880F0A94EAF7982F9095F701868189234A
:1039D0008683132D1DCFAC01062C02C0559547954B
:1039E0000A94E2F7BA01617077279C0121503109EE
:1039F00082239323892B31F5672B21F1F7018281F3
:103A00009381892BE1F0E98DFA8D27E011922A95B7
:103A1000E9F70E940004282F8B839C8334E03D83C8
:103A2000F70182819381782F8887998709811A818C
:103A30003C8144E05E816F81892F0E94CE19F7019D
:103A40001582BBCFF42FF1703F2EB7CF312EB5CFFB
:103A50009091FD038091FE03981729F00E94911A1E
:103A6000511015CF41CE0E94391A109200041092C5
:103A7000FF030E94AB04F4CF82E00E944A0813CEF9
:103A8000A6E0B0E0E6E4FDE10C94C2278C0190933F
:103A9000BA018093B901011580E21807C0F4802FA4
:103AA0000E941510C8010E945F099801205E31092B
:103AB0002830310518F00115110531F40E94041069
:103AC0002696E4E00C94DE270E94F30FF9CF80EFF6
:103AD00089838A830E9400048160682F9C838B8382
:103AE00049815A817C8181E090E00E94251BE8CFCA
:103AF0000F931F93CF93DF938C01EB0167EC71E081
:103B00008C2F0E94EB0A892B71F4DD27C554DE4F00
:103B10008881F801128218828330F1F048F48130F4
:103B200059F0823081F0DF91CF911F910F9108956C
:103B30008430B9F08530B9F78091C7019091C80100
:103B4000009789F306C08091C9019091CA0100973E
:103B500099F30E94401DE7CF8091CB019091CC0159
:103B6000F6CF8091CD019091CE01009791F72091F1
:103B7000C7013091C8018091C9019091CA012115F6
:103B80003105F1F2009729F7C901E3CFA6E0B0E0D3
:103B9000ECECFDE10C94C2278C019093BA01809368
:103BA000B901011580E21807C0F4C8010E945F093D
:103BB0009801205E31092830310518F001151105F2
:103BC00049F40E940B10802F0E9452102696E4E0C8
:103BD0000C94DE270E94FA0FF6CF80EF89838A8348
:103BE0000E9400048160682F9C838B8349815A81E5
:103BF0007C8181E091E00E94251BE8CFCF93DF9389
:103C0000EC010E94C61DCE010E94401DDF91CF91A4
:103C100008950F931F93CF93DF938C01862F67EC4A
:103C200071E00E94EB0A892BB1F4C091C701D091D9
:103C3000C801209781F0F8018281833051F4CE01D0
:103C40000E94FE1DCE010E94FE1DCE010E94FE1D9F
:103C500002C08430D0F7DF91CF911F910F9108956A
:103C60000F931F93CF93DF938C01EB0167EC71E00F
:103C70008C2F0E94EB0A892B09F05CC0FE01FF2704
:103C8000D80112968C911297E554FE4F8130B9F409
:103C900015969C9192FF02C080830AC090FFFCCFD2
:103CA00082E080838091C9019091CA010097B9F4A4
:103CB0008091C7019091C8010097E1F110C0823056
:103CC000B9F515968C9182FD28C080FD0BC083E06C
:103CD00080838091CB019091CC01009701F10E94EB
:103CE000C61D28C084E080838091CD019091CE01D3
:103CF0000097A9F78091C7019091C8010097F9F04A
:103D00000E94FE1D8091C9019091CA01009739F768
:103D10008091C7019091C801E2CF85E080838091B6
:103D2000C7019091C801009729F00E94FE1DF0CFB5
:103D300086E08083DF91CF911F910F91089580914C
:103D4000C9019091CA01B8CFA6E0B0E0EAEAFEE16D
:103D50000C94C2270E9400048C01809190019091E4
:103D600091018017910781F019821A820E94000444
:103D7000682F49815A81792F80E090E00E94251BAD
:103D800010939101009390012696E4E00C94DE27B5
:103D9000A3E0B0E0EEECFEE10C94BD2719821A829C
:103DA0001B828BE4C82E81E0D82E10E000E0EE24C8
:103DB000E394F12CF60181916F018F3F09F446C025
:103DC000F894E82FE295EF70F0E021A18F70A70141
:103DD00002C0440F551F8A95E2F7CA01922F982B13
:103DE00091A392A18095892382A3789400C0EEE4E8
:103DF000F1E0B12C31E021912F3F09F46CC0A22FEA
:103E0000A295AF70B0E090968C9190E02F7002C0B8
:103E1000959587952A95E2F780FD5DC0832FB82A96
:103E2000330F51E0E435F50731F7F6013197808122
:103E30008F3F11F00E944C0580EA8A95F1F7E1E08E
:103E4000F0E0EC0FFD1FE00FF11FB0820F5F1F4F7E
:103E50000330110509F0AECF43E050E0BE016F5FC3
:103E60007F4F85E991E00E940828892BB1F1898173
:103E70009A81AB818093950190939601A0939701CD
:103E800081E0809394010E940004909393018093B9
:103E9000920180919201909193010E94F103059704
:103EA00000F143E050E065E971E087EA91E00E94AB
:103EB0000828892BD9F08091950190919601A091C5
:103EC00097018093A7019093A801A093A90181E095
:103ED0001092940107C080E0A2CF809194018111DB
:103EE000D8CF80E02396E9E00C94D92780E0F0CF8A
:103EF0001F920F920FB60F9211242F933F934F935F
:103F00005F936F937F938F939F93AF93BF93CF9361
:103F1000DF93EF93FF93D091E900DF708091EC0085
:103F2000C82FC17080FDC0E81092E9008091F000B8
:103F3000877F8093F00078940E94140D1092E9001E
:103F40008091F00088608093F000CD2BCF70C093FB
:103F5000E900FF91EF91DF91CF91BF91AF919F91D8
:103F60008F917F916F915F914F913F912F910F9022
:103F70000FBE0F901F9018951F920F920FB60F92C1
:103F800011242F933F934F935F936F937F938F935E
:103F90009F93AF93BF93EF93FF938091E10082FFD4
:103FA00009C08091E20082FF05C08091E1008B7F13
:103FB0008093E1008091DA0080FF24C08091D800D6
:103FC00080FF20C08091DA008E7F8093DA0080919C
:103FD000D90080FF9DC080E189BD82E189BD09B41F
:103FE00000FEFDCF81E080932204809115048111B1
:103FF00009C00E9494020E9435038091E20084600F
:104000008093E2008091E10080FF17C08091E20080
:1040100080FF13C08091E2008E7F8093E200809148
:10402000E20080618093E2008091D80080628093FA
:10403000D80019BC85E0809322048091E10084FFC0
:104040002BC08091E20084FF27C080E189BD82E11E
:1040500089BD89B5982F917080FFFBCF8091D800E2
:104060008F7D8093D8008091E1008F7E8093E10066
:104070008091E2008F7E8093E2008091E200816077
:104080008093E20080912304882309F447C084E0F0
:1040900080932204809122048091E10083FF27C055
:1040A0008091E20083FF23C08091E100877F8093AD
:1040B000E10082E080932204109223048091E100C9
:1040C0008E7F8093E1008091E2008E7F8093E200FA
:1040D0008091E20080618093E20042E060E080E055
:1040E0000E9403038091F00088608093F000FF91AC
:1040F000EF91BF91AF919F918F917F916F915F9160
:104100004F913F912F910F900FBE0F901F901895D8
:1041100019BC109222041092150474CF8091E30010
:1041200087FD93E090932204B5CF78941F921FB639
:104130001F9211248F939F93AF93BF93809111048B
:1041400090911204A0911304B09114040196A11D42
:10415000B11D8093110490931204A0931304B093A3
:104160001404BF91AF919F918F911F901FBE1F901C
:1041700018951F921FB61F9211248F939F93AF9390
:10418000BF9380911004811113C08091110490910C
:104190001204A0911304B09114044196A11DB11D05
:1041A0008093110490931204A0931304B093140409
:1041B000BF91AF919F918F911F901FBE1F90189537
:1041C000CDB7DEB7E2970FB6F894DEBF0FBECDBF16
:1041D00085B7806885BF85B7806885BF84B7877FCE
:1041E00084BF0FB6F894A895809160008861809391
:1041F0006000109260000FBE80E890E00FB6F89467
:1042000080936100909361000FBE8AE495E09093E3
:104210006501809364010E94BC040E94160C0E94F8
:1042200094020E9435038091E20084608093E20052
:104230007894809122048823A1F01091E9001F70E6
:104240009091EC00892F817090FD80E8182B1092DE
:10425000E9008091E80083FD0E94140D1F70109307
:10426000E90082E084BD93E095BD9AEF97BD80930D
:104270006E000E94FD0B811102C00E94DB0A86ECD9
:104280000E944C0580E30E944C0583E30E944C058C
:104290000EE411E0D8018D918D018F3F11F00E9445
:1042A0004C05B1E004351B07A9F783E0E7EAF1E02C
:1042B000DF01282F1D922A95E9F7E5E9F1E0DF01FA
:1042C0001D928A95E9F790E080E00E943428863EAE
:1042D0009E4F21F40E94FD0B811167C066EE7EEFB8
:1042E00090E080E00E94682860E082E090E00E9418
:1042F0004A2860E083E090E00E944A2810929801EA
:1043000060E074E184E090E00E94682860E086E06C
:1043100090E00E944A286FEF87E090E00E944A28D0
:1043200040E050E0BA0188E090E00E945C2860E044
:1043300084E290E00E944A2860E087E190E00E94D9
:104340004A2860E08CE090E00E944A2860E08DE01E
:1043500090E00E944A2819821A821B821C821D82C8
:104360001E821F82188648E050E068E170E0CE01AE
:1043700001960E943A2840E050E0BA0180E290E0C5
:104380000E945C2880E00E94470A0E94DB0A40E00D
:1043900050E0BA018FE090E00E945C2840E050E0DD
:1043A000BA0183E190E00E945C2882E090E00E94E4
:1043B0002C2880939C0184E090E00E943428909304
:1043C0009B0180939A010E94C81EEFEFF6E721E05F
:1043D000E150F0402040E1F700C000000E94C81EFC
:1043E0008091A70180FF08C06FEF7FEF90E080E031
:1043F0000E9468280E94ED0983E090E00E942C282A
:104400000E94840880E091E090930D0480930C0456
:1044100033243394222423948E010F5F1F4F809105
:10442000220470E1F72EE2E1EE2E853009F4C9C1D5
:104430000E94C81E90919D018091A7019813CBC145
:104440009091A80180919E019813C5C190919F0100
:104450008091A9019813BFC10E94A41EE090080496
:10446000F0900904E114F104E9F08091A001909129
:10447000A1010E94F1036C01C7010E94FF0A8C1583
:104480009D0580F480910804FEE08F9FC0011124F7
:10449000FC01EA52FE4F208122FD04C08F529E4F44
:1044A0000E94C20C80910801882301F18091FF03D2
:1044B000909100040097D1F00E94F103209119031C
:1044C00030911A032817390788F49091FD038091E1
:1044D000FE03981709F4C3C10E94911A10921A039F
:1044E00010921903109200041092FF0386E0E3EB90
:1044F000F1E0D80101900D928A95E1F71092B50193
:104500001092B6011092B7011092B8018B819C8174
:10451000892B09F44AC08091B1019091B2010E94A7
:10452000F1039C019091AC01992309F4F7C4253162
:104530003105D8F19F3F19F09F5F9093AC01FB804C
:10454000FF2059F00E942A059FEF1F140CF491E000
:10455000899F802D11248093B501FC80FF2059F0A4
:104560000E942A059FEF1F140CF491E0899F802D73
:1045700011248093B6013091B5013323B1F020911D
:10458000B601222391F045EB3403C0011124992395
:1045900009F46EC19093B50145EB240390011124F9
:1045A000332309F468C13093B6018D819E81892B34
:1045B00009F44AC08091AF019091B0010E94F103CB
:1045C0009C019091AD01992309F4A3C421353105D3
:1045D000D8F19F3F19F09F5F9093AD01FD80FF20C0
:1045E00059F00E9408059FEF1F140CF491E0899F79
:1045F000802D11248093B701FE80FF2059F00E9486
:1046000008059FEF1F140CF491E0899F802D112461
:104610008093B8013091B7013323B1F02091B801F4
:10462000222391F045EB3403C0011124992309F4AE
:1046300025C19093B70145EB240390011124332346
:1046400009F41FC13093B80146E050E0B80183EB94
:1046500091E00E940828892B61F48091B501909126
:10466000B601892B9091B701892B9091B801892BC4
:1046700011F00E94E10486E0F801A3EBB1E00190A3
:104680000D928A95E1F70E9470049091A20189171A
:1046900069F08093A2018FB7F89440911104509172
:1046A000120460911304709114048FBF809122044E
:1046B000843009F0B4CE83E08093E9008091E80073
:1046C00082FFADCE8091E80090E085FF0AC00E9495
:1046D000B30240E2E42EF12C6801882309F4DEC025
:1046E00091E08091E8008B778093E800992309F4AA
:1046F00096CEE090AA01F090AB018981E114F1041B
:1047000009F4DAC08E3F09F068C18A81833020F055
:104710008550833008F061C1EA81EE3008F05DC158
:10472000F0E0E953F74D0C94A727809122048430E0
:1047300021F11092100488E190E0A0E40FB6F89403
:10474000A895809360000FBEA093600083B7817F1F
:10475000846083BF83B7816083BF7894889583B773
:104760008E7F83BF0FB6F894A89580916000886112
:1047700080936000109260000FBE80912104882316
:1047800001F10E94C81E8091A7019091A801892B78
:104790009091A901892BA9F0F9BCE9BC09B400FEEC
:1047A000FDCF8091D8008F7D8093D8008091E0006C
:1047B00082608093E0008091E00081FDFCCF0E9448
:1047C000ED0C80912204853009F4AFCF0E94ED0CEE
:1047D0000E9470042DCE57EAC52E51E0D52E6DE90A
:1047E000E62E61E0F62EB12CF601A1906F01D70103
:1047F0007D907D017A1419F17A24912C8824839478
:10480000872D8821A1F09BA6BCA60E9400049EA72C
:104810008DA72FA691E08A2D882109F490E098AB0E
:104820004BA55CA56DA57EA58FA50E94251B939425
:10483000880CB6E09B12E4CFF7013197A082B394C5
:10484000E3E0BE12D1CF8FB7F8944091110450919C
:10485000120460911304709114048FBFFFCD0E9465
:10486000391A109200041092FF030E94AB043ECE4E
:104870003092B50191CE3092B60197CE3092B70109
:10488000DACE3092B801E0CE8091F100D6018D935E
:104890006D01B1E0EB1AF10809F422CF8091E80034
:1048A00085FDF2CF8091E8008B778093E8000E942D
:1048B000B302882399F314CF8C3009F4CDC068F586
:1048C000843009F4B0C058F4823009F46CC008F0A8
:1048D0009BC0813009F463C08FEF89837EC086302E
:1048E00009F4B7C008F4AAC08B30B1F78091010475
:1048F00090910204892B09F470C040E250E0B801A5
:1049000082E00E9490093FEF41EE84E03150404048
:104910008040E1F700C000006DCD803109F4CCC0CB
:1049200090F58E3009F49EC008F499C0809101047E
:1049300090910204892B09F450C0EC80F12C3DE1E8
:10494000E316F10408F049C0CA80DB80DC24CD24E2
:10495000DC245801E00EF11EC6018F599D4FEA1468
:10496000FB04D9F14FE9C41641E0D40628F4D5017F
:1049700014966C910E944A28BFEFAB1ABB0AEFEF66
:10498000CE1ADE0AE9CF823109F49BC008F497C041
:10499000833109F4BFC08E3F09F09ECFBDCE1A828D
:1049A00089E08B831AC08A81823009F4AAC28330DD
:1049B000D9F0813009F090CF2FB7F89460911104AD
:1049C0007091120480911304909114042FBF0E94DF
:1049D000AD276B837C838D839E8340E250E0B801DA
:1049E00082E00E9490091BCD809101049091020405
:1049F000892B99F38091A7018B838091A8018C83E7
:104A00008091A9018D83E9CF8A81823009F064CF3A
:104A10006B817C818D819E810E94AD2788E290E030
:104A20000E944A28DACF4C816B818A810E941B0B3D
:104A30009827892798279E838D83CFCF2D813E810C
:104A40003227232732274C816B818A810E94210AD9
:104A5000C4CF0E94600AC1CF80E28A83BECF3A826F
:104A60008FE99FCFEC80F12CEDE1EE16F10408F018
:104A7000B4CFCA80DB80DC24CD24DC245801E00ED6
:104A8000F11EC6018F599D4FAE14BF0409F4A5CF86
:104A9000FFE9CF16F1E0DF0660F40E942C28D50173
:104AA00014968C93FFEFCF1ADF0A2FEFA21AB20AE7
:104AB000E8CFF5011482F6CF0E94110A8ECF88E06C
:104AC000CCCFEC80F12CFDE1EF16F10408F085CF9E
:104AD000CA80DB80DC24CD24DC245801E00EF11EEA
:104AE000C6018996AE14BF0409F477CF20E2C2163E
:104AF00021E0D20660F40E942C28D50114968C93F4
:104B0000FFEFCF1ADF0A2FEFA21AB20AE9CFF501A1
:104B10001482F6CFCC80D12C3DE1C316D10408F02D
:104B20005CCFEA80FB80FE24EF24FE2440E2E41602
:104B300041E0F40608F051CF80E291E08E199F0920
:104B40008C159D0508F449CF370189E2680E711C68
:104B5000809101049091020427014C0C5D1C892B6B
:104B6000B9F5570191E0A922BB24E0FE0DC0C701B1
:104B700088960E942C289D8189279827892781154E
:104B80009C4711F48FEF8D83460140FE1AC0B1E0BF
:104B90008B1A9108E5E0F0E0EC0FFD1FE80DF91D20
:104BA000FAABE9ABC3018C0D9D1D0E942C28A9A96D
:104BB000BAA99C9181159C4721F48FEFE9A9FAA924
:104BC0008083F801EA0DFB1D2FEFA814B90410F043
:104BD00068011BC09481858181159C4711F4248351
:104BE000258342E0A40EB11C3296EFCFA0E2EA1674
:104BF000A1E0FA0620F4F60164810E944A28FFEF42
:104C0000CF1ADF0A2FEFE21AF20AC7018996E414DD
:104C1000F50461F7E2CE88E0EAE0F1E0DE0191968A
:104C200001900D928A95E1F780E2D8011D928A9554
:104C3000E9F786E0898388E0FE01B196DE011596EA
:104C400001900D928A95E1F7C8CE80EF89831A8290
:104C50001B821C82C2CE8C81682F70E0762F662763
:104C60008B81860F972F911D092E000CAA0BBB0B71
:104C700035E0880F991FAA1FBB1F3A95D1F7AC01E9
:104C8000BD01405E5F4F6F4F7F4F481759076A075E
:104C90007B0708F4A2CE803F9105A105B10508F07D
:104CA0009CCE413F51056105710520F040EF50E079
:104CB00060E070E0481B590BBC0167577E4FC8018C
:104CC0000E94FF278ACE4AE150E06FEF70E0CE01EC
:104CD00007960E941528809101048983EA821B822D
:104CE0001C823D8285E08E8378CE81E090E09093B7
:104CF000AB018093AA0182E390E09093A601809398
:104D0000A5010E9400049093A4018093A30165CEA5
:104D1000EF2861F1F090A701E090A8018091A30134
:104D20009091A4010E94F1038536910540F1E5FEC2
:104D300026C0F0FE24C00E9400049093A40180933A
:104D4000A3018091A5019091A60101979093A601DE
:104D50008093A501892B51F41092AB011092AA0106
:104D600081E090E09093020480930104809101041B
:104D700089838091AA018A838091A50112CE82E362
:104D800090E09093A6018093A501F0CF10920204C9
:104D90001092010422CE40E250E06FEF70E0C801B3
:104DA0000E9415281ACE8B81823009F455C0F0F488
:104DB000882309F446C0813009F00FCE8C819AE037
:104DC000F92E6E01B1E2CB0ED11CF6012F2D1192FE
:104DD0002A95E9F7B6010E94EB0A8983F601DE0104
:104DE000129601900D92FA94E1F7F7CD833009F411
:104DF0006AC0843009F0F1CDFC808AE0FE0135966E
:104E0000DE01919601900D928A95E1F789A59AA508
:104E10000E94D4049AA789A7FFE08FEFFF1568F0DE
:104E20002AE0F29EB00111246F537E4F4AE050E019
:104E3000CE0181960E946E2880E089830E94160C24
:104E4000CCCDFE0133968EE1DF011D928A95E9F704
:104E50008CE0898380E101CEFC808AE0FE013596FA
:104E6000DE01919601900D928A95E1F789A19AA1B0
:104E70000E94D4049AA389A38BA19CA10E94D4046C
:104E80009CA38BA38DA19EA10E94D4049EA38DA35D
:104E90008FA198A50E94D40498A78FA33BE08FEF21
:104EA0003F1568F04AE0F49EB0011124675B7E4F25
:104EB0004AE050E0CE0181960E946E2880E089830E
:104EC0000E94BC048ACD6C812AE0CE018196DC016F
:104ED000E22F1D92EA95E9F7603188F4629FB001F4
:104EE00011246F537E4F4AE050E00E941C2880E05E
:104EF00089838AE0FE01B196DE011296A1CE8FEF82
:104F0000F7CF88E290E00E942C281B821C821D8231
:104F1000EACE2B30310508F05ECB96CB2B30310535
:104F200008F00ACB42CB97FB072E16F4009407D06B
:104F300077FD09D00E94EB2707FC05D03EF4909541
:104F400081959F4F0895709561957F4F0895EE0F5D
:104F5000FF1F0590F491E02D099469279627692792
:104F600078278727782708952F923F924F925F9254
:104F70006F927F928F929F92AF92BF92CF92DF9269
:104F8000EF92FF920F931F93CF93DF93CDB7DEB7CE
:104F9000CA1BDB0B0FB6F894DEBF0FBECDBF099462
:104FA0002A88398848885F846E847D848C849B84B9
:104FB000AA84B984C884DF80EE80FD800C811B81C7
:104FC000AA81B981CE0FD11D0FB6F894DEBF0FBEF6
:104FD000CDBFED010895AA1BBB1B51E107C0AA1F5D
:104FE000BB1FA617B70710F0A61BB70B881F991F8A
:104FF0005A95A9F780959095BC01CD010895FB01C4
:10500000DC0102C005900D9241505040D8F7089540
:10501000FB01DC0104C08D910190801921F4415005
:105020005040C8F7881B990B0895DC0101C06D93AF
:1050300041505040E0F70895DC01CB01FC01F999A3
:10504000FECF06C0F2BDE1BDF89A319600B40D92D4
:1050500041505040B8F70895F999FECF92BD81BDF7
:10506000F89A992780B50895A8E1B0E042E050E0B1
:105070000C941E28DC01A40FB51F4150504048F08D
:10508000CB01840F951F2E910E944B284150504018
:10509000D0F70895262FF999FECF92BD81BDF89AD9
:1050A000019700B4021639F01FBA20BD0FB6F8946C
:1050B000FA9AF99A0FBE08950396272F0E944B285B
:1050C0000E944A28252F0E944B28242F0C944B28FD
:1050D0000196272F0E944B280C944A28DC01CB0113
:1050E00003C02D910E94792841505040D0F7089577
:1050F000262FF999FECF1FBA92BD81BD20BD0FB6F4
:10510000F894FA9AF99A0FBE01960895F894FFCF91
:10511000F50D1D0ECB0F1D0ECB0F500E710ECB0FCC
:105120007A0F870F29149E143114FB13FF133514C3
:105130000314391445140F14971413144914171435
:105140004D1475141B1451147C14211457145F143E
:1051500007143D140B14411425145B146B148514AF
:105160009514F5132D14A514D113D713B013CB1325
:10517000DD13E313E913151515154B154B15FF1525
:105180001916721572151E168916981698160B2682
:1051900025262B26ED24ED24632675268826C62693
:0A51A000CB26ED24ED24ED24D326E8
:1051AA00EE03D909D209CB090101BEA29B4C6E7844
:1051BA00DA7D818283E200E900EA00B500B600B731
:1051CA0000CD008301CC008A0192019401210223BF
:1051DA000224022502260227022A02B300B4006F23
:1051EA000070009F01CB019F02A002C63033959345
:1051FA0092F4919040227B49012701AC001B0334B1
:04520A000354030046
:00000001FF
