:100000000C94B9020C94F1020C94F1020C94F102DC
:100010000C94F1020C94F1020C94F1020C94F10294
:100020000C94F1020C94F1020C94CB220C948722D4
:100030000C94C8230C94F1020C94F1020C94F1027C
:100040000C94F1020C94F1020C94F1020C94F10264
:100050000C94F1020C94A4230C94F1020C94F10280
:100060000C94F1020C94F1020C94F1020C94F10244
:100070000C94F1020C94F1020C94F1020C94F10234
:100080000C94F1020C94F1020C94F1020C94F10224
:100090000C94F1020C94F1020C94F1020C94F10214
:1000A0000C94F1020C94F1020C94F1020501090286
:1000B000A10185020901A1000509190129081500FE
:1000C0002501950875018102050109300931158165
:1000D000257F95027508810609381581257F9501D0
:1000E00075088106050C0A38021581257F95017572
:1000F000088106C0C005010980A101850319012AF4
:10010000B700150126B700950175108100C0050CD8
:100110000901A101850419012AA002150126A002E6
:10012000950175108100C00660FF0961A101096297
:10013000150026FF00952075088102096315002629
:10014000FF00952075089102C005010906A101056F
:100150000719E029E7150025019508750181029529
:1001600001750881010507190029FF150026FF0008
:100170009506750881000508190129059505750181
:100180009102950175039101C0FD377A585A00001C
:1001900004E6D6B4460200210116000000742FE5E3
:1001A000A3E0010300AF5D003D8889C65436C31744
:1001B0004FE4E62D65CF099BCCB423272F04CB89D0
:1001C0009E6D8CE1DFFA171FDBDD7E7D5075AA0581
:1001D00030AF27C43C2ABC32F57A5829F030914B15
:1001E0000F91E61CC7731BA1FCA8780CA405864ED2
:1001F000F8E419EBDA97D50E491B12CF8B0CB475C6
:10020000ADDA841BB13C3013C78B4FE8FA13F1957C
:10021000DF91A0B9BD1619A37CB02ED372501A8EEF
:100220003ED5A792965B72CBB9D3C2E0353B83FF34
:10023000591E689166383265BC2F1F7B54FC7C4088
:100240008E0F10F0DBEAC439E7DB6AAED158F65600
:10025000A64470D8FEFE0000004F1575642E0C8D6C
:10026000210001CB018402000018E6A5E4B1C467B7
:10027000FB020000000004595A01000100E903617B
:100280000D460D000002000200E503610D460D0061
:100290000003000100EA03610D460D0000040002A6
:1002A00000CF03610D460DD90505000100EB036188
:1002B0000D460D000006000200D103610D460D0041
:1002C0000007000200E703610D460D000008000171
:1002D00000EC03610D460D000009000200D303612C
:1002E0000D460DB4050A000200D503610D460DB49C
:1002F000050B000200D703610D460DB4050C00028A
:1003000000D903610D460DB4050D000200DB036149
:100310000D460DB4050E000200DD03610D460DB45F
:10032000050F000200DF03610D460DB40510000249
:1003300000E103610D460DB40511000200E3036105
:100340000D460DB40512000200ED03610D460D00CF
:100350000013000200EF03610D460D0000140001C0
:1003600000F103610D460D00001500000000003A89
:10037000059212000029003A003B003C003D002A93
:100380000028003E003F004000000041002B00E23A
:10039000002C410000E000420029003A003B003CF4
:1003A000003D002A0028003E003F004000000041C0
:1003B0000001000100010000000100010001000136
:1003C0000001000100010001000100010001000125
:1003D0000000000100010001000100000001000117
:1003E0000001000100010001000100010001000105
:1003F00000010001000000010001000100010000F7
:10040000000100010009025B00030100A0FA0904D9
:100410000000010301010009211101000122400037
:100420000705810308000109040100020300000020
:100430000921110100012222000705820320000189
:100440000705030320000109040200010300000066
:10045000092111010001227B00070584032000010E
:100460001201000200000008444B46530100010243
:1004700003011C037600690061006C003A0066000D
:100480003600340063003200620033006300000075
:100490000E035300750066006600650072000000E0
:1004A0001C034B00690073006500720020004400CB
:1004B00065007300690067006E00730000000403AC
:1004C000090400000000000000000000000000001F
:1004D000000000000000000000000000000000001C
:1004E0000000000000007E0F00D4FFFFFFC70000E7
:1004F000007800000000000000002A2B2800000007
:1005000000000000000000000000000000290000C2
:1005100000002C1E3420212224342627252E362D9F
:100520003738271E1F202122232425263333362E39
:1005300037381F0405060708090A0B0C0D0E0F10AB
:100540001112131415161718191A1B1C1D2F3130F0
:10055000232D350405060708090A0B0C0D0E0F1094
:100560001112131415161718191A1B1C1D2F3130D0
:10057000354C11241FBECFEFDAE0DEBFCDBF04B68D
:1005800003FE18C08091310690913206A091330687
:10059000B09134068730904BA740B04B59F410927D
:1005A0003106109232061092330610923406E0E0C3
:1005B000F8E3099511E0A0E0B1E0E4E4F8E502C059
:1005C00005900D92AE36B107D9F726E0AEE6B1E060
:1005D00001C01D92A133B207E1F70E94EF230C94F2
:1005E000D32B0C940000482F20912C069091E3050A
:1005F00059E0291302C080E0089530E0529FF001D5
:10060000539FF00D1124EC51FA4F8181681306C0FD
:100610008081481303C085818111EECF2F5F3F4F4A
:100620002770E7CFE8EDF0E080818E7F8083109225
:10063000E2001092DA001092E100A0EEB0E08C919E
:1006400081608C9380818F77808319BCA7EDB0E0A7
:100650008C918E7F8C9380818F7E80831092CC05CD
:1006600008952091E4003091E50095E6A9012091DC
:10067000EC00822F817020FF06C08091E80080FF8F
:1006800006C080E008952091E80022FD1AC0809104
:10069000D905882389F0853089F08091EB0085FDAC
:1006A0000FC02091E4003091E50042175307F9F2A2
:1006B0009150E1F684E0089582E0089583E0089582
:1006C00081E008958091DB0587FF13C08091E800E9
:1006D00082FF06C08091E8008B778093E80004C019
:1006E0008091D9058111F2CF08958091D905882391
:1006F000D9F38091E80080FFF8CF8091E8008E77F1
:10070000ECCF982F9093E900242F762F50E0891793
:1007100031F07091EC002091ED005091F00021FD3E
:1007200007C09F5F973071F78093E90081E00895DB
:100730003091EB003E7F3093EB003091ED003D7F38
:100740003093ED003091EB0031603093EB0070930B
:10075000EC002093ED005093F0002091EE0027FD77
:10076000E0CF80E00895B0E0A0E0E9EBF3E00C9486
:10077000162BC8EDD0E088818F7E8883E7EDF0E00E
:1007800080818160808384E082BF81E08093CC059A
:1007900088818E7F888302EE10E0F801108210922B
:1007A000DA0081EEC82ED12CF601108288818F7775
:1007B000888388818068888388818F7D888319BC3D
:1007C0001092D9051092DA051092D8051092D7052B
:1007D00090EEE92EF12CF70180818B7F8083888158
:1007E0008160888342E060E080E00E948103F6013E
:1007F00080818E7F8083F801808181608083808109
:1008000088608083F70180818E7F8083888180610A
:100810008883CDB7DEB7E8E00C94322BFC018091E1
:10082000E1059091E20586179707A0F06115710523
:1008300029F49091E8009E779093E80090E061158C
:10084000710551F4911108C08091E80082FF34C015
:1008500080E00895BC01F2CF8091D9058823C1F1D1
:100860008530C1F18091E80083FD30C08091E800BF
:1008700082FDEACF8091E80080FFE1CF8091F30014
:100880002091F200382F6115710519F028303105DB
:1008900058F091E02830310509F090E02091E8000F
:1008A0002E772093E800CBCF81918093F1006150A7
:1008B00071092F5F3F4FE7CF8091D905882341F021
:1008C000853041F08091E80083FFBECF81E008953C
:1008D00082E0089583E008958091CE0508959C01FB
:1008E0004FB7F8948091C8059091C905A091CA05A9
:1008F000B091CB054FBF821B930B08952FB7F8948F
:100900008091C8059091C905A091CA05B091CB0509
:100910002FBF08959C01FC0132969FEF80E041912A
:10092000461751F09F3F19F4411101C0982F8F5F76
:100930008630A9F79F3F09F40895290F311D97FDCF
:100940003A95F90162830895A3E0B0E0EAEAF4E0A1
:100950000C941C2B2091C5053091C605281739072A
:10096000A1F09093C6058093C505E091C305F09171
:10097000C405309751F024E029839B838A83068045
:10098000F781E02DCE01019609952396E2E00C94C3
:10099000382BA3E0B0E0EFECF4E00C941C2B20919A
:1009A000C1053091C20528173907A1F09093C205FF
:1009B0008093C105E091C305F091C405309751F0D3
:1009C00023E029839B838A830680F781E02DCE0173
:1009D000019609952396E2E00C94382BE091C3052B
:1009E000F091C405309729F00190F081E02D099530
:1009F000089580E00895DC016091BB058091BC05FD
:100A0000962F891301C00895292F30E0F901EE0FC8
:100A1000FF1FED54FA4F408151814A175B07A1F443
:100A200087E08A9FA0018B9F500D112446505C4F98
:100A300081E0FA0184839613E6CF2F5F3F4F237046
:100A400033272093BB0508952F5F3F4F922F93705C
:100A5000D8CF1092F8031092F703EAEFF3E0858104
:100A6000811102C014821682379685E0EA34F807B5
:100A7000B1F70895B0E0A0E0E0E4F5E00C94142BA9
:100A80008FEF9FEF4430510508F469C04091AC03EB
:100A900041FB882780F990E0880F991F42FB0027CF
:100AA00000F910E0000F111F000F111F802B912B78
:100AB00040FBCC24C0F8D12C8C299D2943FB222754
:100AC00020F9C22FE0E0DE2F53E0CC0FDD1F5A9556
:100AD000E1F78C2B9D2B44FBAA27A0F9B0E0E4E0C2
:100AE000AA0FBB1FEA95E1F78A2B9B2B45FBEE274C
:100AF000E0F9F0E0A5E0EE0FFF1FAA95E1F78E2BDD
:100B00009F2B46FB222720F930E0B6E0220F331F4F
:100B1000BA95E1F7822B932B47FB222720F930E08F
:100B20003695322F222737952795822B932B2091AC
:100B3000AD03322F3170F32EE82EF92A269521705D
:100B4000B22EBB0CA82EBF28C501BB0CAA0BBB0B39
:100B5000FB0180839183A283B38390E080E0CDB7D3
:100B6000DEB7EAE00C94302BEFECF3E08481958162
:100B70002AE030E0B9010E94D72A60930F018681F4
:100B800080930E01828580930D01848580930C01F2
:100B900086859785B9010E94D72A60930B018089C9
:100BA00080930A01828980930901848980930801D6
:100BB00008958091CF039091D00390931101809379
:100BC000100108950E947E049C019091C6018091BD
:100BD000C701982B21F03093C3012093C20190915B
:100BE000C8018091C901982B21F03093C101209355
:100BF000C001E091C305F091C405309749F082E04F
:100C00008093C4010480F581E02D84EC91E0099586
:100C100008958091BF0180FF0CC06091090170E0D0
:100C200075956795759567956115710549F1862FDD
:100C3000089581FF06C06091090170E07595679580
:100C4000F3CF6091090182FD0BC09091BE01992301
:100C5000A1F06091080180910901961738F0682F82
:100C600070E06038710500F38FE70895899FC00137
:100C7000112470E00E94EB2AF4CF61E070E0D7CF3E
:100C800081E008958091BF016091D7037091D803EE
:100C900080FF16C020910D01269FC001279F900D57
:100CA0001124BC0176956795769567956038710536
:100CB00008F043C06115710509F441C0862F0895FD
:100CC00081FF0BC020910D01269FC001279F900D31
:100CD0001124BC0176956795E9CF82FF09C0809108
:100CE0000D019B01829FB001839F700D1124DECF07
:100CF0002091BD012223D1F290910C0180910D0130
:100D0000482F50E0291748F0CB01849FB001859F00
:100D1000700D949F700D1124C9CF289F900111244C
:100D2000269FA001279F500D369F500D1124692F3B
:100D300070E0CA010E94D72AB9CF8FE7089581E0F9
:100D4000089580E00895F894E82FE295EF70F0E0C0
:100D500031A1282F2F7081E090E001C0880F2A95E3
:100D6000EAF7982F9095932391A392A1892B82A3C0
:100D7000789408959091AC0392FF06C0282F2871B3
:100D80002830F9F4877F846093FF06C0282F2871EC
:100D90002831F1F4877E84612091AD0320FF06C0E5
:100DA000382F38713830D9F4877F816021FF06C031
:100DB000282F28712831D1F4877E816194FD877EA8
:100DC0000895282F24712430F9F68B7F8860DCCFBA
:100DD000282F2471243101F78B7E8861DDCF382FD5
:100DE0003171313019F78E7F8860E0CF282F217163
:100DF000213121F78E7E8861E1CF82389105B9F1EA
:100E0000B0F48133910509F47DC048F4893291052D
:100E100009F46DC08A32910509F47BC008958533C9
:100E2000910509F45FC08933910509F10895833E66
:100E30009105D9F138F4803E910529F1823E910562
:100E400079F10895863E9105D9F1873E910509F41F
:100E50003EC0843E910541F52091AD0321FF24C0A1
:100E60008091AC0384FD19C087EE90E00895209135
:100E7000AC03237009F05AC02091AD0323FF14C0C6
:100E800089E290E008952091AC0320FD38C03091B4
:100E9000AD0330FF09C024FF43C090E080E0089517
:100EA0002091AC0322FDF7CF08952091AC0322FDE1
:100EB0003AC03091AD0330FD39C024FFF5CFEDCFFE
:100EC0002091AC0323FFF0CF24FDE7CFCDCF2091BD
:100ED000AC0323FD2EC03091AD0331FFEECF84EE85
:100EE00090E008952091AC0325FFDECFC9CF20917B
:100EF000AC0325FD21C02091AD0323FFD5CF89E3AD
:100F000090E0D2CF2091AC0326FFCECF8AE290E0D2
:100F100008952091AC0326FFC7CF81E390E00895A8
:100F200083EE90E0089582EE90E0089580EE90E0E8
:100F3000089586EE90E0089585E390E008951F936C
:100F4000CF93DF930E94FD06EC01C11580E5D80721
:100F5000F0F5C11580E4D80708F09CC0C03ED1056B
:100F600020F5CD3CD10508F082C0C83AD10578F40F
:100F7000C53AD10508F073C0C130D10519F12097E9
:100F800009F1C430D105F0F4D0E0C0E01BC0C33C8F
:100F9000D105D0F7C85AD0E0CC0FDD1FC05EDE4FC0
:100FA0000990D881C02DD4640DC0C11580E2D80746
:100FB00008F0D1C0C11581E0D80708F05AC0C83E7A
:100FC000D10510F7CE01DF91CF911F910895C03662
:100FD00082E5D80718F5C03482E5D80708F06BC061
:100FE000C03282E5D80708F05FC0C11582E5D80796
:100FF00008F497C02C2F2695269580E2289F900113
:1010000011248C2F8370C1E0D0E002C0CC0FDD1F13
:101010008A95E2F7C22BD32BDD68D4CFC03A82E5A4
:10102000D80760F4C03882E5D80708F459C0CF71FA
:10103000D0E0DC2FCC27C46FD06AC4CFC03C82E59F
:10104000D80708F462C0C03E82E5D80708F09CCFFC
:10105000DC2FCC27CC27DF71C06FD06AB3CFC55A45
:10106000D0E0C35EDE4FC881D0E0D064ABCFD065A6
:10107000A9CF8D2F0E94BA06182FCE0199270E9462
:10108000FD06C12FD0E0DC2FCC27CC27DF71C82B89
:10109000D92B98CFCE0199270E94FD06CC27DF706F
:1010A000C82BD92BD06A8ECFCF71D0E0DC2FCC27C4
:1010B000C16FD06A87CF2C2F26952695277080E2A6
:1010C000289F900111248C2F8370C1E0D0E002C0D2
:1010D000CC0FDD1F8A95E2F7C22BD32BDC6872CFD1
:1010E0002C2F26952695277080E2289F90011124A9
:1010F0008C2F8370C1E0D0E002C0CC0FDD1F8A9539
:10110000E2F7C22BD32BDA685DCF8C2F8F710E9450
:10111000BA06C82FD0E0DC2FCC27CC27DF71D062F5
:1011200051CF8C2F8F710E94BA0655E0D695C79586
:101130005A95E1F7CF70D0E0DC2FCC27282F30E094
:1011400084FF05C044E0220F331F4A95E1F7C22B0C
:10115000D32BD06937CF8D2F8F710E94BA06182FED
:10116000CE0199270E94FD06C12FD0E0DC2FCC27AD
:10117000CC27DF71C82BD92BD2CF80919B0188233C
:1011800031F010929B0110929A01109299010895EA
:10119000CF93C82F8091AD0382FF0CC080919B013B
:1011A0008C1741F00E947E0490939A0180939901DC
:1011B000C0939B01CF91089590919B01292F2823E3
:1011C00061F08095892380939B01882339F00E94E8
:1011D0007E0490939A0180939901089590E080E0B5
:1011E000F8CF80959091AE0398239093AE03089525
:1011F0001092900110928F0110928E0108958091AB
:10120000D1039091D203892B89F00E947E04209112
:10121000990130919A01AC01421B530B81E020915E
:10122000D1033091D2034217530708F480E0817054
:10123000089590918D01292F282321F080958923ED
:1012400080938D01089580912C069091E305981369
:1012500001C008958F5F8770FACF292F933078F5FA
:10126000863068F590E036E0239F800D911D1124B3
:10127000682F677023E0969587952A95E1F7FC0122
:10128000EE0FFF1FE80FF91FE558FE4F50E040E05A
:1012900080E0219130E0062E02C0369527950A9411
:1012A000E2F721703327042E01C0220F0A94EAF7D7
:1012B000822B4F5F5F4F4330510559F7089580E00F
:1012C0000895292F933098F5863088F590E036E020
:1012D000239F800D911D1124282F277041E001C00C
:1012E000440F2A95EAF723E0969587952A95E1F72A
:1012F000FC01EE0FFF1FE80FF91FE558FE4F30E02D
:1013000020E070E05191DF011197CB01022E02C065
:10131000969587950A94E2F78170819585278423B5
:1013200085278C932F5F3F4F2330310559F7089560
:101330008093A50108959091A50121E030E0F90185
:1013400001C0EE0F8A95EAF7D90102C0AA0FBB1FB0
:101350006A95E2F7EA2B01C0220F4A95EAF7892F36
:101360008E23E81305C0292B822F0E949809089527
:1013700020952923F9CF21E030E001C0220F8A9582
:10138000EAF720958091A50182230E94980908958B
:10139000909190018095892380939001282F277048
:1013A00069F4891759F09091AD0392FF07C08695B3
:1013B000869586950E94BB090E94F808089521E051
:1013C00030E001C0220F8A95EAF78091A501822BB7
:1013D0000E94980908959091AD0392FF10C098E083
:1013E000899F90011124622B609390010E94DF0974
:1013F0000E947E0490938F0180938E0108950E9435
:10140000DF0908958093A401089592959F70963006
:1014100091F058F4925F9F70923058F4803F19F029
:1014200030F4883E30F481E008959A5FF4CF843F31
:10143000D1F380E00895883EB0F3813FD1F7F3CF38
:10144000662309F45DC08D3C41F40E9442068195FB
:101450008093C7010E94E20508958E3C19F40E9412
:101460004206F6CF8F3C31F40E944206819580936C
:10147000C601F0CF803D19F40E944206F8CF893DA5
:1014800029F40E9409068093C801E4CF8A3D21F423
:101490000E9409068195F7CF8B3D31F40E94090621
:1014A00081958093C901D6CF8C3D19F40E9409061D
:1014B000F8CF9FE2980F983070F4815D990B21E08E
:1014C00030E001C0220F8A95EAF78091C501822B96
:1014D0008093C501BFCF8D3D31F48091BF01816004
:1014E0008093BF01B7CF8E3D21F48091BF01826010
:1014F000F7CF8F3D09F0AECF8091BF018460F0CF70
:101500004091C6018D3C59F48091C70187FF0DC001
:101510001092C70141110BC01092BD0108C08E3C52
:1015200081F48091C70118169CF3442381F08091C7
:10153000C8019091C901892B09F08CCF1092BE018E
:1015400089CF8F3C49F447FFF0CF1092C6018091BC
:10155000C7018111ECCFE0CF803D19F41416ACF334
:10156000E4CF9091C801893D29F41916F4F6109240
:10157000C801DBCF8A3D19F497FFD7CFF8CF909100
:10158000C9018B3D29F497FFD0CF1092C901CDCF6F
:101590008C3D19F41916CCF3C8CF9FE2980F983000
:1015A00090F4815D990B21E030E0B90102C0660F33
:1015B000771F8A95E2F7CB0180959091C501892329
:1015C0008093C501B2CF8D3D31F48091BF018E7FF4
:1015D0008093BF01AACF8E3D21F48091BF018D7F02
:1015E000F7CF8F3D09F0A1CF8091BF018B7FF0CF66
:1015F0009C013A9521153F4150F5FC01EE27F17011
:10160000BC0166277270AC01442754709C012227EC
:10161000387094FF0EC080E1EF2B09F480E0672B57
:1016200009F08062452B09F08064232B89F08068E3
:10163000089581E0EF2B09F480E0672B09F08260C8
:10164000452B09F08460232B19F08860089580E011
:1016500008950F931F93CF93DF938B01EA0190912D
:10166000D905943061F58093E9008FEF9091E800FF
:10167000815095FD06C095ED9A95F1F70000811116
:10168000F5CF8091E80085FF1AC00E9431038111D7
:1016900011C08091E80085FD06C08091E8008E773A
:1016A0008093E800F2CFF80181918F018093F100DF
:1016B000219779F78091E8008E778093E800DF9199
:1016C000CF911F910F91089543E050E0BC0184E059
:1016D0000E94290B089546E050E0BC0184E00E947E
:1016E000290B0895CF93DF93EC0148E050E0BC0153
:1016F00081E00E94290B88E0FE01AFECB5E001908B
:101700000D928A95E1F7DF91CF91089581E0809362
:10171000E00080E28093D8001092C9008FE19EE43F
:101720000197F1F700C0000087E090EBDC018093A7
:10173000310690933206A0933306B093340688E1C5
:101740009CE00FB6F894A895809360000FBE90932C
:101750006000FFCF019708F40895EFE9FFE03197AB
:10176000F1F700C00000F6CFCF93DF93CDE4D3E0D4
:1017700060E0CE010E94972B2196C11584E0D80726
:10178000B9F7DF91CF9108951F93CF93DF93122F75
:101790008830E0F46330D0F44630C0F4C42FD0E099
:1017A000CC0FDD1F9CE0699FC00DD11D112494E278
:1017B000899FC00DD11D1124632FCE0189960E94EF
:1017C000972B612FCE018A960E94972BDF91CF91A4
:1017D0001F910895CF93C82F6FEF811166E985E2BD
:1017E00090E00E94972B6FEFC11166E386E290E0D4
:1017F0000E94972B6FEFC11160E687E290E00E9494
:10180000972BCF9108950F931F93CF93DF93883039
:1018100030F5633020F5463010F5C42FD0E0CC0F02
:10182000DD1F2CE0629FC00DD11D112434E2839F87
:10183000C00DD11D1124CE0189960E94792B082F4D
:1018400010E0102F0027CE018A960E94792B980174
:10185000282BC901DF91CF911F910F91089590E03E
:1018600080E0F8CF462F2091BB013091BC01232BA3
:1018700099F4703F39F4603F79F48091CA019091F6
:10188000CB010895733040F4663030F4883020F492
:10189000672F0E94030C089590E080E00895CF9296
:1018A000DF92FF920F931F93CF93DF936C01009110
:1018B000A5018091A401082BC7E0D0E010E0FC2E28
:1018C000C8010C2E02C0959587950A94E2F780FD19
:1018D0000CC02197A0F7F12C8F2DDF91CF911F9194
:1018E0000F91FF90DF90CF900895B6018C2F0E944A
:1018F000320C0E949F07019761F3EECFCF93DF93E5
:10190000EC010E944F0CBE010E94320C0E949F0706
:10191000DF91CF910895FC018481882371F0878144
:101920009085009729F00E949F070E94050A08955C
:10193000808191810E947E0CF8CF80E00895A6E01E
:10194000B0E0E5EAFCE00C941B2B49835A83498103
:101950005A819923A1F0222391F0CA010E944F0CD1
:10196000182F682F89819A810E94610969817A8183
:10197000812F0E94320C2696E3E00C94372BCA018B
:101980000E942D09182FF2CFFC01262F8781908508
:10199000009741F4408151816281738184819581F6
:1019A0000E949F0C08950F931F93CF93DF930FEC2A
:1019B00013E0C9E4D1E0CE010E94792BF8016191D6
:1019C0008F01681719F0CE010E94972B2196CD3612
:1019D000F1E0DF0781F7DF91CF911F910F9108951B
:1019E0000F931F93CF93DF930FEC13E0C9E4D1E083
:1019F000CE010E94792BF80181938F012196CD367B
:101A0000F1E0DF07A9F7C3E8D2E0FE0185919491E8
:101A1000009711F0FC0109952C96F3E0CF37DF0712
:101A2000A1F7DF91CF911F910F91089585E290E08A
:101A30000E94792B863989F486E290E00E94792B06
:101A4000863359F487E290E00E94792B91E080364A
:101A500009F090E0892F8170089580E0FCCF90918B
:101A6000AD0392FB222720F9281779F080FB92F929
:101A70009093AD036091AC037091AD0384E090E06E
:101A80000E94B52B82E00E94C8090895DA019C01EA
:101A90002E5F3F4FF90145915491F9012591349101
:101AA000A217B30758F0FC013496859194910E94D7
:101AB000592B0E94D30C90E080E008958FEF9FEFA8
:101AC0000895DB01FC0132962591349142175307AA
:101AD00058F0FC01349665917491A901CD010E94E2
:101AE000592B90E080E008958FEF9FEF0895AAE0D2
:101AF000B0E0EDE7FDE00C94162BECECF1E080EEAD
:101B000091E0DF019C011D9221503040E1F7EAEFA6
:101B1000F3E080E591E0DF019C011D92215030400F
:101B2000E1F78CECC82E81E0D82E7F010DE611E0A4
:101B3000D701CD92DC924AE050E0B801CE01019687
:101B40000E94692B88E0FE013196D60101900D922A
:101B50008A95E1F789859A85F70193838283FAE074
:101B6000CF0ED11C27E0E20EF11C065F1F4F0D3493
:101B700033E01307E9F62A96E8E00C94322BA3E051
:101B8000B0E0E5ECFDE00C94152B19821A821B8263
:101B900086E5C82E81E0D82E10E000E0EE24E39424
:101BA000F12CF60181916F018F3F09F446C0F89442
:101BB000E82FE295EF70F0E021A18F70A70102C03D
:101BC000440F551F8A95E2F7CA01922F982B91A3D3
:101BD00092A18095892382A3789400C0E9E5F1E081
:101BE000B12C31E021912F3F09F46CC0A22FA295B6
:101BF000AF70B0E090968C9190E02F7002C09595F8
:101C000087952A95E2F780FD5DC0832FB82A330FB0
:101C100051E0EF35F50731F7F601319780818F3FBD
:101C200011F00E94A30680EA8A95F1F7E1E0F0E066
:101C3000EC0FFD1FE00FF11FB0820F5F1F4F03304D
:101C4000110509F0AECF43E050E0BE016F5F7F4F5A
:101C500081EA91E00E944C2B892BB1F189819A8114
:101C6000AB818093A1019093A201A093A30181E095
:101C70008093A0010E947E0490939F0180939E0117
:101C800080919E0190919F010E946F04059700F141
:101C900043E050E061EA71E088EB91E00E944C2B58
:101CA000892BD9F08091A1019091A201A091A3016B
:101CB0008093B8019093B901A093BA0181E010928A
:101CC000A00107C080E0A2CF8091A0018111D8CFF0
:101CD00080E02396E9E00C94312B80E0F0CF8091F6
:101CE000AE0390912D06892B8093700180919B010A
:101CF000882309F18091D1039091D203892B29F097
:101D00000E94FF0881110E94BD088091700190918E
:101D10009B01892B8093700120E082E791E0FC0118
:101D20003191CF0131112F5FF1E088379F07B9F76B
:101D300021110E94BD0848E050E061E971E080E7B0
:101D400091E00E944C2B892BA9F088E0E0E7F1E0BC
:101D5000A1E9B1E001900D928A95E1F7E091C30508
:101D6000F091C405309731F00280F381E02D80E7D7
:101D700091E00995089580911201877F8093120167
:101D800090912D069D7F90932D0684FF08C08F7E35
:101D9000809312018091AE0382608093AE038091A4
:101DA000120185FF08C08F7D809312018091AE03E0
:101DB00080628093AE030E946F0E0895CF931092BD
:101DC000AE03C6E0E2E7F1E0DF018C2F1D928A95B9
:101DD000E9F790E080E00E94C90490E080E00E9472
:101DE000A40410922D060E946F0EE4ECF1E0DF01D6
:101DF0001D92CA95E9F71092BD011092BE01109292
:101E0000BF010E94E205CF910895AAE2B0E0EBE0A5
:101E1000FFE00C941B2B8BED95E02091F100DC0191
:101E20002D93CD01B5E0833E9B07B9F78091DC058A
:101E3000833009F472C0B8F4813009F449C08230AB
:101E400009F4B3C08091E80083FF96C28091DB055E
:101E50009091DC059A3008F08FC2E92FF0E0EB5248
:101E6000F44D0C94FF2A8A3009F48EC08B3009F4AB
:101E700071C0893039F78091DB05813219F7809183
:101E8000DF059091E005009711F00297D9F6809157
:101E9000E800877F8093E8008091E80082FF38C0E7
:101EA0009091F3008091F200029731F48091F1005B
:101EB000813011F0863021F48091F1008093CE05BD
:101EC0008091E8008B778093E8000E946203BACF8C
:101ED0008091DB05813A09F0B5CF8091E800877FDA
:101EE0008093E8008091DF059091E005892B61F4F3
:101EF00068E08FEC95E070E00E940E048091E800AD
:101F00008B778093E8009ECF60E090E080E0F3CF95
:101F10008091D9058111C0CF95CF8091DB05813AA1
:101F200009F090CF8091DF059091E005892B09F0B1
:101F300089CF8091E800877F8093E8008091E80056
:101F400080FFFCCF809114018093F1008091E80024
:101F50008E77B9CF8091DB05813209F073CF809104
:101F6000DF059091E005892B09F06CCF8091E800A6
:101F7000877F8093E8000E9462038091DD05809353
:101F800014010E94DE0E5ECF8091DB05813209F0E4
:101F900059CF8091E800877F8093E8000E94620318
:101FA0008091DE058093CD054DCF8091DB05813A90
:101FB00009F048CF8091E800877F8093E800809106
:101FC000E80080FFFCCF8091CD05BECF803899F02E
:101FD000823809F0D1C18091DF058F70873008F019
:101FE000CBC18093E9008091EB0085FB882780F9C5
:101FF0001092E90006C08091D7059091D805911103
:1020000082609091E800977F9093E8008093F100C0
:102010001092F1008091E8008E77AAC1882309F41C
:1020200098C1823009F0A8C18091DD0581119BC162
:102030008091DF058F702FEF280F263008F09CC1AC
:102040008093E9002091EB0020FF8DC1933031F4A3
:102050008091EB0080628093EB0085C19091EB0052
:1020600090619093EB0021E030E001C0220F8A954F
:10207000EAF72093EA001092EA008091EB00886072
:10208000EACF811179C11091DD051F778091E300BE
:102090008078812B8093E3008091E800877F809394
:1020A000E8000E9462038091E80080FFFCCF8091ED
:1020B000E30080688093E30082E0111183E0809365
:1020C000D9055AC18058823008F056C12091DD05EB
:1020D0003091DE052C3DE3E03E07A1F583E08A83E5
:1020E0008AE289834FB7F894DE01139620E03EE040
:1020F00051E2E32FF0E050935700E49120FF03C03A
:10210000E295EF703F5FEF708E2F90E0EA30C0F005
:10211000C7968D939D932F5F243159F74FBF8091C0
:10212000E800877F8093E8006AE270E0CE010196C4
:102130000E940E048091E8008B778093E8001CC118
:10214000C096E7CF8091DF059091E005432F55279A
:102150004330510509F44AC078F54130510509F47E
:1021600085C08BE590E0E5E0F4E04230510509F0F0
:1021700003C12091E800277F2093E8002091E1052A
:102180003091E2058217930708F49C0140E0211585
:10219000310509F070C041116EC08091E80082FDE8
:1021A000C9CF8091D905882329F2853019F2809111
:1021B000E80083FFF2CFBECF4132510509F447C09A
:1021C0004232510509F0D8C08330910508F0D4C0DF
:1021D000FC01EE0FFF1FEE59FE4F0190F081E02D44
:1021E000815A9E4FDC018C9190E01DC03327213035
:1021F0003105E9F02115310579F022303105F9F08A
:102200002330310509F0B8C0E2E7F4E0E4918E2F05
:1022100090E0E2E7F4E007C0EEEBF4E0E4918E2F0B
:1022200090E0EEEBF4E0009709F4A6C0A2CFE0EA5C
:10223000F4E0E4918E2F90E0E0EAF4E0F4CFE0E9FE
:10224000F4E0E4918E2F90E0E0E9F4E0ECCF83300D
:10225000910508F091C0880F991FFC01E859FE4FC5
:102260000190F081E02D89E090E083CF82E190E061
:10227000E0E6F4E07ECF8091D905882309F45ACFB7
:10228000853009F457CF8091E80083FD53CF8091CA
:10229000E80082FD82CF8091E80080FF78CF9091A6
:1022A000F3008091F2002115310519F08830910575
:1022B00050F041E0089709F040E08091E8008E7707
:1022C0008093E80064CF44914093F100319621500F
:1022D00031090196E8CF803809F04EC08091E800BE
:1022E000877F8093E8008091DA058093F10092CE99
:1022F000811142C01091DD051230F0F58091E800A7
:10230000877F8093E8001093DA050E94620311230F
:1023100011F084E005C08091E30087FDFACF81E0F1
:102320008093D90542E061EC81E00E94810342E2A2
:1023300061EC84E00E94810342E261EC82E00E9451
:10234000810342E260EC83E00E9481038091D90521
:1023500013C08091DD05813079F481E0933009F07C
:1023600080E08093D8051092E9008091E800877F93
:102370008093E8000E9462038091E80083FF0AC016
:102380008091E800877F8093E8008091EB00806275
:102390008093EB00AA96E3E00C94372BEFECF3E08C
:1023A000128E138E8FEA90E09183808325E0248F34
:1023B00088E893E1938382838AE090E09583848325
:1023C00044E150E05783468348E050E0518740871E
:1023D000938782876EE170E0758764879787868729
:1023E00080E590E0918B808B538B428B48E250E0EC
:1023F000558B448B42E350E0578B468B48EC50E0C2
:10240000518F408F158E178E168E91A380A322A315
:102410000E94D30C0E94DE0E1092AD031092AC030A
:10242000EDEAF3E08081846080836091AC03709179
:10243000AD0384E090E00E94B52B0E94F00C08955B
:10244000AAE0B0E0E6E2F2E10C94112B8090BF0527
:102450009090C00581E090E09093C0058093BF0507
:1024600095E7A92E93E0B92E10E000E06501712CEC
:102470001FC021E030E0043011053CF4F701EE0FFD
:10248000FF1FEC0DFD1D259134914E2D672D802FE2
:102490000E94C40B8FEFE81AF80A96E0E916F104DF
:1024A00041F7ECE0CE0ED11C7394F3E07F1619F0E7
:1024B000F12CE12CDECF0F5F1F4F84E2A80EB11C80
:1024C0000830110599F60E94CE11FE0131967F0168
:1024D0008AE011928A95E9F70DE611E04AE050E0B2
:1024E000B801C7010E94BB2B065F1F4F0D34F3E0FC
:1024F0001F07A1F79092C0058092BF052A96EDE0D4
:102500000C942D2B80E00E94EA0B60E088E290E0C2
:102510000E94972B0E9420120E94B40B81E00E941F
:10252000EA0B0895CF92DF92EF92FF928FEF9FEF29
:102530004430510508F46CC0FB01C080D180E280BA
:10254000F3800E94DE0E8091AC03C0FA80F9B701DF
:10255000A601769567955795479540FB81F9B70198
:10256000A60122E076956795579547952A95D1F76C
:1025700040FB82F9B701A60133E076956795579540
:1025800047953A95D1F740FB83F9B701A601E4E0FE
:102590007695679557954795EA95D1F740FB84F96D
:1025A000B701A601F5E07695679557954795FA9599
:1025B000D1F740FB85F9B701A601A6E076956795AE
:1025C00057954795AA95D1F740FB86F9B701A60123
:1025D000B7E07695679557954795BA95D1F740FB43
:1025E00087F98093AC038091AD03D0FA80F9D1FADA
:1025F000CC24C0F8C0FA81F98093AD036091AC039C
:102600007091AD0384E090E00E94B52B90E080E0F3
:10261000FF90EF90DF90CF9008950E94DE0E2FEF95
:1026200084E39CE0215080409040E1F700C000002E
:1026300088E19CE00FB6F894A895809360000FBEE7
:1026400090936000FFCF882341F0809590912D06F4
:10265000892380932D060E946F0E0895882339F0F8
:1026600090912D06982B90932D060E946F0E089541
:10267000882321F00E94F1080E946F0E089588239C
:1026800039F09091AE03982B9093AE030E946F0E99
:1026900008958823D1F19CEF980F913A78F4E2E7FE
:1026A000F1E09191891303C0DF0111971C9291E031
:1026B000E837F907B1F70E946F0E089590E2980F7E
:1026C000983050F4877091E001C0990F8A95EAF72D
:1026D000892F0E94F108EFCF9BE5980F933028F4E3
:1026E00090E080E00E94C904089598E5980F9B311E
:1026F00028F490E080E00E94A404089593E3980FEA
:10270000933118F460E00E94200A0895CF93DF937C
:10271000EC010E944913CE010E94F80A9E01205E3E
:1027200031092830310510F0CD2B29F40E943813DF
:10273000DF91CF9108950E942313FACFCF93C82F32
:102740008823B1F08CEF8C0F813A00F5E2E7F1E0DD
:1027500088E791E0DF012D91C21761F08A179B078E
:10276000D1F76C2F80E791E00E948A040E946F0EDF
:10277000CF9108952191C21303C0DF0111971C92DC
:102780008E179F07B9F70E946F0EEBCF80E28C0F78
:10279000883068F4C77021E030E001C0220FCA958C
:1027A000EAF78091AE03822B8093AE03DFCFEBE597
:1027B000EC0FE33040F4F0E0E35EFE4F808190E008
:1027C0000E94C904D5CFE8E5EC0FEB3150F4F0E0FE
:1027D000EE0FFF1FE05EFE4F808191810E94A404F6
:1027E000C7CF83E38C0F833118F661E08C2F0E94F2
:1027F000200ABECF1F93CF93DF93182FC091EF0312
:10280000D091F003893321F0C091ED03D091EE0314
:10281000812F0E949E13209739F4812F0E94491323
:10282000DF91CF911F9108958FE99FE00197F1F714
:1028300000C000002197EFCF0F931F93CF93DF933A
:10284000C62FD42F022FFC0185818823A9F0609325
:1028500030060E947E0490932F0680932E06C77048
:1028600081E001C0880FCA95EAF70E943F13DF910B
:10287000CF911F910F91089580913006681332C057
:1028800080912E0690912F060E946F04883C91053E
:1028900048F510E21D0FCD17B9F080E28C0F88309B
:1028A00040F4C77081E001C0880FCA95EAF70E9422
:1028B0003813183048F481E09D2F977001C0880FBD
:1028C0009A95EAF70E943F13802F0E94FA1318305E
:1028D00070F6D77081E001C0880FDA95EAF70E94A0
:1028E0003813C5CFC77081E001C0880FCA95EAF7D9
:1028F000F6CFB0E0A0E0EFE7F4E10C94142BEC018C
:102900008AE0A82E2881222309F48FC02130C9F53E
:1029100099818A81913021F422960E94FA1305C090
:10292000923029F422960E949E132196EBCF933089
:1029300021F422960E944913F8CF943011F0219689
:10294000F4CF229630E020E0AE014F5F5F4F80531E
:10295000990B8A30910550F02150310930F38FE9FD
:102960009FE00197F1F700C00000F6CFA29EB001F2
:10297000A39E700D11249C01260F371F8981EA0147
:10298000E3CFE22FF0E0EE50FB4FB490822F86951C
:102990008695869590E0FC01EE51FB4FE490277000
:1029A000F12C022E02C0F594E7940A94E2F731E08C
:1029B000E322FF24FC01EE52FB4FC490D12C022EE7
:1029C00002C0D594C7940A94E2F731E0C322DD2413
:1029D000FC01EE53FB4F049110E002C015950795E2
:1029E0002A95E2F701701127E114F10419F081EE44
:1029F0000E949E13C114D10419F086EE0E949E130A
:102A00008B2D0E94FA13C114D10419F086EE0E9496
:102A10004913E114F10419F081EE0E9449130115E4
:102A2000110509F482CF8CE278CFCDB7DEB7EAE0AA
:102A30000C94302BCF93DF93EC010E94F80A9E0197
:102A4000205E31092830310510F0209741F40E94B2
:102A50003F138C2F0E949E13DF91CF9108950E9407
:102A60002E13F7CF662329F020912D0622602093A4
:102A70002D069C0130522115304308F499270E94FD
:102A80001A150895B0E0A0E0E8E4F5E10C94162BE7
:102A90006C018B01E42E8091120182FF87C0C091EE
:102AA000F503D091F603CC15DD0521F0C114D10456
:102AB00009F07CC0809112018B7F8093120181FD0F
:102AC0006EC08091F3039091F403A801481B590B49
:102AD00081E020911001309111014217530708F451
:102AE00080E08170F82E80911201F0FA81F98093D4
:102AF0001201FE0183E0F695E7958A95E1F7EE7104
:102B0000FF27E155FC4F20813181AE014F705527E1
:102B100081E090E002C0880F991F4A95E2F7FF20FC
:102B200009F43FC0822B932B918380838091AE0365
:102B300081FF08C08091120180618093120182E0C0
:102B40000E94F1088091AE0385FF08C080911201B8
:102B500080628093120180E20E94F1086F2DCE0105
:102B60000E943215EE2031F08091EA0385FF02C009
:102B700086FF30C08091ED039091EE030E94AA0B76
:102B80008091F5039091F6039C013052211530435A
:102B900008F499270E9486130E94BB0E17C081E09B
:102BA000A0CF8095909582239323BECFC6019052EB
:102BB00081159043A0F4C60199270E948613809145
:102BC000F5039091F6038C159D0531F31093F403F2
:102BD0000093F303CDB7DEB7E8E00C94322BC601C7
:102BE000ECCFA4E0B0E0E7EFF5E10C94122B7C0110
:102BF000FC018481882309F418C261E0C7010E94A6
:102C0000C40C8C01F7018581882309F4B9C0C8017F
:102C100097578038910508F0B3C0D02EFFE0F01729
:102C200008F4F4C18FEF93E00E94792B8111EEC17B
:102C30000DE413E0D11036C019821A821B821C8267
:102C400099249A9468013FEFC31AD30AC8010E94DD
:102C5000792B89831A82882309F4D8C1813009F03D
:102C600089C0580142E0A40EB11CC6010E94792B14
:102C7000C82E8A83882309F4C9C1C5010E94792B13
:102C8000D82E8FEF8C0D8330D8F4580153E0A50E69
:102C9000B11CDB82DD2021F0CE0101960E94791467
:102CA0008501D0CF011524E0120709F4AFC1C80196
:102CB0000E94792B811101C0DA940F5F1F4FBACFA8
:102CC0008BEF8C0D833070F5C8010396DB825C01BD
:102CD000DD2031F3580164E0A60EB11C0E94792B6F
:102CE0008C838823E9F20B811C8101307FEF170769
:102CF00010F0102F002786E0C81681F097E0C91663
:102D000049F0C8010E943E228091ED039091EE03AC
:102D10000E94AA0BC8010E941922C2CFC8010E94BA
:102D20003E22BECFE4E0CE12BBCF5801F4E0AF0E9E
:102D3000B11CC80103960E94792BDD2009F466C1FD
:102D4000882309F463C18150990B989E9001999E44
:102D5000300D11244D2D4150550BCA01820F931F88
:102D6000019708F49DCFEFE9FFE03197F1F700C03C
:102D70000000F6CFCE0101960E947914560190CF43
:102D80008091EA0380FF98C00E947E046C01F701E5
:102D90008581882309F456C08091120182FF08C002
:102DA0002AEA31E040E0B60190E080E00E9442155E
:102DB0000431FCE71F0709F441C005312CE7120775
:102DC00091F103313CE7130729F4809112018160EE
:102DD00080931201C80190528115904308F040C0C1
:102DE0001092F6031092F503F7012581222309F4CE
:102DF00019C210923006C8019057839708F012C28A
:102E000084E090E00E94812B9093AD038093AC030B
:102E1000F801E150F047E232F10508F046C1E15215
:102E2000F44D0C94FF2A90911201892F8E7F90FF10
:102E30008160809312010E94BB0ECCCF8091120161
:102E40008E7FF7CF809112018F7E013E110531F008
:102E5000053E1105E1F4809112018F7D80931201EE
:102E60008091120180FF28C0F70185810832110589
:102E700070F50E31110508F07DC004301105C8F55C
:102E80008823D1F01092F6031092F50315C0C80103
:102E900090528115904320F78091120182FF0CC05F
:102EA0008091EC0381FD08C02AEA31E040E0B601E0
:102EB00090E080E00E944215F801E851FC47E730BD
:102EC000F10508F091CFEF5FF34D0C94FF2A093321
:102ED000110558F40D32110518F40B32110581F665
:102EE0009091EA0392FDCCCF08C004361105C1F3DE
:102EF000C7CF9091EA0394FDC3CF882309F4B0C0F3
:102F00009091AE0380919B01282F292B322F3D7F7A
:102F1000B1F11092F6031092F5033091EA0331FDFE
:102F20002EC0F80143E0F695E7954A95E1F7EE717A
:102F3000FF27E155FC4F98012F70332781E090E087
:102F400002C0880F991F2A95E2F7809590952081FD
:102F50003181822393239183808360E0C8010E94A2
:102F6000321580919B018D7F0E94C80882E00E94EB
:102F7000C8094CC09091EA0393FD82CFBECF39E0DF
:102F8000F701AAEAB1E001900D923A95E1F71092AB
:102F9000AF011092AD011092AC01A090F503B0907A
:102FA000F6030A151B0509F044C03091EA0335FF0A
:102FB00040C04091120141FB992490F841FF02C0AA
:102FC00036FF37C04091F3035091F403B601641B00
:102FD000750B683C710568F591FF08C0809112017E
:102FE00080618093120182E00E94F1088091AE031B
:102FF00085FF08C08091120180628093120180E2F7
:103000000E94F108692DC5010E943215809190013E
:10301000877059F0F7018581882339F08091AD03DD
:1030200082FF03C082E00E94C8092496ECE00C9461
:103030002E2B9091120121FB91F9909312018D7F1B
:103040000E94C8081093F6030093F503D092F4038E
:10305000C092F3038091120184608093120186CFA5
:10306000970140E0B601C8010E944215CFCF26E289
:1030700041EE61EEC7010E941C14C8CF27E245EE65
:1030800065EEF8CF26E241EE60EEF4CF27E245EEA2
:1030900064EEF0CF26E241EE62EEECCF27E245EEA1
:1030A00066EEE8CF28E241E0EBCF8091AC0381608F
:1030B0008093AC0395C08091AD0388608093AD038D
:1030C0008FC08091AC038260F3CF8091AC038460A9
:1030D000EFCF8091AC038860EBCF8091AD0381602E
:1030E000EDCF8091AD038260E9CF8091AC03806128
:1030F000DFCF8091AC038062DBCF8091AC03806432
:10310000D7CF0E94DE0E8091AC038068D1CF809132
:10311000AC038C60CDCF8091AD038360CFCF809125
:10312000AC038E7FC5CF8091AD03877FC7CF8091E1
:10313000AC038D7FBDCF8091AC038B7FB9CF8091E5
:10314000AC03877FB5CF8091AD038E7FB7CF8091E1
:10315000AD038D7FB3CF8091AC038F7EA9CF8091DB
:10316000AC038F7DA5CF8091AC038F7BA1CF0E9454
:10317000DE0E8091AC038F779BCF8091AC03837F71
:1031800097CF8091AD038C7F99CF8091AC0382FB68
:10319000992790F921E0922790FB82F990FB83F91F
:1031A00087CF8091AD03982F909591708E7F892B5A
:1031B00090FB81F983CF9091AC03892F8F7B96FF91
:1031C000806476CF0E94DE0E9091AC03892F97FB2E
:1031D00087F980586DCF61E08EE090E00E94972BD8
:1031E0006091AC037091AD0384E090E00E94B52B38
:1031F0000E94DE0E0BCF60E0EFCF9091AC03892FE1
:103200008F7E94FF806154CF9091AC03892F8E7F85
:1032100090FF81604DCF9091AD03892F877F93FF01
:1032200088604CCF0631FCE71F0709F044C080914D
:10323000AE03982F9A7A3091E90330FF04C0482FEB
:10324000447409F090E031FF04C0482F417109F047
:1032500090E032FF04C0482F487809F090E033FF37
:1032600003C0827209F090E0222381F081E0911185
:1032700001C080E08093780169E2911165E380E705
:1032800091E00E948A040E946F0EC0CE8091780166
:1032900081110FC089E2E2E7F1E028E731E0919186
:1032A000891303C0DF0111971C922E173F07B9F74E
:1032B000EACF85E3F0CF07373CE7130709F458C09E
:1032C00008374CE7140709F45EC0222381F003306D
:1032D0005CE7150709F477C008F05AC001157CE7D0
:1032E000170709F463C001301C4709F472C0F701E5
:1032F00087819085009709F47AC00E949F07182F54
:10330000092FF701C580B680B2943FE0B3228091C7
:1033100090018770F1F0AC2CCC20E1F0892F807FF8
:10332000803451F080E2810F883098F0B11004C0F1
:10333000892F807E803269F08091AD0382FF09C0C1
:1033400082E00E94C809809190018770AA24A3940A
:103350008111A12C902E92942FE09222FBE0F9157E
:1033600008F4D3C0E92DF0E0E85FF34D0C94FF2A98
:1033700081E0222351F00E94DF0943E062E081E016
:103380000E949B0943CE82E0F4CF0E94BB09F5CF97
:103390000B359CE7190749F10C35ECE71E07D9F00E
:1033A0000A351C4709F0A3CF81E01CC00E94DE0E45
:1033B0002FEF34E34CE0215030404040E1F700C0B3
:1033C00000000E94860B6FEF7FEF90E080E00E948C
:1033D000B52B0E940D138091AD0382FB882780F9E5
:1033E00091E089270E942F0D82CF80E0FBCF85815D
:1033F00000811181882369F0C8010E944F0CD82EEA
:10340000682FC8010E946109B8018D2D0E94320CFD
:1034100074CFC8010E942D09D82EF6CF202F2F700F
:10342000D22E802F807F19F0D29490EFD922CC2019
:10343000B9F0DD2069F080E2810F883010F01111C1
:1034400009C08091AE03D82AD092AE030E946F0EBD
:10345000812F59C080912D06D82AD0922D06F6CF03
:10346000812F0E944913DD2009F44FC080E2810FB3
:10347000883010F0111104C08D2D0E94F10806C093
:10348000D09480912D06D822D0922D060E946F0EE6
:103490003CC0302F3F70D32E802F807F803219F0B8
:1034A000D29480EFD8221123F1F0113009F4AFC08B
:1034B000CC2009F4BBC0BB2009F45FC020E0F701B9
:1034C0004081518162817381848195810E949F0C2A
:1034D0008091EC0381FDBCCFF701868180FFB8CFDE
:1034E0008F7086834AC08091AD0382FD42C0CC209C
:1034F000D1F1DD2039F08091AE03D82AD092AE030D
:103500000E946F0E80E00E949E13692D6850770B19
:103510006430710510F40E94EE04812F902F0E94F8
:10352000050A8111C3C110927A0110927901AA2073
:10353000A9F08091900180FD11C0F7011582869558
:10354000869586950E94DF09C7010E94F11580913A
:1035500090018695869586950E94BB0960E0C7011B
:103560000E94C40C62CD80E00E944913DD2069F204
:1035700083CFCC2091F1B11004C08D2D0E943F1358
:10358000C4CF41E0B41211C080909B018D2D8821E1
:10359000D81609F4BACF0E947E0490939A018093C2
:1035A0009901D828D0929B01B0CF8091EB03823053
:1035B00008F4ABCFB812A9CF8D2D0E943F138D2DEB
:1035C0000E94DC0880918D019D2D9823D91609F465
:1035D0009CCFD82AD0928D0198CFB1100AC08D2DE2
:1035E0000E9438138D2D0E94DC088D2D0E94190930
:1035F0008CCF8091EB03823008F487CF51E0B51275
:1036000084CF8091AE038D2109F47FCFE8CF8091E4
:10361000F103CC2021F08B1508F477CFAECFB8168C
:1036200008F073CF8D2D0E9438136FCFBB20D1F3DC
:103630008091EF039091F003193321F08091ED0315
:103640009091EE030E94AA0B812F0E9449135DCF37
:10365000802F86958695837069F0813009F055CF6B
:10366000812F902F9370C11002C080E090E00E94E3
:10367000A4044BCF812F902F9370C11002C080E023
:1036800090E00E94C90441CF6C2D812F0E94200A36
:103690003CCF802F837091F5C11037CF412F4295D9
:1036A00046954770440F440F812F8F70042E01C040
:1036B000880F0A94EAF7212F207114FF07C02FE02A
:1036C00030E001C0220F4A95EAF72095302F369559
:1036D00036953370323069F050F44091A4013130A6
:1036E00029F0822B84230E94020A0FCF842B822B85
:1036F000FACF282B8091A4018227F5CF8695CC2084
:1037000011F0802F8170882309F4FFCE412F42955C
:1037100046954770440F440F812F8F70042E01C0CF
:10372000880F0A94EAF7212F207114FF07C02FE0B9
:1037300030E001C0220F4A95EAF72095302F3695E8
:1037400036953370323069F050F44091A501313034
:1037500029F0822B84230E949809D7CE842B822BB8
:10376000FACF282B8091A5018227F5CFF02FFF708B
:10377000DF2ECC2029F08F2F0E94DF09812FFECE73
:10378000812F0E9438138D2D0E94BB09BECE123F9F
:1037900089F160F4103FB9F0113F81F0CC2009F4B9
:1037A00080C0B11055CE802F8F7128C0133F49F1D2
:1037B000143FA1F78091AD0382FD2FC0802F8F7140
:1037C000CC2011F31BC08091F103CC2079F0B81606
:1037D00008F09BCE202F2F7181E090E001C0880F70
:1037E0002A95EAF79091A5018927B5CF8B1508F4A2
:1037F0008CCEF0CF802F8F71C110C6CF0E94DF0911
:1038000084CE80E0CC2009F4A6CF81E0902F9F7178
:1038100001C0880F9A95EAF79ECF8091EB03823022
:1038200040F1CC20D1F0909190019770943041F408
:103830000E94F808802F8F710E94BB09A12C65CED1
:10384000B816E0F7202F2F71D22E822F0E94DF09A9
:1038500063E08D2D0E94EB09F1CFB81630F00E9485
:10386000F80864E0802F8F71F5CF81E00E94C809CD
:10387000E5CFCC2059F0302F3F71D32E832F0E94FB
:10388000DF0963E08D2D0E94EB093FCE81E00E94AD
:10389000C80941E04B1508F038CE82E00E94C80903
:1038A00034CEB110C5CE802F8F716ECFCC2019F0E1
:1038B000B11039CE3CCEB11036CE20E0F7014081B8
:1038C000518162817381848195810E949F0C8091D6
:1038D000EC0383FF28CE8091790190917A010297C1
:1038E00009F021CE812F0E94FA131DCECF93DF93D2
:1038F00080918A01807F09F04DC0809189018823E1
:1039000009F448C0E0912C065091E305C09185016F
:10391000D0918401609186017091870149E05E1722
:10392000C9F18E2F90E0E49FF0011124EC51FA4F81
:103930002481222391F1489FF001499FF00D112429
:10394000DF01AC51BA4F11962C9111972C1325C061
:103950002C912D1322C015962C91159721111DC065
:1039600012962D913C91261B370B283C3105A8F46B
:1039700080918A018F70806180938A01E651FA4FAD
:1039800080818F708061808384E891E00E94F115CE
:103990000E942309DF91CF910895FC013196E770D1
:1039A000BECFA8E1B0E0E7EDFCE10C94112B8C0157
:1039B00086E0F801DE01539601900D928A95E1F7B9
:1039C000D80114969C9014971596EC9084E8A82E34
:1039D00081E0B82E8091880181112AC0911003C026
:1039E000FF24F3941CC0EE20F9F0C8010E948B0C58
:1039F000F82E8823C9F089E0F801A4E8B1E001902D
:103A00000D928A95E1F780918801813031F480919F
:103A10008401909185010E947E0C0E94761C8F2D5E
:103A20006896EDE00C942D2BC8010E94F115D8CFBB
:103A3000F80170808180C280D38060E084E891E0EA
:103A40000E94C40CF09089018091860190918701B9
:103A5000FF2009F425C19601281B390B283C3105AC
:103A600008F0D1C0992009F4BBCF20918501D8017D
:103A700011969C91119780918A01382F307F09F01F
:103A800071C029131FC0209184019C9129131AC071
:103A900040918B0150918C0117962D913C914217CA
:103AA000530781F4E11054C08F70806180938A01C4
:103AB00084E891E00E94F11580918A01F8018683E3
:103AC000F12CADCFE11044C0682D872D0E94F30288
:103AD000E82E882381F08091EC0380FFF1CF84E809
:103AE00091E00E94F11589E0E4E8F1E0DF011D9228
:103AF0008A95E9F7E5CF7B8A8C8A8B899C890E941D
:103B00007E0C292F22952F70243058F49F7022307C
:103B100088F0992399F0F8019681907F79F4FE2C32
:103B20007ECF2A5F2F70223068F0C8010E94F11505
:103B3000EF2CF5CF992311F0882389F3805E88302C
:103B400070F3F3CF803F58F3815F833070F7E7CF96
:103B500080918A01816080938A018091EC0381FDCC
:103B6000AFCFBDCF291320C0209184019C91291390
:103B70001BC040918B0150918C0117962D913C9167
:103B800018974217530781F4E1100EC016968C93D4
:103B9000C8010E94F11589E0F801A4E8B1E00190A4
:103BA0000D928A95E1F73BCFC8010E948B0C8823C8
:103BB00009F43ACFEE2009F437CF80918A018032A0
:103BC000B8F020918401309185013B872A87DD86FA
:103BD000CC86909188019E871F86888B80918B016F
:103BE00090918C019A8B898BCE010A960E94F115D7
:103BF00089E0F801A4E8B1E001900D928A95E1F71F
:103C00000E94761CEDCE80918A01982F907F09F456
:103C100066CF992009F4E4CE20918501F8019181C5
:103C200029131AC0209184019081291315C0409155
:103C30008B0150918C01278130854217530761F425
:103C4000E1100AC08683C8010E94F11589E0D50100
:103C50001D928A95E9F7E3CEC8010E948B0C882358
:103C600009F4E2CEEE2009F4DFCE80918A018032A1
:103C700008F4BECF20918401309185013A832983D5
:103C8000DC82CB82909188019D831E828F838091FC
:103C90008B0190918C0199878887CE010196A6CFE0
:103CA000C81AD90AB8ECCB16D10480F6992009F4C9
:103CB00097CEFE2CEE2009F4B7CE90918501F80145
:103CC0008181981322C090918401808198131DC036
:103CD00020918B0130918C018781908528173907BD
:103CE000A1F490918A0190FD56CF907F09F453CFB3
:103CF00080918A018683903F09F44ACF982F907F64
:103D0000905F8F70892B868343CFC8010E948B0CF4
:103D100081116ECF80918A01816080938A01C801F0
:103D20000E94F1157CCEA2E1B0E0E9E9FEE10C943D
:103D30001A2B0A871B872C873D874E875F87688BE6
:103D4000798B8A8BCE010A960E94D11C81110CC0FE
:103D500089E0FE013A96DE01119601900D928A9556
:103D6000E1F78E8581110BC019E080912C069091AE
:103D7000E305891331C06296E4E00C94362B209160
:103D8000E30530E0C90101968770992740912C0620
:103D90004817190699F099E0929FD001939FB00DB2
:103DA0001124AC51BA4FFE01319601900D929A95B3
:103DB000E1F78093E3050E942309D6CF0E94DE0E2F
:103DC0001092E30510922C0689E0E4E8F1E0DF01AF
:103DD0001D928A95E9F7C8CF819FC00111248C51AB
:103DE0009A4F0E94D11C882331F280912C0690E0DA
:103DF00001968770992780932C06B7CFEF92FF9298
:103E00000F931F93CF93DF9380914A05882361F02E
:103E1000E091F9038DE0F82E80914A05E81748F00B
:103E200010924A051092F903CDB7DEB7E6E00C9484
:103E3000342BEE24E394EE0EE092F903CE2FD0E083
:103E4000EF9DF0011124E55BFA4F84818823E9F0AE
:103E500087819085892B21F481859285019659F47B
:103E6000008111812281338144815581668177816E
:103E700080850E94931EFC9EF001FD9EF00D112492
:103E8000E55BFA4F148210922D06EE2DC5CF1092ED
:103E9000BE051092BD05109213018091BC05809360
:103EA000BB050E9429050E94FE1E0895B0E0A0E017
:103EB000ECE5FFE10C940D2BC091BB0597E0992E2A
:103EC00001E010E02DE0322E34E0432E55245394CF
:103ED0008091BC058C1309C00E94FE1E0E9429051A
:103EE000CDB7DEB7E1E10C94292BD0E0FE01EE0F57
:103EF000FF1FED54FA4F80819181989ED001999EC9
:103F0000B00D1124A650BC4F14962C91149721117A
:103F100059C060904A05EBE4F5E030E020E0812CE8
:103F20005D01261508F04CC0E384F484D501CD90E2
:103F3000DC906FEF7FEF712C472D50E0DA01AA0F74
:103F4000BB1FAC0DBD1D0D90BC91A02D109731F085
:103F5000EA16FB0609F4BA017394EECF6F3F7607B9
:103F6000A9F1D80102C0AA0FBB1F6A95E2F78A2AFD
:103F7000B801072C02C0660F771F0A94E2F7AB0165
:103F8000415051098416150601F5329EF001339E09
:103F9000F00D1124E55BFA4F989ED001999EB00D6B
:103FA0001124A650BC4F12962D913C911397308747
:103FB00027834482108211829287818715965C92B2
:103FC0000E94FB042196C37083CF14822F5F3F4F62
:103FD0003D96A7CFAEE1B0E0E0EFFFE10C940C2BF3
:103FE0004B8B5C8B6D8B7E8B8F8B988F882349F0EE
:103FF0008091790190917A01019690937A01809352
:104000007901888D811110922D06188A198A1A8AD1
:1040100086E0FE017396DE011A9601900D928A9554
:10402000E1F78091AD0382FF1EC08091D103909192
:10403000D203892BC1F00E947E0420918E01309121
:104040008F01821B930B2091D1033091D2038217F1
:10405000930720F08091900182FFE7C10E94FF0842
:1040600081110E94BD088E85882389F061E0CE0110
:104070000A960E94C40C6C018F8520E5C2162CE7BD
:10408000D20689F4882329F181E0809313010A85FF
:104090001B852C853D854E855F85688979898A8950
:1040A0000E94931ECDC031E5C3163CE7D30629F428
:1040B000882379F00E94471FEACF42E5C4164CE7F7
:1040C000D40639F4882329F0809113018111F2CFAD
:1040D000DBCF9AEFE92E93E0F92E412CB12CA12CE5
:1040E00088248394912CBE016F5F7F4F7A8F698FF4
:1040F00022242394F7014081518166246A94762C0E
:1041000020E0822F90E0FC01EE0FFF1FE40FF51F6F
:10411000608171816115710531F0C616D70609F409
:104120003C012F5FEECF312CFFEF6F167F0609F4B5
:1041300048C0F701448130901301832D411180E084
:10414000F82FF1703F2EF701558086819F859923C6
:1041500009F4F7C0332009F4F4C00091E50310918D
:10416000E603511013C0A401062C01C0440F0A94A9
:10417000EAF7842B86838091F7039091F8038017E8
:10418000910720F41093F8030093F703C40102C0D1
:10419000880F991F2A95E2F70197F70126812817C2
:1041A000190679F48091BD059091BE05009709F438
:1041B0004BC00E946F040817190708F045C0F701AB
:1041C00024824328FFEFAF1ABF0A27E0E20EF11C5A
:1041D00030E3A316B10409F08DCF8F85882309F44D
:1041E00010C1442009F40DC10E947E049093BE05C5
:1041F0008093BD0580914A05883010F591E0980FB5
:1042000090934A0599E0FE013A96DE0111960190DD
:104210000D929A95E1F74DE0849FC0011124855BD2
:104220009A4F29E0FE013196DC0101900D922A950A
:10423000E1F72FEF3FEFFC0132872187D486C38659
:104240006E96E2E10C94282B8091BB055091BC0541
:10425000982FF0E0E0E0851314C09093BB05EE16B4
:10426000FF0609F4AECF90E0FC01EE0FFF1FED5406
:10427000FA4FB182A0820196837099278093BC0582
:10428000A0CF682E712CF301EE0FFF1FED54FA4FF3
:1042900020813181F7E0F29FD001F39FB00D11240E
:1042A000A650BC4F2D913C9111973E8F2D8F40E031
:1042B00020E030E0E32FF0E0EE0FFF1F6D8D7E8DEC
:1042C000E60FF71F0081118101151105E1F0F701DB
:1042D0000190F081E02DFC8FEB8F20E005C00617E8
:1042E000170709F4432D2F5FE22FF0E0EE0FFF1FB9
:1042F0006B8D7C8DE60FF71F6081718161157105F3
:1043000071F73F5FD7CF4423C9F0F701231708F0B7
:10431000FD012482EE16FF0621F49093BB05342E96
:1043200050CF981305C0AE17BF0711F49F5F93706D
:1043300093012F5F3F4F822F83708DCFF0E0E0E03D
:10434000F7CF90E0511020C0B40102C0660F771F74
:104350002A95E2F79B01215031098217930731F426
:10436000442309F44CC0C5010E94FB04C401062C7F
:1043700001C0880F0A94EAF7982F9095F70186817B
:1043800089238683352C1DCFAC01062C02C05595A0
:1043900047950A94E2F7BA01617077279C01215092
:1043A000310982239323892B31F5672B21F1F70102
:1043B00082819381892BE1F0E98DFA8D27E01192BA
:1043C0002A95E9F70E947E04282F8B839C8334E092
:1043D0003D83F70182819381782F888799870981AE
:1043E0001A813C8144E05E816F81892F0E94931E77
:1043F000F7011582BBCFF42FF1705F2EB7CF532C8E
:10440000B5CF9091BB058091BC05981729F00E940B
:10441000561F411015CF3BCE0E94FE1E1092BE05C6
:104420001092BD050E942905F4CF82E00E94C809C0
:1044300015CEA6E0B0E0EFE1F2E20C941C2B9093D5
:10444000CB018093CA01811520E2920730F40E94CB
:1044500086132696E2E00C94382B80EF89838A83BA
:104460000E947E048160682F9C838B8349815A81DE
:104470007C8181E090E00E94EA1FEBCFA6E0B0E0F3
:10448000E4E4F2E20C941C2B9093CB018093CA01DC
:10449000811520E2920730F40E941A152696E2E078
:1044A0000C94382B80EF89838A830E947E0481607C
:1044B000682F9C838B8349815A817C8181E091E0C4
:1044C0000E94EA1FEBCFA6E0B0E0E9E6F2E20C942E
:1044D0001A2B0E947E048C0180919C0190919D0179
:1044E0008017910781F019821A820E947E04682F3A
:1044F00049815A81792F80E090E00E94EA1F109351
:104500009D0100939C012696E4E00C94362B1F92AB
:104510000F920FB60F9211242F933F934F935F93F7
:104520006F937F938F939F93AF93BF93CF93DF93BB
:10453000EF93FF93D091E900DF708091EC00C82FDA
:10454000C17080FDC0E81092E9008091F000877F83
:104550008093F00078940E94050F1092E9008091FA
:10456000F00088608093F000CD2BCF70C093E900FD
:10457000FF91EF91DF91CF91BF91AF919F918F917B
:104580007F916F915F914F913F912F910F900FBE4F
:104590000F901F9018951F920F920FB60F92112433
:1045A0002F933F934F935F936F937F938F939F933B
:1045B000AF93BF93EF93FF938091E10082FF09C017
:1045C0008091E20082FF05C08091E1008B7F8093A3
:1045D000E1008091DA0080FF24C08091D80080FF44
:1045E00020C08091DA008E7F8093DA008091D9001C
:1045F00080FF9DC080E189BD82E189BD09B400FED4
:10460000FDCF81E08093D9058091CC05811109C04F
:104610000E9412030E94B3038091E20084608093A1
:10462000E2008091E10080FF17C08091E20080FFEE
:1046300013C08091E2008E7F8093E2008091E200BF
:1046400080618093E2008091D80080628093D800DE
:1046500019BC85E08093D9058091E10084FF2BC0CF
:104660008091E20084FF27C080E189BD82E189BD9D
:1046700089B5982F917080FFFBCF8091D8008F7DF6
:104680008093D8008091E1008F7E8093E10080913B
:10469000E2008F7E8093E2008091E200816080934F
:1046A000E2008091DA05882309F447C084E0809312
:1046B000D9058091D9058091E10083FF27C08091C1
:1046C000E20083FF23C08091E100877F8093E100B7
:1046D00082E08093D9051092DA058091E1008E7F07
:1046E0008093E1008091E2008E7F8093E2008091D0
:1046F000E20080618093E20042E060E080E00E949E
:1047000081038091F00088608093F000FF91EF9129
:10471000BF91AF919F918F917F916F915F914F91D9
:104720003F912F910F900FBE0F901F90189519BCBD
:104730001092D9051092CC0574CF8091E30087FDCB
:1047400093E09093D905B5CF78941F921FB61F922E
:1047500011248F939F93AF93BF938091C80590913D
:10476000C905A091CA05B091CB050196A11DB11D47
:104770008093C8059093C905A093CA05B093CB0553
:10478000BF91AF919F918F911F901FBE1F90189561
:104790001F921FB61F9211248F939F93AF93BF93C5
:1047A0008091C705811113C08091C8059091C905FA
:1047B000A091CA05B091CB054196A11DB11D809372
:1047C000C8059093C905A093CA05B093CB05BF91C6
:1047D000AF919F918F911F901FBE1F901895CDB7DD
:1047E000DEB7E2970FB6F894DEBF0FBECDBF85B738
:1047F000806885BF85B7806885BF84B7877F84BFA1
:104800000FB6F894A895809160008861809360004D
:10481000109260000FBE80E890E00FB6F89480938D
:104820006100909361000FBE81EA96E090936F0162
:1048300080936E010E94770D0E94F00C0E9412037B
:104840000E94B3038091E20084608093E200789438
:104850008091D9058823A1F01091E9001F709091F3
:10486000EC00892F817090FD80E8182B1092E900F0
:104870008091E80083FD0E94050F1F701093E900EE
:1048800082E084BD93E095BD9AEF97BD80936E0062
:104890000E94160D811102C00E94821286EC0E94B5
:1048A000A30680E30E94A30683E30E94A30609E512
:1048B00011E0D8018D918D018F3F11F00E94A30668
:1048C000B1E00F351B07A9F783E0E8EBF1E0DF016A
:1048D000282F1D922A95E9F7E1EAF1E0DF011D9208
:1048E0008A95E9F790E080E00E94812B863E9E4FFA
:1048F00021F40E94160D811167C066EE7EEF90E0F4
:1049000080E00E94B52B60E082E090E00E94972B4F
:1049100060E083E090E00E94972B1092A40160E099
:1049200074E184E090E00E94B52B60E086E090E0C6
:104930000E94972B6FEF87E090E00E94972B40E05A
:1049400050E0BA0188E090E00E94A92B60E084E288
:1049500090E00E94972B60E087E190E00E94972B07
:1049600060E08CE090E00E94972B60E08DE090E0AA
:104970000E94972B19821A821B821C821D821E8222
:104980001F82188648E050E068E170E0CE01019691
:104990000E94872B40E050E0BA0180E290E00E9444
:1049A000A92B80E00E94EA0B0E94821240E050E0B6
:1049B000BA018FE090E00E94A92B40E050E0BA01DC
:1049C00083E190E00E94A92B82E090E00E94792B85
:1049D0008093A60184E090E00E94812B9093AD0328
:1049E0008093AC030E94BF0DEFEFF6E721E0E150AA
:1049F000F0402040E1F700C000000E94BF0D809110
:104A0000B80180FF08C06FEF7FEF90E080E00E9468
:104A1000B52B0E94860B83E090E00E94792B0E94C8
:104A2000020A80E091E09093C4058093C30533248B
:104A30003394222423948E010F5F1F4F8091D90558
:104A4000E0E1FE2EF2E1EF2E853009F455C10E941F
:104A5000BF0D9091B8018091A701981357C1909113
:104A6000A8018091B901981351C19091A901809139
:104A7000BA0198134BC10E946322809113018823CD
:104A800001F18091BD059091BE050097D1F00E9483
:104A90006F042091F7033091F8032817390788F441
:104AA0009091BB058091BC05981709F473C10E94D1
:104AB000561F1092F8031092F7031092BE05109241
:104AC000BD058091EA0380FF1EC08091120182FF24
:104AD0001AC00E947E042091F3033091F403AC01CC
:104AE000421B530B209110013091110142175307C3
:104AF00050F02AEA31E041E0BC018091F503909149
:104B0000F6030E94421586E0E4ECF1E0D801019042
:104B10000D928A95E1F71092C6011092C70110928A
:104B2000C8011092C9018B819C81892B91F08091E1
:104B3000C2019091C3010E946F04AC019091BD012C
:104B4000992309F430C180910E018417150608F4E9
:104B500038C18D819E81892B91F08091C001909107
:104B6000C1010E946F04AC019091BE01992309F428
:104B700067C180910A018417150608F46FC146E0E9
:104B800050E0B80184EC91E00E944C2B892B61F439
:104B90008091C6019091C701892B9091C801892B02
:104BA0009091C901892B11F00E94E20586E0F8017D
:104BB000A4ECB1E001900D928A95E1F70E94EE0419
:104BC0009091B301891769F08093B3018FB7F8947E
:104BD0004091C8055091C9056091CA057091CB05F7
:104BE0008FBF8091D905843009F028CF83E080936E
:104BF000E9008091E80082FF21CF8091E80090E0F9
:104C000085FF0AC00E94310350E2E52EF12C6801B5
:104C1000882309F46CC191E08091E8008B77809340
:104C2000E800992309F40ACFE090BB01F090BC01A1
:104C30008981E114F10409F468C18E3F09F0F4C1DF
:104C40008A81833020F08550833008F0EDC1EA81FD
:104C5000EE3008F0E9C1F0E0EC5EF34D0C94FF2A71
:104C60008091D905843021F11092C70588E190E048
:104C7000A0E40FB6F894A895809360000FBEA093AF
:104C8000600083B7817F846083BF83B7816083BF07
:104C90007894889583B78E7F83BF0FB6F894A895D4
:104CA00080916000886180936000109260000FBE68
:104CB0008091D805882301F10E94BF0D8091B90130
:104CC0009091B801892B9091BA01892BA9F0F9BC78
:104CD000E9BC09B400FEFDCF8091D8008F7D8093A0
:104CE000D8008091E00082608093E0008091E00035
:104CF00081FDFCCF0E94DE0E8091D905853009F43C
:104D0000AFCF0E94DE0E0E94EE04A1CE68EBC62E4D
:104D100061E0D62E77EAE72E71E0F72EB12CF6018E
:104D2000A1906F01D7017D907D017A1419F17A2449
:104D3000912C88248394882D8721A1F09BA6BCA662
:104D40000E947E049EA78DA72FA691E0882D8A2120
:104D500009F490E098AB4BA55CA56DA57EA58FA549
:104D60000E94EA1F9394880CB6E09B12E4CFF701EF
:104D70003197A082B394E3E0BE12D1CF8FB7F894FD
:104D80004091C8055091C9056091CA057091CB0545
:104D90008FBF73CE0E94FE1E1092BE051092BD05FD
:104DA0000E9429058ECE20910F01FAE02F9F9001DD
:104DB00011242417350708F0CCCE9F5F9093BD01D6
:104DC00002C09F3FD1F7FB80FF2059F00E944206AE
:104DD0009FEF1F140CF491E0899F802D1124809384
:104DE000C601FC80FF2059F00E9442069FEF1F146D
:104DF0000CF491E0899F802D11248093C70130919C
:104E0000C601332309F4A5CE2091C701222309F45A
:104E1000A0CE45EB3403C0011124992359F090939F
:104E2000C60145EB240390011124332331F0309364
:104E3000C7018FCE3092C601F4CF3092C70189CE20
:104E400020910B018AE0289F900111242417350737
:104E500008F095CE9F5F9093BE0102C09F3FD1F7AF
:104E6000FD80FF2059F00E9409069FEF1F140CF4EB
:104E700091E0899F802D11248093C801FE80FF203E
:104E800059F00E9409069FEF1F140CF491E0899FCE
:104E9000802D11248093C9013091C801332309F476
:104EA0006ECE2091C901222309F469CE45EB34036B
:104EB000C0011124992359F09093C80145EB2403B4
:104EC00090011124332331F03093C90158CE309230
:104ED000C801F4CF3092C90152CE8091F100D601C1
:104EE0008D936D01B1E0EB1AF10809F494CE809135
:104EF000E80085FDF2CF8091E8008B778093E80091
:104F00000E943103882399F386CE8C3009F4CBC0FC
:104F100060F5843009F4AEC050F4823009F46AC000
:104F200008F099C0813009F461C08FEF19C3863051
:104F300009F4B6C008F4A9C08B30B9F78091BF0559
:104F40009091C005892B09F46FC040E250E0B80190
:104F500082E00E94290B3FEF41EE84E03150404057
:104F60008040E1F700C0000054CD803109F4CAC090
:104F700088F58E3009F49DC008F498C08091BF0573
:104F80009091C005892B09F44FC0EC80F12C3DE1D4
:104F9000E316F10408F048C0CA80DB80DC24CD248D
:104FA000DC245801E00EF11EC601835B9C4FEA141D
:104FB000FB04D1F143EBC416D10428F4D5011496B7
:104FC0006C910E94972BBFEFAB1ABB0AEFEFCE1A82
:104FD000DE0AEACF823109F49AC008F496C0833120
:104FE00009F4BEC08E3F09F0A0CF31CE1A8289E00D
:104FF0008B831AC08A81823009F4D1C28330D9F000
:10500000813009F092CF2FB7F8946091C805709164
:10501000C9058091CA059091CB052FBF0E94052B31
:105020006B837C838D839E8340E250E0B80182E0F5
:105030000E94290B03CD8091BF059091C005892B5B
:1050400099F38091B8018B838091B9018C83809111
:10505000BA018D83E9CF8A81823009F066CF6B81F6
:105060007C818D819E810E94052B88E290E00E94C8
:10507000972BDACF4C816B818A810E94030C982791
:10508000892798279E838D83CFCF2D813E8132271C
:10509000232732274C816B818A810E94C40BC4CFA5
:1050A0000E942012C1CF80E18A83BECF1A8283EB97
:1050B0009FCFEC80F12CEDE1EE16F10408F0B4CFB7
:1050C000CA80DB80DC24CD24DC245801E00EF11EF4
:1050D000C601835B9C4FAE14BF0409F4A5CFF3EB6C
:1050E000CF16D10460F40E94792BD50114968C93CD
:1050F000FFEFCF1ADF0A2FEFA21AB20AE9CFF501AC
:105100001482F6CF0E94B40B8FCF88E0CDCFEC8015
:10511000F12CFDE1EF16F10408F086CFCA80DB80A8
:10512000DC24CD24DC245801E00EF11EC601899652
:10513000EA14FB0409F478CF20E2C21621E0D2067B
:1051400060F40E94792BD50114968C93FFEFCF1A4F
:10515000DF0A2FEFA21AB20AE9CFF5011482F6CFC7
:10516000CC80D12C3DE1C316D10408F05DCFEA809C
:10517000FB80FE24EF24FE2440E2E41641E0F40626
:1051800008F052CF80E291E08E199F098C159D05A1
:1051900008F44ACF370189E2680E711C8091BF057F
:1051A0009091C00526014E0C5F1C892BB9F5570163
:1051B00091E0A922BB24E0FE0DC0C70188960E94A1
:1051C000792B9D8189279827892781159C4711F480
:1051D0008FEF8D83460140FE1AC0B1E08B1A910813
:1051E000E5E0F0E0EC0FFD1FE80DF91DFAABE9ABCF
:1051F000C3018C0D9D1D0E94792BA9A9BAA99C9170
:1052000081159C4721F48FEFE9A9FAA98083F80161
:10521000EA0DFB1D2FEFA814B90410F068011BC0A4
:105220009481858181159C4711F42483258342E074
:10523000A40EB11C3296EFCFA0E2EA16A1E0FA0666
:1052400020F4F60164810E94972BFFEFCF1ADF0A4A
:105250002FEFE21AF20AC7018996E414F50461F708
:10526000E3CE88E0E5E1F1E0DE01919601900D9258
:105270008A95E1F780E2D8011D928A95E9F786E0E8
:10528000898388E0FE01B196DE01159601900D92AA
:105290008A95E1F7C9CE80EF89831A821B821C822E
:1052A000C3CE8C81682F70E0762F66278B81860FA6
:1052B000972F911D092E000CAA0BBB0B45E0880F00
:1052C000991FAA1FBB1F4A95D1F7AC01BD01405ED3
:1052D0005F4F6F4F7F4F481759076A077B0708F4E6
:1052E000A3CE803F9105A105B10508F09DCE413FB9
:1052F00051056105710520F040EF50E060E070E07D
:10530000481B590BBC0167577E4FC8010E94432BB5
:105310008BCE4AE150E06FEF70E0CE0107960E941D
:10532000622B8091BF058983EA821B821C823D82A9
:1053300085E08E8379CE81E090E09093BC018093EC
:10534000BB0182E390E09093B7018093B6010E9485
:105350007E049093B5018093B40166CEEF2861F18D
:10536000F090B801E090B9018091B4019091B5013D
:105370000E946F048536910540F1E5FE26C0F0FEDF
:1053800024C00E947E049093B5018093B401809163
:10539000B6019091B70101979093B7018093B60140
:1053A000892B51F41092BC011092BB0181E090E076
:1053B0009093C0058093BF058091BF05898380913C
:1053C000BB018A838091B60113CE82E390E0909373
:1053D000B7018093B601F0CF1092C0051092BF05BF
:1053E00023CEEB80FC8040E250E06FEF70E0C8011C
:1053F0000E94622B29E732E0A5E7B3E090E080E06D
:10540000AC014E5F5F4F4132510508F00DCEF901FE
:1054100065917491E616F70630F4800F911FFC0138
:1054200071836083CA01245F3F4FA217B30741F71E
:10543000FBCD4B815C8189E792E025E733E0FC01FD
:10544000659174914617570709F47BC00C9628178D
:105450003907A9F76ACD8B819C8129E7E22E22E0EA
:10546000F22EF701259134918217930709F47AC03F
:10547000FCE0EF0EF11C25E7E21623E0F20689F7C7
:10548000CC24CA94DC2C89C00E94CE11CDCD8B8156
:10549000833059F0843039F18111C6CD80E2D801D2
:1054A0001D928A95E9F780E3FFCD6C812AE0CE0159
:1054B0008196FC01322F11923A95E9F7603388F416
:1054C000629FB001112463597E4F4AE050E00E9470
:1054D000692B80E089838AE0FE01B196DE01129695
:1054E000D5CE8FEFF7CF6C818AE0FE013596DE01D5
:1054F000919601900D928A95E1F789A59AA581155B
:105500004CE7940741F42091BF053091C005232B4F
:1055100011F490E080E09AA789A78FEF603368F4D8
:105520008AE0689FB001112463597E4F4AE050E041
:10553000CE0181960E94BB2B80E089830E94770D6B
:1055400073CDFC013696259134912115310509F46E
:10555000ECCC4FE150E0BE016E5F7F4FF901099541
:10556000898362CDF7013896259134912115310553
:1055700009F486CF4CE150E0BE016B5F7F4FC7015D
:10558000F90109956C01892B41F4F7013A9685914F
:105590009491009711F0FC010995C98245CD88E2EC
:1055A00090E00E94792B1B821C821D82C2CEAA1B16
:1055B000BB1B51E107C0AA1FBB1FA617B70710F0FE
:1055C000A61BB70B881F991F5A95A9F78095909530
:1055D000BC01CD01089597FB072E16F4009407D067
:1055E00077FD09D00E94D72A07FC05D03EF490959C
:1055F00081959F4F0895709561957F4F0895EE0FA7
:10560000FF1F0590F491E02D0994692796276927DB
:1056100078278727782708952F923F924F925F929D
:105620006F927F928F929F92AF92BF92CF92DF92B2
:10563000EF92FF920F931F93CF93DF93CDB7DEB717
:10564000CA1BDB0B0FB6F894DEBF0FBECDBF0994AB
:105650002A88398848885F846E847D848C849B8402
:10566000AA84B984C884DF80EE80FD800C811B8110
:10567000AA81B981CE0FD11D0FB6F894DEBF0FBE3F
:10568000CDBFED010895FB01DC0102C005900D9234
:1056900041505040D8F70895FB01DC0104C08D91C2
:1056A0000190801921F441505040C8F7881B990B94
:1056B0000895FB01DC0102C001900D924150504061
:1056C000D8F70895DC0101C06D9341505040E0F7D8
:1056D0000895DC01CB01FC01F999FECF06C0F2BDB3
:1056E000E1BDF89A319600B40D9241505040B8F7A0
:1056F0000895F999FECF92BD81BDF89A992780B59A
:105700000895A8E1B0E042E050E00C946B2BDC017E
:10571000A40FB51F4150504048F0CB01840F951F96
:105720002E910E94982B41505040D0F70895262F7B
:10573000F999FECF92BD81BDF89A019700B4021687
:1057400039F01FBA20BD0FB6F894FA9AF99A0FBE35
:1057500008950396272F0E94982B0E94972B252FA0
:105760000E94982B242F0C94982B0196272F0E948F
:10577000982B0C94972BDC01CB0103C02D910E9438
:10578000C62B41505040D0F70895262FF999FECFEF
:105790001FBA92BD81BD20BD0FB6F894FA9AF99A4E
:1057A0000FBE01960895F894FFCFE60F0E10BC11BE
:1057B0000E10BC1141106210BC116B1178118F18C2
:1057C00004199718611865189B1869189F18AB1869
:1057D0007518FD187918AF187D18B318DB188118E3
:1057E000B718E2188718BD18C5186D18A3187118D6
:1057F000A7188B18C118D118EB18FB185B18931851
:105800000B194218461837183E184A184E185218E5
:105810000E1A0E1A491A491A281B441B851A851A92
:10582000491BB61BC71BC71B31294B2951291428FB
:10583000142889299B29AE29EC29F129192A2B2A18
:04584000442A472A85
:105844006C04720B6B0B640B280850011E0A1401C4
:10585400AF00010101BEA29B4C6E78DA7D81828388
:10586400E200E900EA00B500B600B700CD0083010C
:10587400CC008A0192019401210223022402250210
:10588400260227022A02B300B4006F0070009F01B1
:10589400CB019F02A002C63033959392F4919040BD
:0E58A400227B49012701AC0017043004500498
:00000001FF
