:100000000C943B020C9473020C9473020C947302D4
:100010000C9473020C9473020C9473020C9473028C
:100020000C9473020C9473020C94C2220C947E22E2
:100030000C94BF230C9473020C9473020C947302FF
:100040000C9473020C9473020C9473020C9473025C
:100050000C9473020C949B230C9473020C94730203
:100060000C9473020C9473020C9473020C9473023C
:100070000C9473020C9473020C9473020C9473022C
:100080000C9473020C9473020C9473020C9473021C
:100090000C9473020C9473020C9473020C9473020C
:1000A0000C9473020C9473020C9473020501090200
:1000B000A10185020901A1000509190129081500FE
:1000C0002501950875018102050109300931158165
:1000D000257F95027508810609381581257F9501D0
:1000E00075088106050C0A38021581257F95017572
:1000F000088106C0C005010980A101850319012AF4
:10010000B700150126B700950175108100C0050CD8
:100110000901A101850419012AA002150126A002E6
:10012000950175108100C00660FF0961A101096297
:10013000150026FF00952075088102096315002629
:10014000FF00952075089102C005010906A101056F
:100150000719E029E7150025019508750181029529
:1001600001750881010507190029FF150026FF0008
:100170009506750881000508190129059505750181
:100180009102950175039101C0FD377A585A00001C
:1001900004E6D6B4460200210116000000742FE5E3
:1001A000A3E0010300AF5D003D8889C65436C31744
:1001B0004FE4E62D65CF099BCCB423272F04CB89D0
:1001C0009E6D8CE1DFFA171FDBDD7E7D5075AA0581
:1001D00030AF27C43C2ABC32F57A5829F030914B15
:1001E0000F91E61CC7731BA1FCA8780CA405864ED2
:1001F000F8E419EBDA97D50E491B12CF8B0CB475C6
:10020000ADDA841BB13C3013C78B4FE8FA13F1957C
:10021000DF91A0B9BD1619A37CB02ED372501A8EEF
:100220003ED5A792965B72CBB9D3C2E0353B83FF34
:10023000591E689166383265BC2F1F7B54FC7C4088
:100240008E0F10F0DBEAC439E7DB6AAED158F65600
:10025000A64470D8FEFE0000004F1575642E0C8D6C
:10026000210001CB018402000018E6A5E4B1C467B7
:10027000FB020000000004595A29003A003B003CF0
:10028000003D002A0028003E003F004000000041E1
:10029000002B00E2002C410000E000420029003A5F
:1002A000003B003C003D002A0028003E003F00408B
:1002B00000000041000100010001000000010001F8
:1002C0000001000100010001000100010001000126
:1002D0000001000100000001000100010001000018
:1002E0000001000100010001000100010001000106
:1002F00000010001000100010000000100010001F7
:1003000000010000000100010009025B0003010080
:10031000A0FA0904000001030101000921110100F4
:1003200001224000070581030800010904010002C1
:1003300003000000092111010001222200070582AB
:100340000320000107050303200001090402000146
:1003500003000000092111010001227B0007058430
:10036000032000011201000200000008444B465324
:100370000100010203011C037600690061006C00AA
:100380003A00660036003400630032006200330039
:10039000630000000E0353007500660066006500F0
:1003A000720000001C034B006900730065007200BE
:1003B0002000440065007300690067006E00730050
:1003C0000000040309040000000000000000000019
:1003D000000000000000000000000000000000001D
:1003E000000000000000000000007E0F00D4FFFFAE
:1003F000FFC70000007800000000000000002A2B6A
:1004000028000000000000000000000000000000C4
:100410000029000000002C1E34202122243426272D
:10042000252E362D3738271E1F202122232425264E
:100430003333362E37381F0405060708090A0B0C1C
:100440000D0E0F101112131415161718191A1B1C64
:100450001D2F3130232D350405060708090A0B0C22
:100460000D0E0F101112131415161718191A1B1C44
:100470001D2F3130354C11241FBECFEFDAE0DEBF27
:10048000CDBF04B603FE18C080915204909153046E
:10049000A0915404B09155048730904BA740B04BC5
:1004A00059F4109252041092530410925404109272
:1004B0005504E0E0F8E3099511E0A0E0B1E0E6E7DB
:1004C000F8E502C005900D92A436B107D9F724E0F3
:1004D000A4E6B1E001C01D92A235B207E1F70E9487
:1004E000E6230C94E52B0C940000482F2091510436
:1004F0009091080459E0291302C080E0089530E08B
:10050000529FF001539FF00D1124E75FFB4F818153
:10051000681306C08081481303C085818111EECF26
:100520002F5F3F4F2770E7CFE8EDF0E080818E7FAF
:1005300080831092E2001092DA001092E100A0EEA7
:10054000B0E08C9181608C9380818F77808319BC1F
:10055000A7EDB0E08C918E7F8C9380818F7E80831D
:100560001092F10308952091E4003091E50095E6A2
:10057000A9012091EC00822F817020FF06C080919C
:10058000E80080FF06C080E008952091E80022FD89
:100590001AC08091FE03882389F0853089F080910C
:1005A000EB0085FD0FC02091E4003091E50042177B
:1005B0005307F9F29150E1F684E0089582E008953E
:1005C00083E0089581E008958091000487FF13C0BF
:1005D0008091E80082FF06C08091E8008B778093CD
:1005E000E80004C08091FE038111F2CF089580914C
:1005F000FE038823D9F38091E80080FFF8CF809133
:10060000E8008E77ECCF982F9093E900242F762F77
:1006100050E0891731F07091EC002091ED0050917D
:10062000F00021FD07C09F5F973071F78093E900CC
:1006300081E008953091EB003E7F3093EB003091E4
:10064000ED003D7F3093ED003091EB003160309351
:10065000EB007093EC002093ED005093F00020919C
:10066000EE0027FDE0CF80E00895B0E0A0E0EBE3EE
:10067000F3E00C941D2BC8EDD0E088818F7E888339
:10068000E7EDF0E080818160808384E082BF81E0DB
:100690008093F10388818E7F888302EE10E0F80159
:1006A00010821092DA0081EEC82ED12CF601108251
:1006B00088818F77888388818068888388818F7D0F
:1006C000888319BC1092FE031092FF031092FD0361
:1006D0001092FC0390EEE92EF12CF70180818B7FC4
:1006E000808388818160888342E060E080E00E94AE
:1006F0000303F60180818E7F8083F8018081816011
:100700008083808188608083F70180818E7F8083F1
:10071000888180618883CDB7DEB7E8E00C94392BFF
:10072000FC01809106049091070486179707A0F0BA
:100730006115710529F49091E8009E779093E80087
:1007400090E06115710551F4911108C08091E800A5
:1007500082FF34C080E00895BC01F2CF8091FE0397
:100760008823C1F18530C1F18091E80083FD30C05C
:100770008091E80082FDEACF8091E80080FFE1CF20
:100780008091F3002091F200382F6115710519F066
:100790002830310558F091E02830310509F090E01B
:1007A0002091E8002E772093E800CBCF81918093B1
:1007B000F100615071092F5F3F4FE7CF8091FE0339
:1007C000882341F0853041F08091E80083FFBECF5F
:1007D00081E0089582E0089583E008958091F30315
:1007E00008959C014FB7F8948091ED039091EE032A
:1007F000A091EF03B091F0034FBF821B930B0895BC
:100800002FB7F8946091ED037091EE038091EF03A0
:100810009091F0032FBF08952FB7F8948091ED03C6
:100820009091EE03A091EF03B091F0032FBF0895D4
:100830009C01FC0132969FEF80E04191461751F0F8
:100840009F3F19F4411101C0982F8F5F8630A9F79F
:100850009F3F09F40895290F311D97FD3A95F9013D
:1008600062830895A3E0B0E0E8E3F4E00C94232B66
:100870002091EA033091EB0328173907A1F09093F8
:10088000EB038093EA03E091E803F091E9033097EA
:1008900051F024E029839B838A830680F781E02D31
:1008A000CE01019609952396E2E00C943F2BA3E03C
:1008B000B0E0EDE5F4E00C94232B2091E6033091B9
:1008C000E70328173907A1F09093E7038093E60325
:1008D000E091E803F091E903309751F023E0298398
:1008E0009B838A830680F781E02DCE0101960995CE
:1008F0002396E2E00C943F2BE091E803F091E903AA
:10090000309729F00190F081E02D0995089580E05D
:100910000895CF93DF93EC014091D4035091D50318
:100920006091D6037091D7032FB7F8948091ED03AF
:100930009091EE03A091EF03B091F0032FBF841BC1
:10094000950BA60BB70B843F9140A105B10518F597
:100950008091D4039091D503A091D603B091D70391
:100960008093D0039093D103A093D203B093D30389
:1009700084EF91E0A0E0B0E08093CC039093CD03AE
:10098000A093CE03B093CF03D093DC03C093DB03DB
:10099000DF91CF9108950E9400046093D00370937B
:1009A000D1038093D2039093D30382E390E0A0E03D
:1009B000B0E0E2CFFC018481862351F49281992337
:1009C000B9F06923808583FF05C081E061110FC004
:1009D00080E00895892F8F7092959F70982B862FB5
:1009E0008F7062956F70682B81E09613F1CF089538
:1009F00081E0FDCFDC016091C6038091C703962F93
:100A0000891301C00895292F30E0F901EE0FFF1F6F
:100A1000E254FC4F408151814A175B07A1F487E003
:100A20008A9FA0018B9F500D1124435E5C4F81E093
:100A3000FA0184839613E6CF2F5F3F4F237033274D
:100A40002093C60308952F5F3F4F922F9370D8CF06
:100A500010921B0310921A03EDE1F3E085818111DE
:100A600002C014821682379683E0E535F807B1F7A5
:100A70000895EFECF1E090E080E06FE071E246E392
:100A800051E221E930E277836683518740873387DB
:100A900022879587848701963E968830910599F73D
:100AA000089581152CE7920741F42091CA033091F3
:100AB000CB03232B11F490E080E008950E940C04F6
:100AC0009C019091B7018091B801982B21F030934F
:100AD000B4012093B3019091B9018091BA01982B90
:100AE00021F03093B2012093B101E091E803F0913D
:100AF000E903309749F082E08093B5010480F581E5
:100B0000E02D85EB91E0099508958091B00180FD7D
:100B100016C081FD16C082FD16C08091AF018823EA
:100B2000A1F0883280F428E0829FC001112468E29D
:100B300070E00E94F22A862F672B39F0089582E038
:100B4000089584E0089588E0089581E008958091F3
:100B5000B00180FD14C081FD14C082FD16C08091DB
:100B6000AE01882381F08E3180F420E5829FC001A0
:100B700011246EE170E00E94F22A862F089584E12C
:100B8000089588E2089588E0089580E5089580E05A
:100B90000895F894E82FE295EF70F0E031A1282F46
:100BA0002F7081E090E001C0880F2A95EAF7982F16
:100BB0009095932391A392A1892B82A37894089571
:100BC00090919C0192FF06C0282F28712830F9F4DB
:100BD000877F846093FF06C0282F28712831F1F4A5
:100BE000877E846120919D0120FF06C0382F3871D7
:100BF0003830D9F4877F816021FF06C0282F287103
:100C00002831D1F4877E816194FD877E0895282F55
:100C100024712430F9F68B7F8860DCCF282F247173
:100C2000243101F78B7E8861DDCF382F317131306F
:100C300019F78E7F8860E0CF282F2171213121F7AD
:100C40008E7E8861E1CF82389105B9F1B0F48133AD
:100C5000910509F47DC048F48932910509F46DC00D
:100C60008A32910509F47BC008958533910509F412
:100C70005FC08933910509F10895833E9105D9F14B
:100C800038F4803E910529F1823E910579F108956D
:100C9000863E9105D9F1873E910509F43EC0843E18
:100CA000910541F520919D0121FF24C080919C0177
:100CB00084FD19C087EE90E0089520919C01237077
:100CC00009F05AC020919D0123FF14C089E290E0F1
:100CD000089520919C0120FD38C030919D0130FF86
:100CE00009C024FF43C090E080E0089520919C015A
:100CF00022FDF7CF089520919C0122FD3AC030914A
:100D00009D0130FD39C024FFF5CFEDCF20919C012E
:100D100023FFF0CF24FDE7CFCDCF20919C0123FD11
:100D20002EC030919D0131FFEECF84EE90E008950A
:100D300020919C0125FFDECFC9CF20919C0125FD8C
:100D400021C020919D0123FFD5CF89E390E0D2CF30
:100D500020919C0126FFCECF8AE290E00895209159
:100D60009C0126FFC7CF81E390E0089583EE90E0D9
:100D7000089582EE90E0089580EE90E0089586EE6A
:100D800090E0089585E390E008951F93CF93DF935B
:100D90000E942306EC01C11580E5D807F0F5C115C6
:100DA00080E4D80708F09CC0C03ED10520F5CD3CBA
:100DB000D10508F082C0C83AD10578F4C53AD1050A
:100DC00008F073C0C130D10519F1209709F1C43082
:100DD000D105F0F4D0E0C0E01BC0C33CD105D0F792
:100DE000C85AD0E0CC0FDD1FCA5EDE4F0990D88113
:100DF000C02DD4640DC0C11580E2D80708F0D1C061
:100E0000C11581E0D80708F05AC0C83ED10510F7D7
:100E1000CE01DF91CF911F910895C03682E5D807AA
:100E200018F5C03482E5D80708F06BC0C03282E5FF
:100E3000D80708F05FC0C11582E5D80708F497C04D
:100E40002C2F2695269580E2289F900111248C2F27
:100E50008370C1E0D0E002C0CC0FDD1F8A95E2F7BD
:100E6000C22BD32BDD68D4CFC03A82E5D80760F41B
:100E7000C03882E5D80708F459C0CF71D0E0DC2F24
:100E8000CC27C46FD06AC4CFC03C82E5D80708F431
:100E900062C0C03E82E5D80708F09CCFDC2FCC278B
:100EA000CC27DF71C06FD06AB3CFC55AD0E0CD5E1A
:100EB000DE4FC881D0E0D064ABCFD065A9CF8D2FF5
:100EC0000E94E005182FCE0199270E942306C12F0A
:100ED000D0E0DC2FCC27CC27DF71C82BD92B98CFC3
:100EE000CE0199270E942306CC27DF70C82BD92B6F
:100EF000D06A8ECFCF71D0E0DC2FCC27C16FD06A03
:100F000087CF2C2F26952695277080E2289F900169
:100F100011248C2F8370C1E0D0E002C0CC0FDD1F04
:100F20008A95E2F7C22BD32BDC6872CF2C2F269543
:100F30002695277080E2289F900111248C2F8370C2
:100F4000C1E0D0E002C0CC0FDD1F8A95E2F7C22BD2
:100F5000D32BDA685DCF8C2F8F710E94E005C82FEC
:100F6000D0E0DC2FCC27CC27DF71D06251CF8C2F83
:100F70008F710E94E00555E0D695C7955A95E1F727
:100F8000CF70D0E0DC2FCC27282F30E084FF05C0C5
:100F900044E0220F331F4A95E1F7C22BD32BD069CF
:100FA00037CF8D2F8F710E94E005182FCE01992722
:100FB0000E942306C12FD0E0DC2FCC27CC27DF7185
:100FC000C82BD92BD2CF80919101882331F0109278
:100FD00091011092900110928F01089590919101CA
:100FE000292F282361F080958923809391018823FC
:100FF00039F00E940C049093900180938F01089522
:1010000090E080E0F8CF80959091E2039823909350
:10101000E203089580959091E30398239093E3036E
:10102000089510928601109285011092840108950E
:1010300090918301292F282321F080958923809383
:1010400083010895E8E6F1E09191891303C0DF017F
:1010500011971C9291E0EE36F907B1F7089580914F
:10106000510490910804981301C008958F5F877010
:10107000FACF292F933078F5863068F590E036E086
:10108000239F800D911D1124682F677023E0969592
:1010900087952A95E1F7FC01EE0FFF1FE80FF91F76
:1010A000EF58FE4F50E040E080E0219130E0062E06
:1010B00002C0369527950A94E2F721703327042E53
:1010C00001C0220F0A94EAF7822B4F5F5F4F433033
:1010D000510559F7089580E00895292F933098F528
:1010E000863088F590E036E0239F800D911D112415
:1010F000282F277041E001C0440F2A95EAF723E02A
:10110000969587952A95E1F7FC01EE0FFF1FE80FF2
:10111000F91FEF58FE4F30E020E070E05191DF0101
:101120001197CB01022E02C0969587950A94E2F79B
:10113000817081958527842385278C932F5F3F4F6E
:101140002330310559F7089580939B0108959091BC
:101150009B0121E030E0F90101C0EE0F8A95EAF72A
:10116000D90102C0AA0FBB1F6A95E2F7EA2B01C0A2
:10117000220F4A95EAF7892F8E23E81305C0292B01
:10118000822F0E94A408089520952923F9CF21E0F9
:1011900030E001C0220F8A95EAF7209580919B01EB
:1011A00082230E94A4080895909186018095892346
:1011B00080938601282F277069F4891759F0909140
:1011C0009D0192FF07C08695869586950E94C70867
:1011D0000E941108089521E030E001C0220F8A9595
:1011E000EAF780919B01822B0E94A40808959091B8
:1011F0009D0192FF10C098E0899F90011124622BFD
:10120000609386010E94EB080E940C049093850174
:101210008093840108950E94EB08089580939A01B9
:101220000895662309F45DC08D3C41F40E94A70532
:1012300081958093B8010E945E0508958E3C19F453
:101240000E94A705F6CF8F3C31F40E94A705819537
:101250008093B701F0CF803D19F40E94A705F8CF25
:10126000893D29F40E9485058093B901E4CF8A3D28
:1012700021F40E9485058195F7CF8B3D31F40E94C2
:10128000850581958093BA01D6CF8C3D19F40E94D3
:101290008505F8CF9FE2980F983070F4815D990B27
:1012A00021E030E001C0220F8A95EAF78091B60173
:1012B000822B8093B601BFCF8D3D31F48091B00178
:1012C00081608093B001B7CF8E3D21F48091B00151
:1012D0008260F7CF8F3D09F0AECF8091B00184607E
:1012E000F0CF4091B7018D3C59F48091B80187FF50
:1012F0000DC01092B80141110BC01092AE0108C090
:101300008E3C81F48091B80118169CF3442381F03F
:101310008091B9019091BA01892B09F08CCF10927C
:10132000AF0189CF8F3C49F447FFF0CF1092B7014E
:101330008091B8018111ECCFE0CF803D19F41416F3
:10134000ACF3E4CF9091B901893D29F41916F4F674
:101350001092B901DBCF8A3D19F497FFD7CFF8CFB0
:101360009091BA018B3D29F497FFD0CF1092BA012A
:10137000CDCF8C3D19F41916CCF3C8CF9FE2980F4E
:10138000983090F4815D990B21E030E0B90102C002
:10139000660F771F8A95E2F7CB0180959091B60191
:1013A00089238093B601B2CF8D3D31F48091B00195
:1013B0008E7F8093B001AACF8E3D21F48091B00141
:1013C0008D7FF7CF8F3D09F0A1CF8091B0018B7F4A
:1013D000F0CF9C013A9521153F4150F5FC01EE27D5
:1013E000F170BC0166277270AC01442754709C01F7
:1013F0002227387094FF0EC080E1EF2B09F480E0C3
:10140000672B09F08062452B09F08064232B89F05B
:101410008068089581E0EF2B09F480E0672B09F0E4
:101420008260452B09F08460232B19F088600895B1
:1014300080E008950F931F93CF93DF938B01EA0110
:101440009091FE03943061F58093E9008FEF9091C5
:10145000E800815095FD06C095ED9A95F1F70000E2
:101460008111F5CF8091E80085FF1AC00E94B30278
:10147000811111C08091E80085FD06C08091E800CF
:101480008E778093E800F2CFF80181918F018093ED
:10149000F100219779F78091E8008E778093E8003A
:1014A000DF91CF911F910F91089543E050E0BC016F
:1014B00084E00E941A0A089546E050E0BC0184E0EE
:1014C0000E941A0A0895CF93DF93EC0148E050E0A0
:1014D000BC0181E00E941A0A88E0FE01A4EFB3E09B
:1014E00001900D928A95E1F7DF91CF91089581E007
:1014F0008093E00080E28093D8001092C9008FE1D1
:101500009EE40197F1F700C0000087E090EBDC015A
:101510008093520490935304A0935404B0935504C1
:1015200088E19CE00FB6F894A895809360000FBE08
:1015300090936000FFCFCF93DF93C9EAD1E060E0E2
:10154000CE010E94A92B2196C11584E0D807B9F7D6
:10155000DF91CF9108951F93CF93DF93122F8430A3
:10156000E0F46330D0F44630C0F4C42FD0E0CC0FA8
:10157000DD1F9CE0699FC00DD11D112494E2899F5D
:10158000C00DD11D1124632FCE0189960E94A92B75
:10159000612FCE018A960E94A92BDF91CF911F91D6
:1015A0000895CF93C82F6FEF811169E585E290E030
:1015B0000E94A92B6FEFC11161E686E290E00E94C4
:1015C000A92B6FEFC1116CE987E290E00E94A92B73
:1015D000CF910895AEE1B0E0E0EFFAE00C94182B63
:1015E000A090CA03B090CB0381E090E09093CB032E
:1015F0008093CA0389E7C82E82E0D82E00E07601E6
:1016000010E015C0F40125913491472D612F802FF2
:101610000E94AB0A82E0880E911C7394E6E07E1271
:10162000F1CFFCE0EF0EF11C1F5F133019F0470102
:10163000712CE8CF0F5F84E2C80ED11C0430F9F69C
:101640001A8219821C821B821E821D8218861F82AA
:1016500088EC90E09A87898709EB10E04AE050E037
:10166000B801CE0101960E94CD2B065F1F4F0930B5
:10167000E1E01E0799F77E01FBE0EF0EF11C8AE026
:10168000F70111928A95E9F74AE050E0B801C701E5
:101690000E94CD2B065F1F4F0935F1E01F07A1F710
:1016A0007E0185E1E80EF11C8AE0F70111928A952E
:1016B000E9F78FEF9FEF9A8F898F87E08E8F4AE04F
:1016C00050E0B801C7010E94CD2B065F1F4F093AB9
:1016D000F1E01F07A1F7B092CB03A092CA036E9668
:1016E000EDE00C94342B80E00E94D10A60E088E2A7
:1016F00090E00E94A92B0E94EA0A0E949B0A81E0C6
:101700000E94D10A08959B01883070F49AE0899F65
:10171000B001112467547F4F4AE050E0C9010E9494
:101720007B2B90E080E008958FEF9FEF0895AAE073
:10173000B0E0EDE9FBE00C94232B9C0137552F3FE3
:10174000310509F068F4BE016F5F7F4F0E94830B83
:10175000892B31F489859A852A96E2E00C943F2BF7
:1017600088EC90E0F9CF0F931F93CF93DF938430F1
:1017700030F5633020F5463010F5C42FD0E0CC0FA3
:10178000DD1F2CE0629FC00DD11D112434E2839F28
:10179000C00DD11D1124CE0189960E948B2B082FDC
:1017A00010E0102F0027CE018A960E948B2B980103
:1017B000282BC901DF91CF911F910F91089590E0DF
:1017C00080E0F8CF462F2091AC013091AD01232B62
:1017D00099F4703F39F4603F79F48091BB019091A6
:1017E000BC010895733040F4663030F4843020F446
:1017F000672F0E94B30B089590E080E00895CF9288
:10180000DF92FF920F931F93CF93DF936C010091B0
:101810009B0180919A01082BC3E0D0E010E0FC2EE0
:10182000C8010C2E02C0959587950A94E2F780FDB9
:101830000CC02197A0F7F12C8F2DDF91CF911F9134
:101840000F91FF90DF90CF900895B6018C2F0E94EA
:10185000E20B0E94C506019761F3EECFCF93DF93B1
:10186000EC010E94FF0BBE010E94E20B0E94C50624
:10187000DF91CF910895FC0184818823F9F087815D
:101880009085009791F00E94C50692959F709630C2
:10189000B9F080F4925F9F70923080F4803F19F02D
:1018A00058F4883E58F481E00895808191810E9427
:1018B0002E0CEBCF9A5FEFCF843FA9F380E0089521
:1018C000883E88F3813FD1F7EECFA6E0B0E0EBE6AB
:1018D000FCE00C94222B9C01FC01878190850097F1
:1018E000E1F486E0DE01119601900D928A95E1F710
:1018F000F901258189819A81222399F0662389F053
:101900000E94FF0B182F682F89819A810E946D0811
:1019100069817A81812F0E94E20B2696E3E00C9484
:101920003E2B0E943908182FF3CF85E290E00E94E9
:101930008B2B893589F486E290E00E948B2B8136CF
:1019400059F487E290E00E948B2B91E08C3909F0EA
:1019500090E0892F8170089580E0FCCFAAE0B0E08C
:10196000E4EBFCE00C94192B02EA12E080E9C82EAB
:1019700082E0D82E99E5E92EFF24F39427E0922EF9
:101980003FE8A32E32E0B32E88248394D6010D9332
:101990001D936D014AE050E0B701CE0101960E940F
:1019A0007B2BF8013896DF01892D1D928A95E9F786
:1019B00089819A81D80111969C938E938F8112967A
:1019C0008C9312978D8113968C9313978885149618
:1019D0008C931497898515968C9315978B819C8190
:1019E00017969C938E93169718961C9218978A8533
:1019F00087FF3CC01E961C921E921D9780FF03C05D
:101A0000D80118968C9281FF04C0F80190859260ED
:101A1000908782FF07C0D80118969C911897946010
:101A200018969C9383FF04C0F80190859860908776
:101A300084FF07C0D80118969C911897906118965A
:101A40009C9385FF04C0F801808580628087015FD8
:101A50001F4FFAE0EF0EF11C89EAE81681E0F80664
:101A600009F094CF2A96ECE00C94352BF801B68659
:101A7000A586C4CFAAE0B0E0E0E4FDE00C941D2B05
:101A8000EFE3F2E080E5DF011D928A95E9F7EDE1F1
:101A9000F3E088E3DF011D928A95E9F78FE3C82E12
:101AA00082E0D82E7F0109E011E0F701D182C082E7
:101AB0004AE050E0B801CE0101960E947B2B88E0FD
:101AC000FE013196D60101900D928A95E1F7898544
:101AD0009A85D70113969C938E931297BAE0CB0EFA
:101AE000D11CE7E0EE0EF11C065F1F4F0935F1E057
:101AF0001F07D9F62A96E8E00C94392B8091E3036E
:101B00009091E203892B8093660180919101882353
:101B100019F10E940C0420918F0130919001821BD9
:101B2000930B8838934110F00E94E307809166017F
:101B300090919101892B8093660120E088E691E0E5
:101B4000FC013191CF0131112F5FF1E08E369F07FB
:101B5000B9F721110E94E3078091D80380959091F5
:101B6000660189239091D903892B8093660148E00F
:101B700050E067E871E086E691E00E94672B892BD0
:101B8000A9F088E0E6E6F1E0A7E8B1E001900D9267
:101B90008A95E1F7E091E803F091E903309731F09D
:101BA0000280F381E02D86E691E009950895CF93B8
:101BB000DF93EC01EA85FB85309719F06C857D8514
:101BC00009958B810E9403088C810E940A080E945B
:101BD0007E0D86E0FE0111928A95E9F7DF91CF91A3
:101BE0000895CF93DF93EC018D8181FD18C0826051
:101BF0008D838091E2039B81892B8093E203809106
:101C0000E3039C81892B8093E3030E947E0DE8858A
:101C1000F985309721F06C857D85CE01099510926C
:101C2000E5031092E4038D8180FD03C0CE010E9484
:101C3000D70DDF91CF910895CF931092E303C6E0C3
:101C4000E8E6F1E0DF018C2F1D928A95E9F790E03C
:101C500080E00E94570490E080E00E9432041092DD
:101C6000E2030E947E0DE5EBF1E0DF011D92CA95D3
:101C7000E9F71092AE011092AF011092B0010E94EC
:101C80005E05CF910895AAE2B0E0E9E4FEE00C948D
:101C9000222B80E094E02091F100DC012D93CD0116
:101CA000B4E088309B07B9F780910104833009F4D0
:101CB00072C0B8F4813009F449C0823009F4B3C06D
:101CC0008091E80083FF96C2809100049091010406
:101CD0009A3008F08FC2E92FF0E0E951F44D0C94EE
:101CE000062B8A3009F48EC08B3009F471C089301C
:101CF00039F780910004813219F7809104049091A2
:101D00000504009711F00297D9F68091E800877FCB
:101D10008093E8008091E80082FF38C09091F30042
:101D20008091F200029731F48091F100813011F03E
:101D3000863021F48091F1008093F3038091E800D4
:101D40008B778093E8000E94E402BACF8091000470
:101D5000813A09F0B5CF8091E800877F8093E80051
:101D60008091040490910504892B61F468E084EF6C
:101D700093E070E00E9490038091E8008B7780935D
:101D8000E8009ECF60E090E080E0F3CF8091FE031A
:101D90008111C0CF95CF80910004813A09F090CF96
:101DA0008091040490910504892B09F089CF8091DA
:101DB000E800877F8093E8008091E80080FFFCCFF7
:101DC00080910A018093F1008091E8008E77B9CF6D
:101DD00080910004813209F073CF809104049091C6
:101DE0000504892B09F06CCF8091E800877F8093F0
:101DF000E8000E94E4028091020480930A010E949C
:101E00001C0E5ECF80910004813209F059CF809181
:101E1000E800877F8093E8000E94E4028091030439
:101E20008093F2034DCF80910004813A09F048CFAE
:101E30008091E800877F8093E8008091E80080FF30
:101E4000FCCF8091F203BECF803899F0823809F040
:101E5000D1C1809104048F70873008F0CBC180938A
:101E6000E9008091EB0085FB882780F91092E9005A
:101E700006C08091FC039091FD03911182609091C6
:101E8000E800977F9093E8008093F1001092F100B2
:101E90008091E8008E77AAC1882309F498C1823026
:101EA00009F0A8C18091020481119BC180910404B2
:101EB0008F702FEF280F263008F09CC18093E90027
:101EC0002091EB0020FF8DC1933031F48091EB0025
:101ED00080628093EB0085C19091EB0090619093BC
:101EE000EB0021E030E001C0220F8A95EAF7209351
:101EF000EA001092EA008091EB008860EACF81113D
:101F000079C1109102041F778091E3008078812BC2
:101F10008093E3008091E800877F8093E8000E942F
:101F2000E4028091E80080FFFCCF8091E3008068AC
:101F30008093E30082E0111183E08093FE035AC195
:101F40008058823008F056C1209102043091030479
:101F50002C3DE3E03E07A1F583E08A838AE2898392
:101F60004FB7F894DE01139620E03EE051E2E32FF4
:101F7000F0E050935700E49120FF03C0E295EF702A
:101F80003F5FEF708E2F90E0EA30C0F0C7968D93E0
:101F90009D932F5F243159F74FBF8091E800877FD1
:101FA0008093E8006AE270E0CE0101960E949003FF
:101FB0008091E8008B778093E8001CC1C096E7CF42
:101FC0008091040490910504432F55274330510517
:101FD00009F44AC078F54130510509F485C08BE514
:101FE00090E0E9E0F3E04230510509F003C12091AF
:101FF000E800277F2093E800209106043091070431
:102000008217930708F49C0140E02115310509F07F
:1020100070C041116EC08091E80082FDC9CF8091EF
:10202000FE03882329F2853019F28091E80083FFAE
:10203000F2CFBECF4132510509F447C042325105BB
:1020400009F0D8C08330910508F0D4C0FC01EE0F30
:10205000FF1FE85AFE4F0190F081E02D8B5A9E4FF2
:10206000DC018C9190E01DC0332721303105E9F06F
:102070002115310579F022303105F9F02330310591
:1020800009F0B8C0E6E7F3E0E4918E2F90E0E6E7D0
:10209000F3E007C0E2ECF3E0E4918E2F90E0E2EC95
:1020A000F3E0009709F4A6C0A2CFE4EAF3E0E491DC
:1020B0008E2F90E0E4EAF3E0F4CFE4E9F3E0E4917A
:1020C0008E2F90E0E4E9F3E0ECCF8330910508F047
:1020D00091C0880F991FFC01E25AFE4F0190F081D8
:1020E000E02D89E090E083CF82E190E0E4E6F3E048
:1020F0007ECF8091FE03882309F45ACF853009F4FE
:1021000057CF8091E80083FD53CF8091E80082FD96
:1021100082CF8091E80080FF78CF9091F30080918A
:10212000F2002115310519F08830910550F041E099
:10213000089709F040E08091E8008E778093E800EE
:1021400064CF44914093F1003196215031090196BA
:10215000E8CF803809F04EC08091E800877F8093F7
:10216000E8008091FF038093F10092CE811142C07C
:10217000109102041230F0F58091E800877F80937F
:10218000E8001093FF030E94E402112311F084E0A1
:1021900005C08091E30087FDFACF81E08093FE03C4
:1021A00042E061EC81E00E94030342E261EC84E0E2
:1021B0000E94030342E261EC82E00E94030342E2D8
:1021C00060EC83E00E9403038091FE0313C08091C2
:1021D0000204813079F481E0933009F080E080934B
:1021E000FD031092E9008091E800877F8093E8006A
:1021F0000E94E4028091E80083FF0AC08091E80019
:10220000877F8093E8008091EB0080628093EB00F1
:10221000AA96E3E00C943E2B0E941C0E2FEF84E361
:102220009CE0215080409040E1F700C0000088E130
:102230009CE00FB6F894A895809360000FBE909331
:102240006000FFCF882321F00E9403080E947E0DCA
:102250000895882339F09091E203982B9093E2033C
:102260000E947E0D0895882321F00E940A080E9492
:102270007E0D0895882339F09091E303982B909375
:10228000E3030E947E0D0895882381F19CEF980F4F
:10229000913A28F40E9422080E947E0D089590E24F
:1022A000980F983050F4877091E001C0990F8A958B
:1022B000EAF7892F0E940A08EFCF9BE5980F933029
:1022C00028F490E080E00E945704089598E5980F64
:1022D0009B3128F490E080E00E943204089593E35B
:1022E000980F933118F460E00E9411090895FF924D
:1022F0000F931F93CF93DF93F82E0091DD0310917E
:10230000DE030115110509F449C01092DC03109297
:10231000DB031092D8031092D903D8011696CD9101
:10232000DC919E013A9521153F4108F4D07ED1E021
:10233000C11101C0D0E0D8011996ED91FC911A9716
:10234000309731F01B966D917C9180E00995D823F0
:10235000DD2339F08CEF8C0F813A30F58C2F0E9401
:102360002208FF2099F0E091DD03F091DE038085E3
:1023700084FD0CC08091DA03882341F08081918133
:102380009C01215031092F333E47A0F00E947E0D61
:102390001092DE031092DD031092DA03C801CDB76C
:1023A000DEB7E5E00C943C2B0E947E0D8C2F0E9442
:1023B0004411D7CF0E948904E9CFCF93C82F882337
:1023C000A9F08CEF8C0F813A98F4E8E6F1E0819166
:1023D000C81709F441C081E0EE36F807C1F76C2F49
:1023E00086E691E00E9418040E947E0DCF91089528
:1023F00080E28C0F883068F4C77021E030E001C0C3
:10240000220FCA95EAF78091E303822B8093E303BE
:10241000EBCFEBE5EC0FE33040F4F0E0ED5EFE4F88
:10242000808190E00E945704E1CFE8E5EC0FEB31AA
:1024300050F4F0E0EE0FFF1FEA5EFE4F80819181C5
:102440000E943204D3CF83E38C0F833178F661E0AE
:102450008C2F0E941109CACF8C2F0E9422080E9443
:102460007E0DBDCF1F93CF93DF93182FD0E0C0E038
:10247000893311F4C0E5D0E0812F0E94DD1120974F
:1024800039F4812F0E944411DF91CF911F9108955B
:102490008FE99FE00197F1F700C000002197EFCF8F
:1024A000B0E0A0E0E6E5F2E10C941B2BEC018AE041
:1024B000A82E2881222309F48FC02130C9F59981E3
:1024C0008A81913021F422960E94321205C0923006
:1024D00029F422960E94DD112196EBCF933021F44E
:1024E00022960E944411F8CF943011F02196F4CF37
:1024F000229630E020E0AE014F5F5F4F8053990B92
:102500008A30910550F02150310930F38FE99FE076
:102510000197F1F700C00000F6CFA29EB001A39E84
:10252000700D11249C01260F371F8981EA01E3CF2A
:10253000E22FF0E0EA50FC4FB490822F869586950A
:10254000869590E0FC01EA51FC4FE4902770F12C55
:10255000022E02C0F594E7940A94E2F731E0E322F8
:10256000FF24FC01EA52FC4FC490D12C022E02C081
:10257000D594C7940A94E2F731E0C322DD24FC012C
:10258000EA53FC4F049110E002C0159507952A9577
:10259000E2F701701127E114F10419F081EE0E94B5
:1025A000DD11C114D10419F086EE0E94DD118B2DCE
:1025B0000E943212C114D10419F086EE0E94441117
:1025C000E114F10419F081EE0E9444110115110586
:1025D00009F482CF8CE278CFCDB7DEB7EAE00C9475
:1025E000372BB0E0A0E0E7EFF2E10C941D2B6B017C
:1025F000C42FD22FFC0185818823A9F04093E103E9
:102600000E940C049093E0038093DF03C77081E085
:1026100001C0880FCA95EAF70E943A11CDB7DEB71C
:10262000E8E00C94392B1091E103141337C080912A
:10263000DF039091E0030E94F1037C01C6010E9438
:10264000970BE816F90650F5C0E2CD0F1D17C1F043
:1026500080E2810F883048F4177081E0012E01C0BC
:10266000880F0A94EAF70E943311C83048F481E0D9
:102670009D2F977001C0880F9A95EAF70E943A1132
:10268000802F0E943212C83048F6D77081E001C016
:10269000880FDA95EAF70E943311C0CFC77081E046
:1026A00001C0880FCA95EAF7F6CFCF93DF93EC010C
:1026B0000E94E9099E01205E31092830310510F0A1
:1026C000209741F40E943A118C2F0E94DD11DF9176
:1026D000CF9108950E942911F7CF90919D0192FB0F
:1026E000222720F9281779F080FB92F990939D0119
:1026F00060919C0170919D0184E090E00E94C72B45
:1027000082E00E94D4080895A7E0B0E0EAE8F3E18F
:102710000C94132B7C01DC0114968C91882309F412
:1027200059C161E0C7010E94650C8C01F7018581E8
:10273000882309F18091E4039091E5030097D9F093
:1027400008171907C1F0FEE08F9FC0011124FC019A
:10275000EC52FE4F20812460208381539E4FDC0188
:102760000D931C930E94F10D1092E20361E0C701EA
:102770000E94650C8C01F7018581882309F4B1C0A2
:10278000C80197578038910508F0DDC0D02EF7E1D9
:10279000F01708F410C18FEF93E00E948B2B81118A
:1027A0000AC109EA11E0D11036C019821A821B82CF
:1027B0001C8299249A9468013FEFC31AD30AC80176
:1027C0000E948B2B89831A82882309F4F4C08130FC
:1027D00009F081C0580142E0A40EB11CC6010E945C
:1027E0008B2BC82E8A83882309F4E5C0C5010E947B
:1027F0008B2BD82E8FEF8C0D8330D8F4580153E0FB
:10280000A50EB11CDB82DD2021F0CE0101960E94D5
:1028100050128501D0CF011524E0120709F4CBC076
:10282000C8010E948B2B811101C0DA940F5F1F4FEA
:10283000BACF8BEF8C0D833030F5C8010396DB8265
:102840005C01DD2031F35801A4E0AA0EB11C0E9406
:102850008B2B8C838823E9F28B819C818130BFEFA5
:102860009B0710F0982F8827E6E0CE1631F0F7E0AE
:10287000CF1631F00E940421CCCF0E94DF20C9CFB7
:102880000E945920C6CF24E0C212C3CF580134E0C1
:10289000A30EB11CC80103960E948B2BDD2009F406
:1028A0008AC0882309F487C08150990B989E9001B3
:1028B000999E300D11244D2D4150550BCA01820FA8
:1028C000931F019708F4A5CFAFE9BFE01197F1F787
:1028D00000C00000F6CFCE0101960E9450125601B2
:1028E00098CF6801E7E5DE1AFFEFCF16D10409F0B3
:1028F00050F565EC71E08C2D0E94830B892B19F546
:102900008EE08C9DF0018D9DF00D1124E153FE4F62
:1029100082818130A1F58091C5019091C601892BFA
:1029200091F08091C7019091C801892B61F080914D
:10293000C9019091CA012091CB013091CC01822B29
:10294000932B892B21F1D70115965C90552009F422
:1029500045C00E35BCE71B0759F10F35ECE71E07E4
:1029600041F00D35FCE71F07C9F580910001882370
:10297000F9F01092000180E00E9477111CC08230B3
:1029800011F78091C9019091CA01892BE1F22EE0E3
:102990002C9DC0012D9D900D1124FC01EC52FE4F89
:1029A00020812E7F208381539E4F0E94F10DCBCF3B
:1029B00081E08093000180918601877059F0F701D2
:1029C0008581882339F080919D0182FF03C082E0D8
:1029D0000E94D4082796E2E10C942F2B80910001ED
:1029E000882309F43BC4480120EE821A91084090E4
:1029F000910180918301482A8091E303482A38E0BD
:102A00008316910408F086C098012770332781E06F
:102A100090E001C0880F2A95EAF7552009F477C0A5
:102A2000482AD7018D919C910E94390821E030E01D
:102A3000390102C0660C771C8A95E2F7E091DD034C
:102A4000F091DE03FF83EE8320906E0130906F01E2
:102A50001D822D81E22FF0E0EE0FFF1FE057FD4FAA
:102A6000C080D180C114D10409F45CC4411005C0F8
:102A7000D60112968C91811189C0F601838190E074
:102A800086219721892B09F481C08085982F977022
:102A900009F487E0F8E08F16910408F055C055203E
:102AA00009F44EC086958170882309F46FC0D60161
:102AB000AD90BC900A151B0519F4552009F466C0A9
:102AC000EE81FF81CE16DF0609F460C0D6011D96A7
:102AD000ED91FC91309721F08081882309F456C054
:102AE000642DC6010E94DA04882309F44FC00A1538
:102AF0001B0509F075C40115110509F476C45110C0
:102B000076C4A214B30409F041C0512C70C480955E
:102B1000482287CF552009F4EEC310936F0100932C
:102B20006E010E9400046093D4037093D5038093D8
:102B3000D6039093D7031092DC031092DB0371CF7E
:102B400082FB882780F9B0CF552001F18170ACCF8E
:102B50000E9444116BC40497813A910558F46A2D80
:102B600086E691E00E941804552009F477C30E947C
:102B70007E0D21CF0E947E0D8FE39CE90197F1F736
:102B800000C000008A2D0E94DD11EECF9D819F5F65
:102B90009D835FCFFC01208131810217130709F06B
:102BA00056C3511056C31092DA0380E00E94771189
:102BB00055C3902F812F9AC3F901858181FFC6C328
:102BC000C9010E94D70DC2C306E221EE41EE6AE1BF
:102BD0007CE7C7010E94F112EECE07E225EE45EE3A
:102BE0006BE17CE7F6CF06E221EE40EE68E17CE7A0
:102BF000F0CF07E225EE44EE69E17CE7EACF06E29A
:102C000021EE42EE6CE17CE7E4CF07E225EE46EEF2
:102C10006DE17CE7DECF08E221E045EE6EE17CE786
:102C2000D8CF80919C01816080939C0195C0809158
:102C30009D01886080939D018FC080919C0182607E
:102C4000F3CF80919C018460EFCF80919C018860DC
:102C5000EBCF80919D018160EDCF80919D018260DD
:102C6000E9CF80919C018061DFCF80919C018062DF
:102C7000DBCF80919C018064D7CF0E941C0E809195
:102C80009C018068D1CF80919C018C60CDCF8091D8
:102C90009D018360CFCF80919C018E7FC5CF8091B5
:102CA0009D01877FC7CF80919C018D7FBDCF809193
:102CB0009C018B7FB9CF80919C01877FB5CF80919C
:102CC0009D018E7FB7CF80919D018D7FB3CF809185
:102CD0009C018F7EA9CF80919C018F7DA5CF809193
:102CE0009C018F7BA1CF0E941C0E80919C018F774D
:102CF0009BCF80919C01837F97CF80919D018C7F9A
:102D000099CF80919C0182FB992790F921E092272D
:102D100090FB82F990FB83F987CF80919D01982FDA
:102D2000909591708E7F892B90FB81F983CF909144
:102D30009C01892F8F7B96FF806476CF0E941C0EAA
:102D400090919C01892F97FB87F980586DCF61E0A6
:102D50008EE090E00E94A92B60919C0170919D01F2
:102D600084E090E00E94C72B0E941C0E24CE60E0FD
:102D7000EFCF90919C01892F8F7E94FF806154CF7B
:102D800090919C01892F8E7F90FF81604DCF909113
:102D90009D01892F877F93FF88604CCF85E31DC3FA
:102DA00081E00E94EB0843E062E081E00E94A70816
:102DB00002CE81E00E94C708F6CF82E0F2CF0B3549
:102DC0003CE7130749F10C354CE71407D9F00A35F5
:102DD0001C4709F079C381E01CC00E941C0E8FEFD4
:102DE00094E3ACE081509040A040E1F700C00000C7
:102DF0000E94770A6FEF7FEF90E080E00E94C72B80
:102E00000E940C1180919D0182FB882780F991E03E
:102E100089270E946D1358C380E0FBCFF70185819D
:102E200000811181882369F0C8010E94FF0BD82E10
:102E3000682FC8010E946D08B8018D2D0E94E20B19
:102E40004AC3C8010E943908D82EF6CFE12FEF708F
:102E5000DE2E107F19F0D29490EFD922CC20B9F059
:102E6000DD2069F080E2800F883010F0011109C088
:102E70008091E303D82AD092E3030E947E0D802F35
:102E800040C08091E203D82AD092E203F6CF802F8F
:102E90000E944411DD20B9F180E2800F883010F0EB
:102EA000011104C08D2D0E940A0803C08D2D0E94BF
:102EB00003080E947E0D27C0F12FFF70DF2E107FC8
:102EC000103219F0D29480EFD822002351F0013053
:102ED00009F486C0CC2009F492C0BB2009F440C09C
:102EE000CECF80919D0182FD37C0CC2079F1DD20CD
:102EF00039F08091E303D82AD092E3030E947E0D3B
:102F000080E00E94DD11A92DA850BB0B149710F48E
:102F10000E947C04AA20A9F08091860180FD11C046
:102F2000F70115828695869586950E94EB08C70164
:102F30000E948413809186018695869586950E94CD
:102F4000C70860E0C7010E94650C44CD80E00E9484
:102F50004411DD20C1F2A6CFCC2069F1B11004C02C
:102F60008D2D0E943A11CFCF21E0B21210C01091E6
:102F700091018D2D8123D81631F20E940C0490937B
:102F8000900180938F01D12AD0929101BCCF35E07E
:102F9000B312B9CF8D2D0E943A118D2D0E94EE07EC
:102FA000809183019D2D9823D91609F4ACCFD82A9E
:102FB000D0928301A8CFB1100AC08D2D0E94331189
:102FC0008D2D0E94EE078D2D0E9418089CCF41E0A8
:102FD000B41299CF8091E3038D2109F494CFEDCF02
:102FE000CC2029F055E05B1508F48DCFB9CF84E0F3
:102FF0008B1508F488CF8D2D0E94331184CFBB2010
:10300000D1F3093349F49FEFA7EEB3E09150A0400C
:10301000B040E1F700C00000802F0E94441173CF40
:10302000812F86958695837061F0813009F06BCF92
:10303000C8019370C11002C080E090E00E94320489
:1030400062CFC8019370C11002C080E090E00E947E
:10305000570459CF6C2D802F0E94110954CF812F16
:10306000837089F5C1104FCF402F42954695477028
:10307000440F440F802F8F70042E01C0880F0A94D4
:10308000EAF7202F207104FF07C02FE030E001C0D5
:10309000220F4A95EAF7209516951695137012306F
:1030A00069F050F430919A01113029F0822B83237A
:1030B0000E940E0928CF832B822BFACF282B8091D8
:1030C0009A018227F5CF8695CC2011F0812F81704F
:1030D000882309F418CF402F429546954770440F36
:1030E000440F802F8F70042E01C0880F0A94EAF7D6
:1030F000202F207104FF07C02FE030E001C0220F15
:103100004A95EAF72095169516951370123069F0D6
:1031100050F430919B01113029F0822B83230E94BF
:10312000A408F1CE832B822BFACF282B80919B0110
:103130008227F5CF1F70CC2029F0812F0E94EB0849
:10314000802F0FCF802F0E943311812F0E94C7083C
:10315000DACE023F89F160F4003FB9F0013F81F01F
:10316000CC2009F464C0B1108ACE812F8F7128C0A1
:10317000033F49F1043FA1F780919D0182FD2FC0DB
:10318000812F8F71CC2011F31BC0CC2081F0E4E0A3
:10319000EB1508F4B8CE1F7181E090E0012E01C05C
:1031A000880F0A94EAF790919B018927B8CFF5E040
:1031B000FB1508F4A8CEEFCF812F8F71C110C6CFB9
:1031C0000E94EB08A0CE80E0CC2009F4A8CF1F71AC
:1031D00081E0012E01C0880F0A94EAF7A0CFCC202D
:1031E000C9F0809186018770843041F40E941108F3
:1031F000812F8F710E94C708A12C85CE24E02B154A
:10320000D8F31F71812F0E94EB0863E0812F0E9489
:10321000F708F2CF34E03B1530F40E94110864E067
:10322000812F8F71F4CF81E00E94D408E5CFBB20BD
:1032300059F0093309F0F0CE4FEF57EE83E04150DB
:1032400050408040E1F7E6CE812F8F717FCF55202F
:1032500029F0DC0118968C9185FFA7CCC801975501
:103260008F3F910511F008F08FC05801BB24BEE0DC
:103270000B9FF00111249F0121533E4F6901D7019B
:1032800015968C91EC52FE4F908180FB90F99083C3
:10329000882309F491CC0E940C049093A30180939D
:1032A000A201F60182818F5F82838091E203909177
:1032B000E303892B83838091910184830680F781C6
:1032C000E02D309731F0D6011C966D917C91C601AE
:1032D00009958EE08A9DF0018B9DF00D1124E1533C
:1032E000FE4F858181FF65CC90E080E09093E40300
:1032F0008093E5032BC080916E0190916F010817B8
:10330000190781F410926F0110926E011092D4038C
:103310001092D5031092D6031092D7031092DC03BB
:103320001092DB038091DD039091DE03009709F496
:1033300095CFA8E08A16910408F02CCC642D0E9449
:10334000DA04811103C081E00E947711D70115963C
:103350008C918823C1F11092E103C80190578397A3
:10336000E8F484E090E00E94932B90939D01809379
:103370009C01F801E150F047E232F10508F051CC30
:10338000EF50F44D0C94062BF801E851FC47E73060
:10339000F105E0F6ED5EF34D0C94062B0631BCE72B
:1033A0001B0709F077C08091E3038A7A91E009F462
:1033B00090E09093700169E2811165E386E691E007
:1033C0000E941804D4CB0631ECE71E0709F0C0C0F8
:1033D000809170018111E2CC89E20E942208C7CB62
:1033E000A114B10409F08DCB512CB12CA12C80E09B
:1033F0000E947711D092DE03C092DD0381E08093BA
:10340000DA03D60115968C918093D80351100EC023
:10341000AB2861F0F601808191819C012450310933
:10342000213A310508F094CB0E942208D601169665
:10343000AD90BC90C5019A9581159F4110F4E0EEC6
:10344000BE2277247394C50101978F339E4708F0FD
:10345000712CD6011996ED91FC911A97309731F0A5
:103460001B966D917C9181E009957822772079F007
:10347000F601868197810E94E9098093D903C501ED
:10348000F8E08F16910408F066CB0E9489040E9430
:103490007E0D6ACB0737FCE71F0709F481CC08379C
:1034A0002CE7120709F489CC0330BCE71B0709F4A9
:1034B000A1CC08F084CC0115FCE71F0709F48DCCE2
:1034C00001301C4709F49CCCD70117968D919C9133
:1034D000009709F4A3CC0E94C5068C01D70115966C
:1034E000CC9015971696BC90B2943FE0B322809191
:1034F00086018770F1F0AC2CCC20E1F0812F807F29
:10350000803451F080E2800F883098F0B11004C010
:10351000812F807E803269F080919D0182FF09C0F9
:1035200082E00E94D408809186018770AA24A39427
:103530008111A12C912E92942FE09222BBE0B9151B
:1035400008F4E1CCE92DF0E0E65EF34D0C94062B97
:1035500007373CE7130709F42CCC82E008374CE727
:10356000140709F427CCB0CFB0E0A0E0EAEBFAE111
:103570000C941E2B80918001807F09F051C08091B6
:103580007F01882309F44CC0E091510489E0D82ED2
:10359000809108048E1709F443C00E2F10E0ED9DB2
:1035A000F0011124E75FFB4F84818823F1F1D09E65
:1035B000E001D19ED00D1124FE01E75FFB4F918108
:1035C00080917B01981331C0908180917A0198138A
:1035D0002CC08581811129C0E280F38080917C011B
:1035E00090917D01E81AF90A60E08AE791E00E9473
:1035F000650C0E94970BE816F906B8F480918001DB
:103600008F70806180938001C15FDB4F88818F70F4
:10361000806188838AE791E00E9484130E942F08CA
:10362000CDB7DEB7E7E00C943A2BF8013196E7709E
:10363000AFCFA8E1B0E0EFE1FBE10C94162B8C01D9
:1036400086E0F801DE01539601900D928A95E1F72C
:10365000F801F480E5808AE7882E81E0982E809139
:103660007E0181112AC0F11003C0FF24F3941CC015
:10367000EE20F9F0C8010E943B0CF82E8823C9F017
:1036800089E0F801AAE7B1E001900D928A95E1F78F
:1036900080917E01813031F480917A0190917B019B
:1036A0000E942E0C0E94B41A8F2D6896EFE00C94A5
:1036B000322BC8010E948413D8CFC280D380B0902F
:1036C0007F0180917C0190917D013601681A790A11
:1036D000BB2009F420C15080A18060E08AE791E01E
:1036E0000E94650C0E94970B6816790608F0BDC011
:1036F000FF2009F4BACF80918001382F307F2091CC
:103700007B01F8019181311161C0FE2C29131DC08C
:1037100020917A019081291318C040918101509124
:103720008201278130854217530779F4E11047C0A1
:103730008F708061809380018AE791E00E948413FA
:1037400080918001F8018683AFCFE11038C06A2DE7
:10375000852D0E9475026A2D852D0E947502E82E26
:103760008111A2CF5B8AAC8A8B899C890E942E0C26
:10377000292F22952F70243058F49F70223088F022
:10378000992399F0F8019681907F79F4FE2C8CCFE3
:103790002A5F2F70223068F0C8010E948413EB2C3E
:1037A000F5CF992311F0882389F3805E883070F378
:1037B000F3CF803F58F3815F833070F7E7CF80917C
:1037C0008001816080938001F12C6ECF29131EC08F
:1037D00020917A019081291319C040918101509163
:1037E0008201278130854217530781F4E1100EC012
:1037F0008683C8010E94841389E0F801AAE7B1E03A
:1038000001900D928A95E1F7FB2C4ECFC8010E94E2
:103810003B0C882309F44DCFEE2009F44ACF809168
:1038200080018032B8F020917A0130917B013B8792
:103830002A87DD86CC8690917E019E871F86888BA5
:1038400080918101909182019A8B898BCE010A9699
:103850000E94841389E0F801AAE7B1E001900D927B
:103860008A95E1F70E94B41A00CF80918001982FC9
:10387000907F51F48AE791E00E94841389E0F4017B
:1038800011928A95E9F7A0CFFF2009F4EECE20919E
:103890007B01F801918129131AC020917A0190814E
:1038A000291315C0409181015091820127813085F3
:1038B0004217530761F4E1100AC08683C8010E94D1
:1038C000841389E0F40111928A95E9F79DCFC8012C
:1038D0000E943B0C882309F4ECCEEE2009F4E9CEDB
:1038E00080918001803208F4B5CF20917A01309127
:1038F0007B013A832983DC82CB8290917E019D8378
:103900001E828F838091810190918201998788879F
:10391000CE0101969DCF60E08AE791E00E94650CA0
:103920000E94970B6816790608F0A8CFFF2009F4CB
:103930009CCEFE2CEE2009F4BCCE90917B01F801C8
:103940008181981336C090917A018081981331C09B
:103950002091810130918201878190852817390754
:1039600041F580917C0190917D01C81AD90AF8EC4B
:10397000CF16D104A8F49091800190FD11C0907FE2
:1039800079F080918001F8018683903F31F0982F83
:10399000907F905F8F70892B8683C8010E9484136B
:1039A00089E0F801AAE7B1E001900D928A95E1F76C
:1039B0007BCEC8010E943B0C81114CCF80918001CD
:1039C000816080938001C8010E9484136DCEA2E1C2
:1039D000B0E0EDEEFCE10C94212B0A871B872C87CD
:1039E0003D874E875F87688B798B8A8BCE010A96DD
:1039F0000E94191B81110CC089E0FE013A96DE017C
:103A0000119601900D928A95E1F78E8581110BC078
:103A100019E08091510490910804891331C0629695
:103A2000E4E00C943D2B2091080430E0C90101969C
:103A300087709927409151044817190699F099E029
:103A4000929FD001939FB00D1124A75FBB4FFE0141
:103A5000319601900D929A95E1F7809308040E94A7
:103A60002F08D6CF0E941C0E109208041092510409
:103A700089E0EAE7F1E0DF011D928A95E9F7C8CF16
:103A8000819FC0011124875F9B4F0E94191B8823CF
:103A900031F28091510490E00196877099278093CC
:103AA0005104B7CFEF92FF920F931F93CF93DF9301
:103AB00080915503882361F0E0911C038DE0F82E7E
:103AC00080915503E81748F01092550310921C039B
:103AD000CDB7DEB7E6E00C943B2BEE24E394EE0E7C
:103AE000E0921C03CE2FD0E0EF9DF0011124EA5AA2
:103AF000FC4F84818823E9F087819085892B21F40C
:103B000081859285019659F400811181228133814A
:103B1000448155816681778180850E94E71CFC9EE7
:103B2000F001FD9EF00D1124EA5AFC4F1482109210
:103B3000E203EE2DC5CF1092C9031092C803109274
:103B400009018091C7038093C6030E9428050E9443
:103B5000521D0895B0E0A0E0E0EBFDE10C94142BC1
:103B6000C091C60397E0992E01E010E02DE0322EBF
:103B700034E0432E552453948091C7038C1309C01D
:103B80000E94521D0E942805CDB7DEB7E1E10C94DA
:103B9000302BD0E0FE01EE0FFF1FE254FC4F80817E
:103BA0009181989ED001999EB00D1124A35EBC4FC7
:103BB00014962C911497211159C060905503E6E595
:103BC000F3E030E020E0812C5D01261508F04CC0C8
:103BD000E384F484D501CD90DC906FEF7FEF712CFE
:103BE000472D50E0DA01AA0FBB1FAC0DBD1D0D9093
:103BF000BC91A02D109731F0EA16FB0609F4BA012A
:103C00007394EECF6F3F7607A9F1D80102C0AA0FD7
:103C1000BB1F6A95E2F78A2AB801072C02C0660F1B
:103C2000771F0A94E2F7AB0141505109841615063B
:103C300001F5329EF001339EF00D1124EA5AFC4F3B
:103C4000989ED001999EB00D1124A35EBC4F129690
:103C50002D913C91139730872783448210821182E3
:103C60009287818715965C920E94FA042196C37010
:103C700083CF14822F5F3F4F3D96A7CFAEE1B0E0D8
:103C8000E4E4FEE10C94132B4B8B5C8B6D8B7E8BF1
:103C90008F8B988F91111092E203188A198A1A8AD1
:103CA00086E0FE017396DE011A9601900D928A95C8
:103CB000E1F780919D0182FF1CC00E940C042091BD
:103CC000840130918501821B930B8838934120F049
:103CD0008091860182FFE9C10E940C0420918F012E
:103CE00030919001821B930B8838934110F00E9411
:103CF000E3078E85882389F061E0CE010A960E9451
:103D0000650C6C018F8540E5C4164CE7D40689F438
:103D1000882329F181E0809309010A851B852C8580
:103D20003D854E855F85688979898A890E94E71C6F
:103D3000C7C061E5C6166CE7D60629F4882379F07A
:103D40000E949B1DEACF72E5C7167CE7D70639F4BF
:103D5000882329F0809109018111F2CFDBCF8DE119
:103D6000E82E83E0F82E512CB12CA12C88248394CA
:103D7000912CCE0101969A8F898F44244394F701A8
:103D80004081518166246A94762C20E0822F90E055
:103D9000FC01EE0FFF1FE40FF51F608171816115BB
:103DA000710531F0C616D70609F43C012F5FEECF3E
:103DB00010E0FFEF6F167F0609F443C0F70144815E
:103DC00010910901812F411180E0182F1170F70126
:103DD000358086819F85992309F4F3C0112309F466
:103DE000F0C0311014C0A401062C01C0440F0A9485
:103DF000EAF7842B868380911A0390911B03C29764
:103E000030F462E370E070931B0360931A03C40103
:103E100002C0880F991F2A95E2F70197F7012681C2
:103E20002817190671F48091C8039091C90300976F
:103E300009F44AC00E94F103C39708F445C0F70192
:103E40004482512AFFEFAF1ABF0A27E0E20EF11CAD
:103E500038E0A316B10409F092CF8F85882309F4C6
:103E600010C1552009F40DC10E940C049093C903A0
:103E70008093C80380915503883010F591E0980F26
:103E80009093550399E0FE013A96DE011196019058
:103E90000D929A95E1F74DE0849FC00111248A5A52
:103EA0009C4F29E0FE013196DC0101900D922A958C
:103EB000E1F72FEF3FEFFC0132872187D486C386DD
:103EC0006E96E2E10C942F2B8091C6035091C703AC
:103ED000982FF0E0E0E0851314C09093C603EE162F
:103EE000FF0609F4AECF90E0FC01EE0FFF1FE25495
:103EF000FC4FB182A0820196837099278093C703FB
:103F0000A0CF282E312CF101EE0FFF1FE254FC4F01
:103F100020813181F7E0F29FD001F39FB00D112491
:103F2000A35EBC4F2D913C9111973E8F2D8F40E0A9
:103F300020E030E0E32FF0E0EE0FFF1F6D8D7E8D6F
:103F4000E60FF71F6080718061147104E1F0F701E2
:103F50000190F081E02DFC8FEB8F20E005C066160C
:103F6000770609F4412F2F5FE22FF0E0EE0FFF1FDD
:103F70006B8D7C8DE60FF71F608171816115710576
:103F800071F73F5FD7CF4423C9F0F701231708F03B
:103F9000FD014482EE16FF0621F49093C603142F10
:103FA00050CF981305C0AE17BF0711F49F5F9370F1
:103FB00091012F5F3F4F822F83708DCFF0E0E0E0C3
:103FC000F7CF90E0311020C0B40102C0660F771F18
:103FD0002A95E2F79B01215031092817390731F45E
:103FE000442309F44CC0C5010E94FA04C401062C04
:103FF00001C0880F0A94EAF7982F9095F7018681FF
:1040000089238683132D1DCFAC01062C02C0559544
:1040100047950A94E2F7BA01617077279C01215015
:10402000310982239323892B31F5672B21F1F70185
:1040300082819381892BE1F0E98DFA8D27E011923D
:104040002A95E9F70E940C04282F8B839C8334E087
:104050003D83F70182819381782F88879987098131
:104060001A813C8144E05E816F81892F0E94E71CA8
:10407000F7011582BBCFF42FF1703F2EB7CF312E51
:10408000B5CF9091C6038091C703981729F00E947D
:10409000AA1D511015CF41CE0E94521D1092C90386
:1040A0001092C8030E942805F4CF82E00E94D40831
:1040B00013CEA6E0B0E0EFE5F0E20C94212B8C01EA
:1040C0009093BC018093BB01011580E21807C0F4F6
:1040D000802F0E944411C8010E94E9099801205EC6
:1040E00031092830310518F00115110531F40E940D
:1040F00033112696E4E00C943D2B0E942211F9CF57
:1041000080EF89838A830E940C048160682F9C83DE
:104110008B8349815A817C8181E090E00E943E1E20
:10412000E8CF0F931F93CF93DF938C01EB0165ECE6
:1041300071E08C2F0E94830B892B71F4DD27C3540F
:10414000DE4F8881F801128218828330F1F048F442
:10415000813059F0823081F0DF91CF911F910F9122
:1041600008958430B9F08530B9F78091C5019091F8
:10417000C601009789F306C08091C7019091C801DC
:10418000009799F30E945920E7CF8091C90190913F
:10419000CA01F6CF8091CB019091CC01009791F7A5
:1041A0002091C5013091C6018091C7019091C8014D
:1041B00021153105F1F2009729F7C901E3CFA6E0F7
:1041C000B0E0E5EEF0E20C94232B9093BC018093D9
:1041D000BB01811520E2920730F40E945513269608
:1041E000E2E00C943F2B80EF89838A830E940C04C9
:1041F0008160682F9C838B8349815A817C8181E017
:1042000091E00E943E1EEBCFCF93DF93EC010E9422
:10421000DF20CE010E945920DF91CF9108950F93A6
:104220001F93CF93DF938C01862F65EC71E00E9482
:10423000830B892BB1F4C091C501D091C6012097A1
:1042400081F0F8018281833051F4CE010E94042173
:10425000CE010E940421CE010E94042102C08430BC
:10426000D0F7DF91CF911F910F9108950F931F9376
:10427000CF93DF938C01EB0165EC71E08C2F0E94F2
:10428000830B892B09F05CC0FE01FF27D801129631
:104290008C911297E354FE4F8130B9F415969C919E
:1042A00092FF02C080830AC090FFFCCF82E080832F
:1042B0008091C7019091C8010097B9F48091C50120
:1042C0009091C6010097E1F110C08230B9F51596C2
:1042D0008C9182FD28C080FD0BC083E0808380919B
:1042E000C9019091CA01009701F10E94DF2028C006
:1042F00084E080838091CB019091CC010097A9F755
:104300008091C5019091C6010097F9F00E940421A7
:104310008091C7019091C801009739F78091C5013C
:104320009091C601E2CF85E080838091C501909194
:10433000C601009729F00E940421F0CF86E0808317
:10434000DF91CF911F910F9108958091C7019091B6
:10435000C801B8CFA6E0B0E0E0EBF1E20C94212B6D
:104360000E940C048C01809192019091930180171E
:10437000910781F019821A820E940C04682F4981EA
:104380005A81792F80E090E00E943E1E10939301A5
:10439000009392012696E4E00C943D2BA3E0B0E05C
:1043A000E4EDF1E20C941C2B19821A821B828CE43E
:1043B000C82E81E0D82E10E000E0EE24E394F12C2A
:1043C000F60181916F018F3F09F446C0F894E82F00
:1043D000E295EF70F0E021A18F70A70102C0440FB9
:1043E000551F8A95E2F7CA01922F982B91A392A1AB
:1043F0008095892382A3789400C0EFE4F1E0B12C8A
:1044000031E021912F3F09F46CC0A22FA295AF702B
:10441000B0E090968C9190E02F7002C095958795B2
:104420002A95E2F780FD5DC0832FB82A330F51E053
:10443000E535F50731F7F601319780818F3F11F0AF
:104440000E94C90580EA8A95F1F7E1E0F0E0EC0FFF
:10445000FD1FE00FF11FB0820F5F1F4F03301105EA
:1044600009F0AECF43E050E0BE016F5F7F4F87E9B8
:1044700091E00E94672B892BB1F189819A81AB81F0
:104480008093970190939801A093990181E0809384
:1044900096010E940C049093950180939401809161
:1044A0009401909195010E94F103059700F143E07A
:1044B00050E067E971E089EA91E00E94672B892B5F
:1044C000D9F08091970190919801A09199018093E2
:1044D000A9019093AA01A093AB0181E010929601EB
:1044E00007C080E0A2CF809196018111D8CF80E0F3
:1044F0002396E9E00C94382B80E0F0CF1F920F92C6
:104500000FB60F9211242F933F934F935F936F93A6
:104510007F938F939F93AF93BF93CF93DF93EF934B
:10452000FF93D091E900DF708091EC00C82FC1703B
:1045300080FDC0E81092E9008091F000877F8093B1
:10454000F00078940E94430E1092E9008091F000F0
:1045500088608093F000CD2BCF70C093E900FF916D
:10456000EF91DF91CF91BF91AF919F918F917F910B
:104570006F915F914F913F912F910F900FBE0F90D0
:104580001F9018951F920F920FB60F9211242F9320
:104590003F934F935F936F937F938F939F93AF93CB
:1045A000BF93EF93FF938091E10082FF09C0809158
:1045B000E20082FF05C08091E1008B7F8093E100E3
:1045C0008091DA0080FF24C08091D80080FF20C055
:1045D0008091DA008E7F8093DA008091D90080FF8D
:1045E0009DC080E189BD82E189BD09B400FEFDCF97
:1045F00081E08093FE038091F103811109C00E9444
:1046000094020E9435038091E20084608093E2006E
:104610008091E10080FF17C08091E20080FF13C00D
:104620008091E2008E7F8093E2008091E2008061C1
:104630008093E2008091D80080628093D80019BCFA
:1046400085E08093FE038091E10084FF2BC0809180
:10465000E20084FF27C080E189BD82E189BD89B580
:10466000982F917080FFFBCF8091D8008F7D809331
:10467000D8008091E1008F7E8093E1008091E2007C
:104680008F7E8093E2008091E20081608093E2005F
:104690008091FF03882309F447C084E08093FE03E0
:1046A0008091FE038091E10083FF27C08091E200AA
:1046B00083FF23C08091E100877F8093E10082E047
:1046C0008093FE031092FF038091E1008E7F809320
:1046D000E1008091E2008E7F8093E2008091E20011
:1046E00080618093E20042E060E080E00E9403038A
:1046F0008091F00088608093F000FF91EF91BF916E
:10470000AF919F918F917F916F915F914F913F9169
:104710002F910F900FBE0F901F90189519BC1092FB
:10472000FE031092F10374CF8091E30087FD93E0C4
:104730009093FE03B5CF78941F921FB61F92112459
:104740008F939F93AF93BF938091ED039091EE036E
:10475000A091EF03B091F0030196A11DB11D8093CC
:10476000ED039093EE03A093EF03B093F003BF919A
:10477000AF919F918F911F901FBE1F9018951F9210
:104780001FB61F9211248F939F93AF93BF93809175
:10479000EC03811113C08091ED039091EE03A09181
:1047A000EF03B091F0034196A11DB11D8093ED037D
:1047B0009093EE03A093EF03B093F003BF91AF91FA
:1047C0009F918F911F901FBE1F901895CDB7DEB798
:1047D000E2970FB6F894DEBF0FBECDBF85B78068F5
:1047E00085BF85B7806885BF84B7877F84BF0FB6D4
:1047F000F894A89580916000886180936000109281
:1048000060000FBE80E890E00FB6F89480936100DE
:10481000909361000FBE87EC95E0909365018093C3
:1048200064010E9439050E943A0D0E94AE0C0E945C
:1048300094020E9435038091E20084608093E2003C
:1048400078948091FE038823A1F01091E9001F70F5
:104850009091EC00892F817090FD80E8182B1092C8
:10486000E9008091E80083FD0E94430E1F701093C1
:10487000E90082E084BD93E095BD9AEF97BD8093F7
:104880006E000E94950C811102C00E94730B86EC91
:104890000E94C90580E30E94C90583E30E94C905FF
:1048A0000FE411E0D8018D918D018F3F11F00E942E
:1048B000C905B1E005351B07A9F783E0E9EAF1E096
:1048C000DF01282F1D922A95E9F7E7E9F1E0DF01E2
:1048D0001D928A95E9F790E080E00E94932B863E36
:1048E0009E4F21F40E94950C811167C066EE7EEF09
:1048F00090E080E00E94C72B60E082E090E00E94A0
:10490000A92B60E083E090E00E94A92B10929A010D
:1049100060E074E184E090E00E94C72B60E086E0F4
:1049200090E00E94A92B6FEF87E090E00E94A92BF6
:1049300040E050E0BA0188E090E00E94BB2B60E0CC
:1049400084E290E00E94A92B60E087E190E00E9461
:10495000A92B60E08CE090E00E94A92B60E08DE044
:1049600090E00E94A92B19821A821B821C821D8250
:104970001E821F82188648E050E068E170E0CE0198
:1049800001960E94992B40E050E0BA0180E290E04D
:104990000E94BB2B80E00E94D10A0E94730B40E072
:1049A00050E0BA018FE090E00E94BB2B40E050E065
:1049B000BA0183E190E00E94BB2B82E090E00E946C
:1049C0008B2B80939E0184E090E00E94932B909328
:1049D0009D0180939C010E94CE21EFEFF6E721E03C
:1049E000E150F0402040E1F700C000000E94CE21DD
:1049F0008091A90180FF08C06FEF7FEF90E080E019
:104A00000E94C72B0E94770A83E090E00E948B2BC4
:104A10000E940E0981E091E09093E9038093E803FE
:104A200033243394222423948E010F5F1F4F8091EF
:104A3000FE0370E1F72EE2E1EE2E853009F405C2A7
:104A40000E94CE2190919F018091A901981307C2E5
:104A50009091AA018091A001981301C29091A101A7
:104A60008091AB019813FBC10E94AA218091DB03C6
:104A70009091DC03892B09F43EC04091D003509102
:104A8000D1036091D2037091D3032FB7F894809132
:104A9000ED039091EE03A091EF03B091F0032FBFCF
:104AA000841B950BA60BB70B4091CC035091CD0303
:104AB0006091CE037091CF0384179507A607B707BF
:104AC000D0F08091DB039091DC030E94551310928B
:104AD000DC031092DB031092D0031092D1031092EA
:104AE000D2031092D3031092CC031092CD031092F4
:104AF000CE031092CF03E090E403F090E503E114BD
:104B0000F104E9F08091A2019091A3010E94F103C8
:104B10006C01C7010E94970B8C159D0580F4809154
:104B2000E403FEE08F9FC0011124FC01EC52FE4F14
:104B3000208122FD04C081539E4F0E94F10D80917F
:104B40000901882301F18091C8039091C90300975E
:104B5000D1F00E94F10320911A0330911B03281712
:104B6000390788F49091C6038091C703981709F418
:104B7000B1C10E94AA1D10921B0310921A03109239
:104B8000C9031092C80386E0E5EBF1E0D80101907B
:104B90000D928A95E1F71092B7011092B801109228
:104BA000B9011092BA018B819C81892B09F44AC00A
:104BB0008091B3019091B4010E94F1039C01909106
:104BC000AE01992309F409C525313105D8F19F3F7C
:104BD00019F09F5F9093AE01FB80FF2059F00E9477
:104BE000A7059FEF1F140CF491E0899F802D1124DD
:104BF0008093B701FC80FF2059F00E94A7059FEF2A
:104C00001F140CF491E0899F802D11248093B8012A
:104C10003091B7013323B1F02091B801222391F0F4
:104C200045EB3403C0011124992309F45CC190932E
:104C3000B70145EB240390011124332309F456C135
:104C40003093B8018D819E81892B09F44AC08091EF
:104C5000B1019091B2010E94F1039C019091AF01CA
:104C6000992309F4B5C421353105D8F19F3F19F0D6
:104C70009F5F9093AF01FD80FF2059F00E94850552
:104C80009FEF1F140CF491E0899F802D11248093D5
:104C9000B901FE80FF2059F00E9485059FEF1F1487
:104CA0000CF491E0899F802D11248093BA013091FA
:104CB000B9013323B1F02091BA01222391F045EBE1
:104CC0003403C0011124992309F413C19093B9014D
:104CD00045EB240390011124332309F40DC13093D3
:104CE000BA0146E050E0B80185EB91E00E94672BE5
:104CF000892B61F48091B7019091B801892B909133
:104D0000B901892B9091BA01892B11F00E945E059F
:104D100086E0F801A5EBB1E001900D928A95E1F7EC
:104D20000E947C049091A401891721F08093A40132
:104D30000E9400048091FE03843009F078CE83E065
:104D40008093E9008091E80082FF71CE8091E800B5
:104D500090E085FF0AC00E94B30240E2E42EF12CED
:104D60006801882309F4D5C091E08091E8008B7731
:104D70008093E800992309F45ACEE090AC01F090BA
:104D8000AD018981E114F10409F4D1C08E3F09F02D
:104D900056C18A81833020F08550833008F04FC19E
:104DA000EA81EE3008F04BC1F0E0EA5DF34D0C947F
:104DB000062B8091FE03843021F11092EC0388E1F0
:104DC00090E0A0E40FB6F894A895809360000FBE21
:104DD000A093600083B7817F846083BF83B78160C5
:104DE00083BF7894889583B78E7F83BF0FB6F8947E
:104DF000A8958091600088618093600010926000A7
:104E00000FBE8091FD03882301F10E94CE21809185
:104E1000AA019091A901892B9091AB01892BA9F04E
:104E2000F9BCE9BC09B400FEFDCF8091D8008F7DAC
:104E30008093D8008091E00082608093E0008091B0
:104E4000E00081FDFCCF0E941C0E8091FE038530A6
:104E500009F4AFCF0E941C0E0E947C04F1CD59EAE8
:104E6000C52E51E0D52E6FE9E62E61E0F62EB12C6D
:104E7000F601A1906F01D7017D907D017A1419F19F
:104E80007A24912C88248394882D8721A1F09BA6D5
:104E9000BCA60E940C049EA78DA72FA691E0882D8A
:104EA0008A2109F490E098AB4BA55CA56DA57EA581
:104EB0008FA50E943E1E9394880CB6E09B12E4CF0F
:104EC000F7013197A082B394E3E0BE12D1CF0E94E4
:104ED0000004CCCD0E94521D1092C9031092C80349
:104EE0000E94280550CE3092B701A3CE3092B8016F
:104EF000A9CE3092B901ECCE3092BA01F2CE8091B7
:104F0000F100D6018D936D01B1E0EB1AF10809F4BF
:104F10002BCF8091E80085FDF2CF8091E8008B7760
:104F20008093E8000E94B302882399F31DCF8C3050
:104F300009F4C4C068F5843009F4A7C058F482307D
:104F400009F46CC008F092C0813009F463C08FEF9F
:104F5000898375C0863009F4AEC008F4A1C08B30D7
:104F6000B1F78091CA039091CB03892B09F467C0F4
:104F700040E250E0B80182E00E941A0A3FEF41EEA1
:104F800084E0315040408040E1F700C000003ACD5D
:104F9000803109F4C4C090F58E3009F496C008F44D
:104FA00090C08091CA039091CB03892B09F447C02C
:104FB000EC80F12C3DE1E316F10408F040C0CA801A
:104FC000DB80DC24CD24DC245801E00EF11EC60178
:104FD00087559E4FEA14FB0491F147E5C41642E061
:104FE000D40628F4D50114966C910E94A92BBFEF2A
:104FF000AB1ABB0AEFEFCE1ADE0AE9CF823109F411
:1050000093C008F48FC0833109F4B6C08E3F09F015
:105010009ECFC6CE1A8289E08B8311C08A818230EE
:1050200009F4CEC2833091F0813009F090CF0E9414
:1050300000040E940C2B6B837C838D839E8340E253
:1050400050E0B80182E00E941A0AF1CC8091CA03B4
:105050009091CB03892B99F38091A9018B83809147
:10506000AA018C838091AB018D83E9CF8A81823044
:1050700009F06DCF6B817C818D819E810E940C2B0C
:1050800088E290E00E94A92BDACF4C816B818A8163
:105090000E94B30B9827892798279E838D83CFCFB3
:1050A0002D813E813227232732274C816B818A81D3
:1050B0000E94AB0AC4CF0E94EA0AC1CF88E18A836A
:1050C000BECF82E08A8387E5A7CFEC80F12CEDE1AB
:1050D000EE16F10408F0B3CFCA80DB80DC24CD24C7
:1050E000DC245801E00EF11EC60187559E4FAE1418
:1050F000BF0409F4A4CFF7E5CF16F2E0DF0660F4B1
:105100000E948B2BD50114968C93FFEFCF1ADF0AE8
:105110002FEFA21AB20AE8CFF5011482F6CF0E944F
:105120009B0A8DCF84E0CBCFEC80F12CFDE1EF1614
:10513000F10408F084CFCA80DB80DC24CD24DC2499
:105140005801E00EF11EC6018996AE14BF0409F4A1
:1051500076CF20E9C216D10460F40E948B2BD501D2
:1051600014968C93FFEFCF1ADF0A2FEFA21AB20A20
:10517000EACFF5011482F6CFCC80D12C3DE1C316E5
:10518000D10408F05CCFEA80FB80FE24EF24FE24EB
:1051900040E9E416F10408F052CF80E990E08E195E
:1051A0009F098C159D0508F44ACF370189E2680EE6
:1051B000711C8091CA039091CB0327014C0C5D1C9C
:1051C000892BB9F5570191E0A922BB24E0FE0DC05F
:1051D000C70188960E948B2B9D8189279827892754
:1051E00081159C4711F48FEF8D83460140FE1AC054
:1051F000B1E08B1A9108E5E0F0E0EC0FFD1FE80D3F
:10520000F91DFAABE9ABC3018C0D9D1D0E948B2BE0
:10521000A9A9BAA99C9181159C4721F48FEFE9A90E
:10522000FAA98083F801EA0DFB1D2FEFA814B90439
:1052300010F068011AC09481858181159C4711F492
:105240002483258342E0A40EB11C3296EFCFA0E95F
:10525000EA16F10420F4F60164810E94A92BFFEF05
:10526000CF1ADF0A2FEFE21AF20AC7018996E41477
:10527000F50469F7E4CE88E0EBE0F1E0DE01919619
:1052800001900D928A95E1F780E2D8011D928A95EE
:10529000E9F786E0898388E0FE01B196DE01159684
:1052A00001900D928A95E1F7CACE80EF89831A8228
:1052B0001B821C82C4CE8C81682F70E0762F6627FB
:1052C0008B81860F972F911D092E000CAA0BBB0B0B
:1052D00035E0880F991FAA1FBB1F3A95D1F7AC0183
:1052E000BD01405E5F4F6F4F7F4F481759076A07F8
:1052F0007B0708F4A4CE803F9105A105B10508F015
:105300009ECE413F51056105710520F040EF50E010
:1053100060E070E0481B590BBC0167577E4FC80125
:105320000E945E2B8CCE4AE150E06FEF70E0CE0120
:1053300007960E94742B8091CA038983EA821B829C
:105340001C823D8285E08E837ACE81E090E090934E
:10535000AD018093AC0182E390E09093A80180932B
:10536000A7010E940C049093A6018093A50167CE2B
:10537000EF2861F1F090A901E090AA018091A501C8
:105380009091A6010E94F1038536910540F1E5FE5A
:1053900026C0F0FE24C00E940C049093A6018093C6
:1053A000A5018091A7019091A80101979093A80170
:1053B0008093A701892B51F41092AD011092AC019A
:1053C00081E090E09093CB038093CA038091CA035D
:1053D00089838091AC018A838091A7011DCE82E3ED
:1053E00090E09093A8018093A701F0CF1092CB0397
:1053F0001092CA0324CE40E250E06FEF70E0C80183
:105400000E94742B1CCEEB81E73008F018CEF0E040
:10541000EC5CF34D0C94062BFE0133968EE1DF011C
:105420001D928A95E9F788E089838A83F5CD8C817E
:105430009AE0F92E6E01B1E2CB0ED11CF6012F2DB0
:1054400011922A95E9F7B6010E94830B8983F60130
:10545000DE01129601900D92FA94E1F7F0CDFC80F6
:105460008AE0FE013596DE01919601900D928A95B3
:10547000E1F789A19AA10E9451059AA389A38BA162
:105480009CA10E9451059CA38BA38DA19EA10E946B
:1054900051059EA38DA38FA198A50E94510598A7A1
:1054A0008FA337E08FEF3F1568F04AE0F49EB0011C
:1054B000112467547F4F4AE050E0CE0181960E944C
:1054C000CD2B80E089830E943905B9CD6C812AE01B
:1054D000CE018196DC01E22F1D92EA95E9F7683052
:1054E00008F047C0629FB0011124675F7E4F4AE019
:1054F00050E00E947B2B80E089838AE0FE01B19618
:10550000DE011296CDCEFC808AE0FE013596DE01EA
:10551000919601900D928A95E1F789A59AA50E942E
:1055200051059AA789A7F7E08FEFFF1568F02AE0E9
:10553000F29EB0011124675F7E4F4AE050E0CE0139
:1055400081960E94CD2B80E089830E943A0D77CD11
:105550006C812AE0CE018196DC01E22F1D92EA9552
:10556000E9F7683030F4629FB0011124675A7E4F2A
:10557000BECF8FEFC1CFFC808AE0FE013596DE0101
:10558000919601900D928A95E1F78BA19CA10E94C2
:1055900051059CA38BA3F7E08FEFFF1568F02AE07D
:1055A000F29EB0011124675A7E4F4AE050E0CE01CE
:1055B00081960E94CD2B80E089830E94AE0C3FCD66
:1055C00088E290E00E948B2B1B821C821D82BBCE46
:1055D0002B30310508F04CCB84CB2B30310508F053
:1055E000F8CA30CB97FB072E16F4009407D077FD4E
:1055F00009D00E944A2B07FC05D03EF49095819576
:105600009F4F0895709561957F4F0895EE0FFF1F8E
:105610000590F491E02D099469279627692778274A
:105620008727782708952F923F924F925F926F922B
:105630007F928F929F92AF92BF92CF92DF92EF9222
:10564000FF920F931F93CF93DF93CDB7DEB7CA1BA3
:10565000DB0B0FB6F894DEBF0FBECDBF09942A88CE
:10566000398848885F846E847D848C849B84AA8476
:10567000B984C884DF80EE80FD800C811B81AA8103
:10568000B981CE0FD11D0FB6F894DEBF0FBECDBFCE
:10569000ED010895AA1BBB1B51E107C0AA1FBB1F48
:1056A000A617B70710F0A61BB70B881F991F5A95AE
:1056B000A9F780959095BC01CD010895FB01DC010F
:1056C00002C005900D9241505040D8F70895FB015B
:1056D000DC0104C08D910190801921F441505040AB
:1056E000C8F7881B990B0895DC0101C06D934150E8
:1056F0005040E0F70895DC01CB01FC01F999FECFA1
:1057000006C0F2BDE1BDF89A319600B40D92415049
:105710005040B8F70895F999FECF92BD81BDF89A2F
:10572000992780B50895A8E1B0E042E050E00C94DC
:105730007D2BDC01A40FB51F4150504048F0CB0138
:10574000840F951F2E910E94AA2B41505040D0F7F4
:105750000895262FF999FECF92BD81BDF89A019741
:1057600000B4021639F01FBA20BD0FB6F894FA9AA9
:10577000F99A0FBE08950396272F0E94AA2B0E9424
:10578000A92B252F0E94AA2B242F0C94AA2B01961B
:10579000272F0E94AA2B0C94A92BDC01CB0103C05C
:1057A0002D910E94D82B41505040D0F70895262FBC
:1057B000F999FECF1FBA92BD81BD20BD0FB6F894F6
:1057C000FA9AF99A0FBE01960895F894FFCF240F24
:1057D0004C0FFA104C0FFA107F0FA00FFA10A910FF
:1057E000B6104B16C01653161D1621165716251641
:1057F0005B1667163116B91635166B1639166F1605
:1058000097163D1673169E1643167916811629169D
:105810005F162D16631647167D168D16A716B7163A
:1058200017164F16C716F315F915E415ED15FF15E4
:1058300005160B16261726175C175C1710182A1862
:10584000831783172F189A18A918A9183B295529C7
:105850005B291F281F289329A529B829F629FB2988
:105860001F281F281F28032A0C2A172A2F2A662AD6
:06587000832AA82ABB2ACE
:1058760001EE03630A5C0A550A0101BEA29B4C6E47
:1058860078DA7D818283E200E900EA00B500B6009D
:10589600B700CD008301CC008A0192019401210258
:1058A600230224022502260227022A02B300B4009C
:1058B6006F0070009F01CB019F02A002C630339596
:1058C6009392F4919040227B49012701AC001B037F
:0458D6003403540340
:00000001FF
